:1068000000180020596C0000A16C0000A16C000071
:106810000000000000000000000000000000000078
:10682000000000000000000000000000A16C00005B
:106830000000000000000000A16C0000A16C00003E
:10684000A16C0000A16C0000A16C0000A16C000014
:10685000A16C0000A16C0000A16C0000A16C000004
:10686000A16C0000A16C0000D1950000FD95000016
:10687000A16C0000A16C0000A16C0000A16C0000E4
:10688000A16C0000A16C0000A16C0000A16C0000D4
:10689000A16C0000A16C0000A16C0000A16C0000C4
:1068A000A16C0000A16C0000A16C0000A16C0000B4
:1068B000A16C0000A16C0000A16C00009595000087
:106C0000FFFFFFFFFFFFFFFFFFFFFFFFFEFFFFFF95
:106C100010B5064C2378002B07D1054B002B02D072
:106C2000044800E000BF0123237010BD00040020D1
:106C300000000000F0A30000044B10B5002B03D0AF
:106C40000349044800E000BF10BDC046000000003A
:106C500004040020F0A3000072B601F053FA62B6FB
:106C60000A490B4A0B4B9B1A03DD043BC858D05012
:106C7000FBDC0949094A521A03DD00208850043A16
:106C8000FCDA02F0B7FB01F0C9FA000018A400001A
:106C90000004002000040020000400202C06002036
:106CA00000B5C04600BDC046002243088B4274D3E5
:106CB00003098B425FD3030A8B4244D3030B8B42FD
:106CC00028D3030C8B420DD3FF22090212BA030C06
:106CD0008B4202D31212090265D0030B8B4219D3E7
:106CE00000E0090AC30B8B4201D3CB03C01A524107
:106CF000830B8B4201D38B03C01A5241430B8B424F
:106D000001D34B03C01A5241030B8B4201D30B0337
:106D1000C01A5241C30A8B4201D3CB02C01A52415E
:106D2000830A8B4201D38B02C01A5241430A8B4221
:106D300001D34B02C01A5241030A8B4201D30B020A
:106D4000C01A5241CDD2C3098B4201D3CB01C01A24
:106D5000524183098B4201D38B01C01A524143092E
:106D60008B4201D34B01C01A524103098B4201D31C
:106D70000B01C01A5241C3088B4201D3CB00C01A89
:106D8000524183088B4201D38B00C01A5241430801
:106D90008B4201D34B00C01A5241411A00D2014626
:106DA000524110467047FFE701B5002000F0F0F8AF
:106DB00002BDC0460029F7D076E7704703460B4373
:106DC0007FD4002243088B4274D303098B425FD3E4
:106DD000030A8B4244D3030B8B4228D3030C8B4210
:106DE0000DD3FF22090212BA030C8B4202D31212F6
:106DF000090265D0030B8B4219D300E0090AC30BCB
:106E00008B4201D3CB03C01A5241830B8B4201D377
:106E10008B03C01A5241430B8B4201D34B03C01A60
:106E20005241030B8B4201D30B03C01A5241C30AD8
:106E30008B4201D3CB02C01A5241830A8B4201D349
:106E40008B02C01A5241430A8B4201D34B02C01A33
:106E50005241030A8B4201D30B02C01A5241CDD2D8
:106E6000C3098B4201D3CB01C01A524183098B4223
:106E700001D38B01C01A524143098B4201D34B010C
:106E8000C01A524103098B4201D30B01C01A52416F
:106E9000C3088B4201D3CB00C01A524183088B42F6
:106EA00001D38B00C01A524143088B4201D34B00DF
:106EB000C01A5241411A00D2014652411046704751
:106EC0005DE0CA0F00D04942031000D34042534056
:106ED00000229C4603098B422DD3030A8B4212D316
:106EE000FC22890112BA030A8B420CD38901921148
:106EF0008B4208D3890192118B4204D389013AD085
:106F0000921100E08909C3098B4201D3CB01C01A59
:106F1000524183098B4201D38B01C01A524143096C
:106F20008B4201D34B01C01A524103098B4201D35A
:106F30000B01C01A5241C3088B4201D3CB00C01AC7
:106F4000524183088B4201D38B00C01A5241D9D2DF
:106F500043088B4201D34B00C01A5241411A00D260
:106F60000146634652415B10104601D34042002B5C
:106F700000D54942704763465B1000D3404201B5DB
:106F8000002000F005F802BD0029F8D016E7704790
:106F90007047C0468446101C62468C46191C6346E6
:106FA00000E0C0461FB500F0F1F9002801D400212F
:106FB000C8421FBD10B500F049F94042013010BD74
:106FC00010B500F0E3F9002801DB002010BD01201E
:106FD00010BDC04610B500F0D9F9002801DD002031
:106FE00010BD012010BDC04610B500F06BF900289F
:106FF00001DC002010BD012010BDC04610B500F01E
:1070000061F9002801DA002010BD012010BDC04642
:10701000002B11D1002A0FD1002900D1002802D065
:107020000021C943081C07B4024802A1401802907D
:1070300003BDC0465DFFFFFF03B4684601B502987B
:1070400000F042F8019B9E4602B00CBC7047C0465F
:1070500070B500220C4B04000D00FFF7CFFF002895
:1070600004D12000290000F0B3FF70BD064B0022C0
:107070002000290000F064FC00F0AAFF80231B061A
:107080009C466044F1E7C0460000E04170B5002234
:107090000B4B0D00040000F0E1F9FFF7D9FF0600EB
:1070A00000F0CCFF0022074B00F0D8F902000B00E3
:1070B0002000290000F044FCFFF7CAFF310070BD3A
:1070C0000000F03D0000F041F0B54F464646D64680
:1070D000C0B5040082B00D00914698468B422FD86F
:1070E0002CD04146484600F0F9FF29000600200058
:1070F00000F0F4FF331A9C46203B9A4600D576E018
:107100004B46524693401F004B46624693401E003A
:10711000AF4228D825D05346A41BBD41002B00DA2E
:107120007BE000220023009201930123524693400A
:107130000193012362469340009318E08242D0D924
:1071400000220023009201930A9B002B01D01C60B7
:107150005D600098019902B01CBC90469946A24619
:10716000F0BDA342D7D900220023009201936346C9
:10717000002BE9D0FB079846414672080A437B087A
:1071800066460EE0AB4201D1A2420CD8A41A9D4142
:10719000012024196D410021013E24184D41002E8B
:1071A00006D0AB42EED9013E24196D41002EF8D134
:1071B00000980199534600196941002B23DB2B00ED
:1071C0005246D3402A006446E2401C005346150054
:1071D000002B2DDB26005746BE40330026006746B5
:1071E000BE403200801A994100900191ACE762469E
:1071F00020239B1A4A46DA406146130042468A40E1
:1072000017001F4380E7624620239B1A2A00664628
:107210009A402300F3401343D4E762462023002121
:107220009B1A0022009101920122DA40019280E72C
:107230002023624626009B1ADE402F00B046664699
:10724000B74046463B003343C8E7C046F0B54F461B
:107250004646D6468446C0B58046194E18030F03ED
:107260004D00000B5C0082463F0B6D0DC90F91462F
:10727000640DDB0F0120B5420AD0B44203D0A54211
:1072800001D157450CD01CBC90469946A246F0BD92
:1072900066463E43F7D1AC42F5D154461443F2D191
:1072A0000120C845EFD1994207D0002DEBD16346AC
:1072B0001F433800471EB841E5E70020E3E7C0461A
:1072C000FF070000F0B54F464646D6464D00C0B514
:1072D0000E03C90F8A462C491F035C008046360BFB
:1072E0006D0D91463F0B640DDB0F8D421ED08C421D
:1072F00016D0002D1ED130438446002C01D13A43D4
:1073000023D06246002A1AD09A4529D0514602203D
:107310000139084001381CBC90469946A246F0BD90
:1073200039001143E5D002204042F4E73043FAD15E
:10733000AC420FD0002C0FD13A43E7D00CE0012231
:10734000013B934318000130E5E763460020002B22
:10735000E1D0DBE73A43E6D19A45D7D1A542D5DC67
:10736000A54205DBBE42D1D808D00020BE42D2D211
:1073700050460123013898430130CCE7C845C5D8B1
:107380000020C845F4D3C6E7FF070000F0B54F461C
:107390004646D6464D00C0B50E03C90F8A462E4953
:1073A0001F035C008046360B6D0D91463F0B640D4C
:1073B000DB0F8D4218D08C4211D0002D18D13043F4
:1073C0008446002C1ED13A431CD163460020002B7A
:1073D00030D0514602200139084001382AE03900F6
:1073E0001143EAD0022025E03043FBD1AC4226D045
:1073F000002C26D13A4324D15146022001390840BD
:10740000013817E06246002A0FD09A45E1D1A54223
:1074100005DBBE42DDD819D00020BE420AD250465C
:10742000012301389843013004E00122013B9343DA
:10743000180001301CBC90469946A246F0BD3A4364
:10744000D0D19A45C5D1A542C3DCE0E7C845C0D834
:107450000020C845E3D3EDE7FF070000F0B557462D
:10746000DE464E464546E0B5834606000F0348001B
:1074700087B092461D003F0B400DCC0F002800D175
:107480006FE0DE4B984238D08023FF001B041F437F
:10749000730F3B430193DA4B0027994600239B4629
:1074A000F60081442B0369001B0B52469846490D98
:1074B000ED0F002900D185E0D04B994200D173E057
:1074C0004346DA0080231B0413435246CC48520F34
:1074D00084461343524600206144D200894421006F
:1074E000694000918C46012149448A460F2F00D9FA
:1074F00090E0C449BF00CF59BF465B463B43019370
:1075000000D06AE102230827002681469B46C9E78E
:1075100032005846019B61460091022800D175E077
:10752000032800D1FEE1012800D02CE10023002730
:10753000002600253F032A0D3F0BB34812053A43AE
:1075400002401B051343009A5B00D1075B080B4305
:107550003000190007B03CBC90469946A246AB46A5
:10756000F0BD5B463B43019300D12FE1002F00D1DA
:10757000A5E1380000F094FD03000B3B1C2B00DD5F
:1075800096E11D22D31A5A460100DA405E460839B8
:107590008F4013008E403B4301939C4B00271B1AE6
:1075A000994600239B467DE7414653460B4393494A
:1075B0008C46E144002B00D01AE10222022017433E
:1075C00000228CE7134300D10DE14346002B00D18C
:1075D00081E1404600F064FD02000B3A1C2A00DD08
:1075E00072E10100434608398B4098461D239A1AE0
:1075F0005346D3401A004346134352468A404946F5
:10760000081A824989468144002068E77B4B00279D
:1076100000268EE7140C1204120C1100370C3604ED
:10762000350C794328008C462E0060436044834625
:1076300056432100300C804658467943404402911D
:10764000844506D98846802149028C46E04441465B
:1076500002913604010C360C00048B4681191E0C75
:107660001B041B0C0391190079438C4628007543B9
:107670006544A8465843050C45447743A94203D9BD
:10768000802149028C466744290C8C46390000044D
:10769000000C2D042D186144AB440591594604910A
:1076A00001990F043F0C080C3900514342439046A6
:1076B00002008C46090C8B4662437C4344445C4484
:1076C000A04503D98021490288464244210C8846BE
:1076D00061460904090C8C46390059434343704301
:1076E0007E430F0CF6182404BE19644442448C46B1
:1076F000B34203D980235B0298464044029B614613
:107700009846049B370443449B46AB45AD416B42CE
:107710000D0405992D0C8C467F196744FD18A84669
:107720005D462D19A542A44193466442A446C34434
:10773000DC448F42BF4198459B4193459241A4450B
:10774000A4415B427F421F43360C52426442BF1940
:107750002243BF18624638184302D20D03991343DF
:107760006A020A43501E82416146ED0D2A434E02D1
:107770003243D90100D4B3E001265008324002431D
:10778000DE0732435B08224C5444002C62DD510773
:1077900009D00F201040042805D0101D90429241BE
:1077A00052429B180200D90104D580241948E400F4
:1077B000034054441848844200DD27E75E075B021B
:1077C000D2081F0B630516435B0DB2E600239946F2
:1077D0000133042700269B4664E603230197814674
:1077E0000C279B465EE6012201201743002276E625
:1077F000032303201F43434671E6C046FF070000F2
:1078000001FCFFFFE0A20000FFFF0F800DFCFFFF67
:10781000FF030000FFFFFFFEFE070000002380279C
:1078200000933F030026434B83E6019B3200A446AE
:10783000584670E6AC466EE6802701993F03394210
:107840002DD03B422BD11F433F033F0B0095160029
:10785000384B6EE601252D1B382D00DD66E61F2D09
:1078600040DC35481C005044160082408440EE4005
:10787000501E824134431443EB40620709D00F226B
:107880002240042A05D02200141D94428041404227
:107890001B181A023ED501230027002649E680273F
:1078A000019B3F031F433F033F0B0094214B40E6E6
:1078B00003005A46283B9A40002601926DE658463E
:1078C00000F0EEFB203057E603005246283B9A407A
:1078D0001300002293E6504600F0E2FB20307BE6E6
:1078E000CA4650E71F201E004042041BE640202DE0
:1078F00003D0124C5444A3401A43501E82413243D9
:1079000007260027164009D00F200023104014003E
:107910000428B9D122005E075B021F0BD208164370
:10792000002306E680273F031F433F033F0B16005B
:10793000004BFEE5FF0700001E0400003E040000AF
:10794000F8B557464E464546DE460C000903E0B5FD
:10795000490A460F5F0031431E03DB0F760A9B4640
:10796000530F3343C84E6500C000E40FD2006D0DC5
:10797000A24681467F0D9C469046B74200D1B9E0B1
:107980005B46012673409B46EE1BA34500D183E076
:10799000002E63DD002F00D0B1E06346134300D119
:1079A00023E1731E002B00D0BAE1861A6346B04271
:1079B00080410125C91A4042091A0B0200D447E14F
:1079C00049024B0A98464346002B00D189E14046C4
:1079D00000F066FB0300083B1F2B00DD7CE120224A
:1079E0003000D21A4146D040994002009E400A43DE
:1079F0009D4200DD6AE15D1B6B1C1F2B00DD94E1E5
:107A0000202110003500C91A8E40DA408840DD4040
:107A1000711E8E4111000722284300250643324083
:107A2000002A09D00F233340042B05D0331DB34265
:107A3000B641764289191E000B0200D43DE26A1C51
:107A4000914B55056D0D9A4200D119E18F4AF60808
:107A50000A40570752023743120B9BE0002E00D01A
:107A6000C5E06E1C7605760D012E00DC48E1674608
:107A7000861ACB1BB042BF417F42B8461F00434627
:107A8000FF1A3B00B8461B0200D55FE137439AD18D
:107A900000220024002579E0002E00DCFAE0002F0F
:107AA00000D18DE0784B9D4267D0802367461B0450
:107AB0001F43BC46382E00DC52E1634613435A1E76
:107AC00093411E1886428041404209180B0200D49F
:107AD000BEE06D4B01359D4200D1D2E06B4A730888
:107AE0000A4001210E401E435108D30707221E43BE
:107AF000324095E71E00164300D045E740E7624B51
:107B00009D423AD0802367461B041F43BC46382E53
:107B100000DDEBE01F2E00DC3AE133006746203B3E
:107B2000DF403B00202E05D04027BF1B6646BE40ED
:107B3000324390464646721E96413343DAE0002BAC
:107B400000D114E26346134300D168E180234E075D
:107B5000C008C9081B030643194208D06046C00884
:107B6000184204D163460100D2085E071643F300B1
:107B70009946C900720F444D11434B46DE08424BF3
:107B80004F073743CA089D4200D16EE012036D05CE
:107B9000120B6D0D00211203130B0A0D12051A436F
:107BA0003B4B2D0513402B435B00E4075B0823434D
:107BB000380019003CBC90469946A246AB46F8BD39
:107BC0006346134311D0731E002B00D007E18618C3
:107BD0008642804161444042091801250B0237D595
:107BE00002257BE73E00614691463500C5E75C46CD
:107BF000002D00D0E1E00B000343F3D0731C00D153
:107C0000ACE1214B9F4200D13AE1F343382B00DD38
:107C10006FE11F2B00DD8CE120250E00ED1AAE4038
:107C2000B0460600AA46DE40454635432E0055467E
:107C3000D940A8406346451EA8415B1A9C46304384
:107C4000161AB242924163465242991A3D00B4E676
:107C500007223240002A00D0E4E60B4BF6084F071B
:107C60003743CA089D4200D090E73B00134300D140
:107C7000A6E180231B031A431203120B024D89E76E
:107C800015000022002785E7FF070000FFFF7FFFA8
:107C9000FFFF0F80002E00D0C7E06B1C5E05760D45
:107CA000012E00DCF0E0C84DAB4200D1B9E08518F0
:107CB0000A00854289416244494251180722CE0791
:107CC0006D082E43490832401D00A9E6BF49ED1A50
:107CD000114007223240A3E63200283882400026B5
:107CE00086E6300000F0DCF9203073E6634613438B
:107CF0005A1E9341C61AB04280414042091A5CE6BE
:107D00000E00674606431743002D5ED1002E00D0BB
:107D1000F3E0002F00D11EE15C46614691462CE75E
:107D2000A94FBE427BD01E00F1E610001F3DE84087
:107D3000202B03D04021CB1A9A401643731E9E413C
:107D40000722064332400021002583E7161A6346C6
:107D5000B2428041591A40420B1A98465C4632E6BC
:107D60001F2E00DDABE02027BB1B9A46634657461B
:107D7000BB40994613004F46F3401F433B00574614
:107D8000BA40571EBA4113436246F240891898E63A
:107D90002027BB1B9A4663465746BB4099461300B3
:107DA0004F46F3401F433B005746BA40571EBA4167
:107DB00013436246F240891A9CE7834B9F425FD08F
:107DC00080252D047342294320E7002E0CD1002F7B
:107DD00000D1D0E05C46614691467B4DCDE67A4FBE
:107DE000BE421CD01E0065E6002F18D0C0084E070A
:107DF00006438020C9080003014208D06346DC081E
:107E0000044204D12100DA46D2085E071643F3008B
:107E1000994601245346C900720F11431C406A4D14
:107E2000ABE61D0000220027B4E6002D59D10B005F
:107E3000034300D1D6E6731C00D1B2E0624B9F42EF
:107E40001ED0F343382B6FDC1F2B00DD97E020257D
:107E50000E00ED1AAE40B0460600AA46DE4045468A
:107E600035432E005546A840D940451EA8418C44B4
:107E70000643B61896429241514261443D0025E6C0
:107E80003D006146914678E60B000343002D00D08B
:107E900055E6002BF5D06346134300D16DE68618F6
:107EA0008642804161444042091800220B0200D4FE
:107EB000D0E6464B01351940B2E5B1465DE63300E8
:107EC0006746203BDF403B00202E05D04027BF1BEC
:107ED0006646BE40324390464646721E9641334344
:107EE000EFE5394B9F42CBD080252D0473422943C7
:107EF000A8E70843411E8841A2E6002F00D13CE6D6
:107F00006346861ACF1AB0429B415B42FB1A9846E1
:107F10001B024ED5161A6346B2429241591A52427A
:107F2000891A5C4600227BE501430E00711E8E41DA
:107F30009FE71D000E00203DEE40B046202B04D0F0
:107F40004025EB1A99400843814648464346411E66
:107F50008841184374E60022002417E6161A634687
:107F6000B2429241591A5242891A3D0025E56146B2
:107F70009146154D01E680220024120379E61D008A
:107F80000E00203DEE40B046202B04D04025EB1AD9
:107F90009940084381464E464346711E8E411E431A
:107FA00067E7861896429B4161445B42C9183D00D1
:107FB0008CE547463743CED007224146324049E65A
:107FC00000273A00E6E5C046FF070000FFFF7FFFFD
:107FD00030B5144D0A034B00120B5B0DC90F002482
:107FE000AB4211DD104CA34210DC80246403224319
:107FF0000E4CE41A1F2C0CDD0D48C31ADA40130096
:108000005C42002900D11C00200030BD094BCC1877
:10801000FAE7094DE040AC4663449A40130003433D
:10802000EEE7C046FE0300001D040000330400001C
:1080300013040000FFFFFF7FEDFBFFFF10B5041EE0
:1080400025D000F02DF8144B1B1A5B055B0D0A2898
:1080500012DD0B38844000222403240B0021100081
:1080600024030A0D240B120522430C4C1B0522404D
:1080700013435B00590810BD0200210015329140E6
:108080000A000B21081AC4402403240BE6E700234E
:1080900000240022E2E7C0461E040000FFFF0F801C
:1080A0001C2101231B04984201D3000C10391B0A28
:1080B000984201D3000A08391B09984201D30009EC
:1080C000043902A2105C40187047C0460403020243
:1080D00001010101000000000000000010B50029AE
:1080E00003D1FFF7DDFF203002E0081CFFF7D8FFC7
:1080F00010BDC0460023C25C0133002AFBD1581ECC
:10810000704700003B493C4AC0239B028B50394AD0
:108110003A4BD3583749802292001343374A8B5049
:10812000374B9B78DBB21A000823134007D0344B3F
:108130009B78DBB2324A08210B43DBB293702D49A6
:108140002D4A80235B028B502A4A2E4BD358294953
:108150002D4A13402B4A8B50264B1A68254B2B492E
:108160000A401A60234A274BD358294A1340214911
:10817000802252041343234A8B50264B06221A7046
:10818000244B5B78DBB2234A40210B40DBB25370B7
:10819000204BDB78DBB25BB21F2213405BB2602264
:1081A000524213435AB21B4BD2B2DA701A4B00221E
:1081B0001A70184B00221A71164B00225A71C046D1
:1081C000144B9B79DBB21A0010231340F8D0C04641
:1081D000104B9B79DBB21A000C231340F8D1054AEF
:1081E000064BD3580349F82292011343034A8B509C
:1081F000C046704700700440441000003810000072
:1082000000D0074004100000FFFFFCFFFFFFF3FF5A
:10821000FFFFFFFC004006400050064010B588B04C
:1082200072B600F021FE03A9254A0B0011CA11C342
:108230000B0008330C220021180001F0D4FF214B61
:1082400000221A7080239B000121180000F070F9B1
:108250001D4B0021180000F06BF91C4A002300930D
:1082600000230121002000F025FE184A002300937E
:1082700000230021012000F01DFE134B180000F028
:1082800063FD012001F0A4F862B60E4B1B78002BB1
:10829000FBD00F4B180001F07FFF0E4B1800FFF7CB
:1082A00029FF0300DBB20B4A1900002001F01AF885
:1082B000094B180001F070FF024B00221A70E4E72E
:1082C00028A200002806002001020000701700000C
:1082D000F8A100002004002010A2000000B585B025
:1082E00002006B4606331A806B4606331B889B02DE
:1082F00003931E4B0922DA711C4A03AB9B789371DE
:108300001A4A03AB5B785371184A03AB1B7813719D
:1083100000F0C6F80300012B01D1012323E0039BE9
:10832000134A93421ED8114B0622DA710F4B0022DA
:108330009A710E4B04225A710C4B0C221A710B4B82
:10834000FF22DA72094BFF229A72084BFF225A72FF
:10835000064BFE221A7200F0A3F80300012B01D194
:10836000022300E00023180005B000BD0000024019
:10837000FF03000000B587B0039001920A236B440D
:108380000A1C1A801E4B0622DA71039B04930023F9
:1083900005932BE01A4A04AB9B789371184A04ABFF
:1083A0005B785371164A04AB1B781371144A019B16
:1083B000DB78D372124A019B9B789372104A019B1F
:1083C0005B7853720E4A019B1B78137200F068F8B9
:1083D0000300012B01D102230FE0059B0433059319
:1083E000049B04330493019B043301930A236B44DD
:1083F0001B88059A9A42CDD30023180007B000BD10
:108400000000024000B587B0039002916B4606332E
:108410001A80029B05936B4606331A880599039BC5
:10842000180001F0D7FEC04607B000BD84B00200BE
:108430006B4606331A8001AB0A1C1A800E236B446C
:1084400000221A8003AB01221A800E236B44002203
:108450001A8017E06B4606331B889B0202930E239B
:108460006B441B88029AD3181B78FF2B03D003ABF5
:1084700000221A800DE00E236B441A880E236B44F1
:1084800001321A800E226A4401AB12881B889A427C
:10849000E0D303AB1B88DBB2180004B070470000C8
:1084A00082B06B46073300221A70154B30221A70C7
:1084B000EFF310830093009B002B04D172B66B4640
:1084C000073301221A700E4B80221A70C0460C4BE3
:1084D0001B78DBB25BB2002BF9DA6B4607331B78F3
:1084E000012B00D162B6064B1B78DBB21A00312398
:1084F000134001D0012300E00023180002B07047B0
:108500000000024082B002006B4607331A706B46CF
:1085100007331B781A001F231A40044B0121914096
:108520000A001A60C04602B07047C04600E100E091
:1085300000B585B002006B4606331A806B460533E2
:108540000A1C1A700E226A440F2169446B460633D6
:108550001B88180000F070FC0F236B441B781B0372
:108560001A000E236B441B789B00D318444A944690
:1085700063441A680F236B441B781B0319000E23F6
:108580006B441B789B00CB183D498C4663443D49A6
:108590000A401A600F236B441B781B031A000E233A
:1085A0006B441B789B00D318354A944663441A6881
:1085B0000F236B441B781B0319000E236B441B789D
:1085C0009B00CB182E498C466344802149000A4306
:1085D0001A606B4605331B78012B32D10F236B4495
:1085E0001B789B011433284A944663441A680E236F
:1085F0006B441B78190001238B4019000F236B4437
:108600001B789B0114332048844663440A431A6054
:108610000F236B441B789B011B4A944663441A68E2
:108620000E236B441B78190001238B4019000F2384
:108630006B441B789B011448844663440A431A60C8
:108640001AE00F236B441B789B0114330E4A9446A7
:1086500063441A680E236B441B78190001238B4076
:10866000DB4319000F236B441B789B01143306482E
:10867000844663440A401A60C04605B000BDC04647
:1086800000900440FFF8FFFF00F00F4010B582B0EB
:108690000400080011006B460733221C1A706B4659
:1086A0000633021C1A706B4605330A1C1A706B469F
:1086B00005331B78012B18D16B4607331B789B01C0
:1086C000184A944663441A686B4606331B780121A6
:1086D00099400B0019006B4607331B789B0111482A
:1086E000844663440A431A6018E06B4607331B78DC
:1086F0009B010C4A944663441A686B4606331B7808
:10870000012199400B00DB4319006B4607331B78AE
:108710009B010448844663440A401A60C04602B084
:1087200010BDC04600F00F4082B002006B46073318
:108730001A706B4606330A1C1A706B4607331B7897
:108740009B011033074A944663441A686B4606330C
:108750001B78DA401300DBB201221340DBB21800B1
:1087600002B0704700F00F4000B58FB00291019247
:108770000E236B44021C1A8007AA1D2169440E2394
:108780006B441B88180000F057FB00230D931EE17B
:1087900033236B4400221A7019E0029A0D9BD31800
:1087A0001B781A0033236B441B781A411300DAB28A
:1087B00033236B441B7801210A40D1B205AAD1545E
:1087C00033236B441A7833236B4401321A703323FA
:1087D0006B441B78072BE0D91D236B44187807AB3B
:1087E0001B7800221900FFF751FF0CAB00221A8002
:1087F00004E00CAB1A880CAB01321A800CAB1B885E
:10880000152BF6D91D236B44187807AB197805ABE7
:108810001B781A00FFF73AFF2E236B4400221A80C0
:1088200006E02E236B441A882E236B4401321A80F3
:108830002E236B441B88152BF3D91D236B4418780A
:1088400007AB197805AB5B781A00FFF71FFF0BAB7E
:1088500000221A8004E00BAB1A880BAB01321A809D
:108860000BAB1B88152BF6D91D236B44187807AB6F
:10887000197805AB9B781A00FFF708FF2A236B4491
:1088800000221A8006E02A236B441A882A236B44AC
:1088900001321A802A236B441B88152BF3D91D2320
:1088A0006B44187807AB197805ABDB781A00FFF733
:1088B000EDFE0AAB00221A8004E00AAB1A880AAB6C
:1088C00001321A800AAB1B88152BF6D91D236B4485
:1088D000187807AB197805AB1B791A00FFF7D6FE9D
:1088E00026236B4400221A8006E026236B441A8854
:1088F00026236B4401321A8026236B441B88152BD8
:10890000F3D91D236B44187807AB197805AB5B7955
:108910001A00FFF7BBFE09AB00221A8004E009AB86
:108920001A8809AB01321A8009AB1B88152BF6D9BE
:108930001D236B44187807AB197805AB9B791A0097
:10894000FFF7A4FE22236B4400221A8006E02223B4
:108950006B441A8822236B4401321A8022236B4411
:108960001B88152BF3D91D236B44187807AB197896
:1089700005ABDB791A00FFF789FE08AB00221A80ED
:1089800004E008AB1A8808AB01321A8008AB1B88D8
:10899000152BF6D91D236B44187807AB1B780122E1
:1089A0001900FFF773FE1E236B4400221A8006E0B5
:1089B0001E236B441A881E236B4401321A801E2327
:1089C0006B441B88152BF3D90D9B01330D930D9A26
:1089D000019B9A4200D2DBE6C0460FB000BD00000A
:1089E00000B58DB0020000916B4606331A802E232D
:1089F0006B44802252011A8000230A93009A0A9B3A
:108A0000D31800221A7011226A44122169446B465D
:108A100006331B88180000F00FFA86E126236B440A
:108A200000221A8006E026236B441A8826236B4412
:108A300001321A8026236B441B880A2BF3D9122398
:108A40006B441A7811236B441B7819001000FFF750
:108A50006BFE09AB00221A8004E009AB1A8809AB4F
:108A600001321A8009AB1B88152BF6D912236B44EF
:108A70001A7811236B441B7819001000FFF754FE7D
:108A800003001A0002AB1A7022236B4400221A80E2
:108A900006E022236B441A8822236B4401321A8099
:108AA00022236B441B88152BF3D912236B441A78AD
:108AB00011236B441B7819001000FFF735FE0300EB
:108AC0001A0002AB5A7008AB00221A8004E008AB0F
:108AD0001A8808AB01321A8008AB1B88152BF6D90F
:108AE00012236B441A7811236B441B781900100071
:108AF000FFF71AFE03001A0002AB9A701E236B44A4
:108B000000221A8006E01E236B441A881E236B4441
:108B100001321A801E236B441B88152BF3D91223B4
:108B20006B441A7811236B441B7819001000FFF76F
:108B3000FBFD03001A0002ABDA7007AB00221A80BB
:108B400004E007AB1A8807AB01321A8007AB1B8819
:108B5000152BF6D912236B441A7811236B441B781A
:108B600019001000FFF7E0FD03001A0002AB1A71B4
:108B70001A236B4400221A8006E01A236B441A88D9
:108B80001A236B4401321A801A236B441B88152B5D
:108B9000F3D912236B441A7811236B441B78190004
:108BA0001000FFF7C1FD03001A0002AB5A7106ABBB
:108BB00000221A8004E006AB1A8806AB01321A8044
:108BC00006AB1B88152BF6D912236B441A78112398
:108BD0006B441B7819001000FFF7A6FD03001A0074
:108BE00002AB9A7116236B4400221A8006E016230A
:108BF0006B441A8816236B4401321A8016236B4487
:108C00001B88152BF3D912236B441A7811236B445C
:108C10001B7819001000FFF787FD03001A0002AB54
:108C2000DA7105AB00221A8004E005AB1A8805ABA7
:108C300001321A8005AB1B880B2BF6D913236B442A
:108C400000221A701CE0009A0A9BD318197813238B
:108C50006B441B7802AAD35C1A0013236B441B7865
:108C60009A401300DAB200980A9BC3188A18D2B24D
:108C70001A7013236B441A7813236B4401321A7051
:108C800013236B441B78072BDDD9009A0A9BD3185A
:108C90001B78FF2B25D1009A0A9BD31800221A704B
:108CA00012236B441B781B031A0011236B441B789F
:108CB0009B00D318234A944663441A6812236B44DA
:108CC0001B781B03190011236B441B789B00CB18E6
:108CD0001C498C466344802149040A431A600A9B5C
:108CE0002DE02E236B44802252011A800A9B01330F
:108CF0000A93009A0A9BD31800221A700CE01223E0
:108D00006B441A7811236B441B7819001000FFF78D
:108D10000BFD031E00D108E02E236B441B882E227E
:108D20006A44591E1180002BE9D12E236B441B8805
:108D30002E226A44591E1180002B00D06EE61800C6
:108D40000DB000BD0090044000B585B002006B4638
:108D500006331A800E226A440F2169446B4606339B
:108D60001B88180000F068F80F236B441B781B0366
:108D70001A000E236B441B789B00D3182A4A944692
:108D800063441A680F236B441B781B0319000E23DE
:108D90006B441B789B00CB1823498C4663442349C2
:108DA0000A401A600F236B441B781B031A000E2322
:108DB0006B441B789B00D3181B4A944663441A6883
:108DC0000F236B441B781B0319000E236B441B7885
:108DD0009B00CB1814498C466344A02109030A4325
:108DE0001A600F236B441B78002B03D11E20FFF762
:108DF00089FB15E00F236B441B78022B04D00F2353
:108E00006B441B78032B03D11F20FFF77BFB07E08C
:108E1000074B180001F0C0F9064B180001F0BCF92F
:108E2000C04605B000BDC04600900440FFFFF0FF03
:108E30003CA2000060A2000084B0029101920E23C7
:108E40006B44021C1A800E236B441B881B0A9BB2C6
:108E5000DAB2029B1A700E236B441B88DAB2019BB4
:108E60001A70C04604B07047064A88235B01D35885
:108E700004490C2293431A0088235B01CA50C04660
:108E80007047C0460070044082B002006B46073352
:108E90001A706B4607331B781A001F231A40044BC5
:108EA000012191400A001A60C04602B07047C046D6
:108EB00000E100E030B585B005000C00100019009D
:108EC0006B4607332A1C1A706B460633221C1A7035
:108ED00001AB021C1A806B4603330A1C1A706B46E6
:108EE00007331B78012B03D96B46073300221A7016
:108EF0006B4607331B78002B00D0D4E0D54AD64B05
:108F0000D358D4498022D2031343D34A8B50D34B36
:108F1000802292001A61D14B802292005A61CF4B7D
:108F2000802292009A61CD4B80229200DA61CC4B74
:108F30000022DA70CA4BDB78DBB2C94A40210B430E
:108F4000DBB2D3706B4606331B78012B08D1C44BC0
:108F5000DB78DBB2C24A10210B43DBB2D37008E0EE
:108F6000BF4BDB78DBB2BE49802252421343DBB2F7
:108F7000CB706B4603331B78002B08D1B84BDB78E2
:108F8000DBB2B74A08218B43DBB2D37007E0B44BA6
:108F9000DB78DBB2B24A08210B43DBB2D37008ABFB
:108FA0001B78002B08D1AE4BDB78DBB2AC4A042136
:108FB0008B43DBB2D37007E0A94BDB78DBB2A84A66
:108FC00004210B43DBB2D370A54BDB78DBB2A44AA0
:108FD00002210B43DBB2D370A14B00229A706B4687
:108FE00006331B78012B07D19D4B9B78DBB29C4A43
:108FF00010210B43DBB29370994B00225A700D2362
:109000006B4400221A700E236B4400221A7001ABCD
:109010001B8819009348FDF7D1FE03001A000F23A7
:109020006B441A700F236B441B78082B17D80F233F
:109030006B441B78013BDBB2894A1B01DBB25370E6
:1090400005E10E236B441A780E236B4401321A702B
:109050000F236B440F226A44127852081A700F23B0
:109060006B441B78112BECD80F236B440F226A44FE
:109070001278013A1A700D236B440F226A44127859
:109080001A70774A0D236B441B781B01DBB25370B7
:10909000734B5B78DAB272490E236B441B7813432F
:1090A000DBB24B70D3E06B4A6B4BD35869498022DB
:1090B00012041343684A8B506B4B802292001A6152
:1090C000694B802292005A61674B802292009A611C
:1090D000654B80229200DA61644B0022DA70634BA8
:1090E000DB78DBB2614A40210B43DBB2D3706B46C5
:1090F00006331B78012B08D15C4BDB78DBB25B4A73
:1091000010210B43DBB2D37008E0584BDB78DBB2A5
:109110005649802252421343DBB2CB706B46033375
:109120001B78002B08D1514BDB78DBB24F4A08216A
:109130008B43DBB2D37007E04C4BDB78DBB24B4A9E
:1091400008210B43DBB2D37008AB1B78002B08D18E
:10915000464BDB78DBB2454A04218B43DBB2D3704C
:1091600007E0424BDB78DBB2404A04210B43DBB221
:10917000D3703E4BDB78DBB23C4A02210B43DBB2BF
:10918000D3703A4B00229A706B4606331B78012B42
:1091900007D1364B9B78DBB2344A10210B43DBB24C
:1091A0009370324B00225A700D236B4400221A70C8
:1091B0000E236B4400221A7001AB1B88190029484A
:1091C000FDF7FCFD03001A000F236B441A700F23F8
:1091D0006B441B78082B17D80F236B441B78013B7B
:1091E000DBB21F4A1B01DBB2537030E00E236B442D
:1091F0001A780E236B4401321A700F236B440F222E
:109200006A44127852081A700F236B441B78112B92
:10921000ECD80F236B440F226A441278013A1A707B
:109220000D236B440F226A4412781A700C4A0D23E6
:109230006B441B781B01DBB25370094B5B78DAB2CD
:1092400007490E236B441B781343DBB24B70C046B7
:1092500005B030BD007004403410000000B0044080
:1092600000600740C05D000000C00440007007407F
:1092700084B002006B4607331A706B4606330A1C33
:109280001A706B4607331B78144A944663441B03D9
:109290000293C046029B1B78DBB21A0020231340C6
:1092A000F8D0029B6A46063212789A710023039323
:1092B0000BE0029B1B78DBB21A002023134001D085
:1092C000012307E0039B01330393039B044A93426A
:1092D000EFD90023180004B07047C04676000400A0
:1092E000FEFF000000B585B000926B460733021CFC
:1092F0001A706B4606330A1C1A70002303930DE0A4
:10930000009A039BD3181A786B4607331B78110019
:109310001800FFF7ADFF039B013303936B46063341
:109320001B78039A9A42EBD36B4607331B780021D4
:109330001800FFF79DFFC04605B000BD84B00200D5
:109340006B4607331A706B4607331B78084A9446FE
:1093500063441B030393C046039B1B78DBB25BB2E1
:10936000002BF9DA039B9B79DBB2180004B070473D
:109370007600040010B582B0020000916B460733FE
:109380001A70124B1B68591C104A1160009AD418AD
:109390006B4607331B781800FFF7D0FF03002370DC
:1093A0000A4B1B68013B009AD3181B78002B08D18D
:1093B000064B00221A60009B1800FEF79BFE03007C
:1093C00000E00023180002B010BDC0461C040020BD
:1093D00000B583B002006B4607331A706B46073343
:1093E0001B780A33DBB25BB21800FFF74DFDC046B5
:1093F00003B000BD80B52E4FBD4418213F20FFF7BC
:1094000015F8031E06D02B4AFC231B021821180056
:10941000FEF7B0FF0023FFAA083213608023DA00B2
:10942000D023D90101AB1800FEF7ECFF224BFFAAB5
:109430000C32944663449A6FFFAB08331B68783351
:109440001B689A4222D01A20FEF748FFFFAB083370
:109450001B6808331B681A00174BFFA90C318C4698
:1094600063449A60FFAB08331B6878331B681A00AB
:10947000114BFFA90C318C4663449A6701AA8023E3
:10948000D900D023DB011800FEF774FF0B4BD0226C
:10949000D2019A600A4BE02292011A60094B18002F
:1094A00000F07AFEC0468123DB009D4480BDC046AB
:1094B000F8FBFFFF88A20000FCFBFFFF00ED00E0CF
:1094C00024060020A4A2000000B587B002006B466D
:1094D00007331A706B4606330A1C1A70224B04932A
:1094E0006B4607331B785A1E204B9200D3580393C8
:1094F0006B4607331B78180000F03CF8031E01D1BF
:1095000000232DE0002305931FE06B4607331B78F3
:10951000002B0BD1049B1B79DBB25BB2002B11DA61
:10952000049B6A4606321278DA7112E0039B1B79BB
:10953000DBB25BB2002B05DA039B6A460632127877
:10954000DA7106E0059B01330593059B084A9342B7
:10955000DBD9059B064A934201D9002300E0012391
:10956000180007B000BDC04600A0064020A30000C0
:10957000BAFB000082B002006B4607331A706B46DC
:1095800007331B78022B01D9002300E001231800C8
:1095900002B0704700B583B0094B0A4A19001000A9
:1095A000FFF71EFA03000193019A074B1100180000
:1095B00000F0F2FD054B01221A70C04603B000BD59
:1095C0002004002001020000D0A200002806002094
:1095D00000B587B072B60020FFF7B0FE03001A0096
:1095E00001AB1A7001A980239B0001221800FFF72C
:1095F000BBF862B6C04607B000BD000000B583B03E
:1096000072B60D4B19000120FFF7B4FE0300019361
:10961000019B002B0CD0084A084B1100180000F0E9
:10962000BBFD019A044980239B001800FFF79CF8BA
:1096300062B6C04603B000BD20040020DCA20000DA
:1096400000B583B002006B4607331A706B460733D0
:109650001B7819000220FFF737FFC04603B000BD9A
:1096600000B585B0039002910192019B1B68012B0C
:1096700002D0022B07D011E0019B5B68039A52B223
:10968000100098470AE0019B9B68039A52B21A7037
:10969000019B9B685A1C019B9A60C046029B1B68F9
:1096A0005A1C029B1A60C04605B000BD30B5A7B079
:1096B00003900291019217AB180014231A000021A5
:1096C00000F091FD04AB18004C231A00002100F0BB
:1096D0008AFD002325930023002420932194039BDB
:1096E0005C681B6818002100FDF7B2FC030025939D
:1096F000039B1C685D682598FEF7A0FC02000B0028
:1097000020002900FEF71CF903000C001E931F9493
:10971000019B002B28D1039B1C685D682598FEF7F0
:109720008DFC02000B0020002900FEF709F9030060
:109730000C0018002100784A784BFDF78FFE0300DB
:109740000C0018002100FDF7A1FC03000C00209381
:10975000219416E00022724B1E981F99FDF77EFEA1
:1097600003000C001E931F94019B5A1E0192002BB4
:10977000F0D11E981F99FDF789FC03000C0020937F
:109780002194039B1C685D682598FEF757FC020036
:109790000B0020002900FEF7D3F803000C001C93F7
:1097A0001D94002322930CE000225D4B1C981D9910
:1097B000FDF754FE03000C001C931D94229B013303
:1097C00022930022574B1C981D99FDF7F9FB031EAD
:1097D000EAD1229B013B229300232493259B002B5B
:1097E00007D1249B5A1C2492029AD31830221A7053
:1097F0002FE00023239313E0239C631C2393259BDA
:109800000A211800FDF7D6FA0B00190017ABA200C9
:10981000D150259B0A211800FDF746FA0300259335
:10982000259B002BE8D111E0239B5A1E17AB920019
:10983000D358DBB23033D9B2249B5A1C2492029AFB
:10984000D3184AB21A70239B013B2393239B002B0E
:10985000EAD1249B5A1C2492029AD3182E221A7001
:10986000209B219A134307D1249B5A1C2492029ACD
:10987000D31830221A7045E0002323931AE0209871
:1098800021990A220023FDF7C3FB1C0013001800D6
:109890002100239B5A1C2392010004AA9B0099508B
:1098A000209821990A220023FDF7B2FB03000C0047
:1098B00020932194209B219A1343E0D109E0239B1C
:1098C0005A1C239204AA9B0000219950229B013B21
:1098D0002293229B002BF2D111E0239B5A1E04AB52
:1098E0009200D358DBB23033D9B2249B5A1C249255
:1098F000029AD3184AB21A70239B013B2393239BED
:10990000002BEAD1029A249BD31800221A70249BC0
:10991000180027B030BDC04600A0D8855734764324
:10992000000024400000F03F00B58DB0039002918C
:109930000192009300230793039B0693069B5A1CF6
:10994000069200221A70019B002B32D0029B1B68EA
:109950000B930B9B002B28D1069B30221A70079B80
:109960000133079358E000990B98FDF727FA03009D
:109970000493049B009A53430B9AD31A0A930A9BAD
:10998000002B04DA0A9B3022D31A0A9302E00A9BC6
:1099900030330A93049B0B93069B5A1C06920A9A37
:1099A00052B21A70079B013307930B9B002BDAD13D
:1099B00032E0029B1B680993099B002B28D1069B70
:1099C00030221A70079B0133079325E0009B190092
:1099D0000998FDF769F903000593009B059A534325
:1099E000099AD31A0893089B092B03D8089B303394
:1099F000089302E0089B37330893059B0993069B65
:109A00005A1C0692089A52B21A70079B01330793A8
:109A1000099B002BDAD1C046079B18000DB000BD92
:109A200000B587B00390029101920093039B0593C8
:109A300008E0009A019B19003020FFF711FE059BFA
:109A400001330593059A029B9A42F2DBC04607B0A8
:109A500000BD00B587B00390029101920093039B73
:109A6000059308E0009A019B19002020FFF7F8FDFC
:109A7000059B01330593059A029B9A42F2DBC0468F
:109A800007B000BD70B5A2B00390029101920AAB7D
:109A9000180021231A00002100F0A5FB0AAB302298
:109AA0001A700023099300231B9301231A93029B2E
:109AB000219300F065FB159B252B17D0159B0A2BD6
:109AC00007D0039A09A9159B1800FFF7C9FD00F0FC
:109AD00054FB039A09AB19000D20FFF7C1FD039A4F
:109AE00009AB19000A20FFF7BBFD46E300231D93D5
:109AF00000231E932CE0219B01332193219B1B7893
:109B00005BB2203B102B1DD89A00CA4BD3181B68A0
:109B10009F461D9B012213431D9319E01D9B0222AA
:109B200013431D9314E01D9B042213431D930FE068
:109B30001D9B082213431D930AE01D9B1022134313
:109B40001D9305E0219B013B219301231E93C046F9
:109B50001E9B002BCFD000231C9300231E931BE0E1
:109B6000219B01332193219B1B785BB21593159B9D
:109B7000303B092B0AD81C9A13009B009B185B00F2
:109B80001A00159B303BD3181C9305E0219B013B29
:109B9000219301231E93C0461E9B002BE0D0219BE6
:109BA00001332193219B1B785BB22E2B24D1002300
:109BB000199300231E931BE0219B01332193219BCA
:109BC0001B785BB21593159B303B092B0AD8199A69
:109BD00013009B009B185B001A00159B303BD318A9
:109BE000199305E0219B013B219301231E93C0465D
:109BF0001E9B002BE0D006E0219B013B219300231C
:109C00001A9300231993219B01332193219B1B78E5
:109C10005BB2682B12D06C2B02D04C2B05D009E024
:109C20001B9B012213431B9309E01B9B022213433E
:109C30001B9304E0219B013B219300E0C046219B44
:109C400001332193219B1B785BB21593159B583BE5
:109C5000202B00D985E29A00774BD3181B689F46CA
:109C6000019B04330193019B043B1B68089308A9E3
:109C70000AA80A230122FFF757FE03001F930AAA2E
:109C80001F9BD3182093089B002B05DA2D231893D4
:109C90001F9B01331F9315E01D9B0222134005D02B
:109CA0002B2318931F9B01331F930BE01D9B042252
:109CB000134005D0202318931F9B01331F9301E00D
:109CC00000231893002317931D9B0822134013D0E1
:109CD000189B002B05D0039A09A9189B1800FFF7C1
:109CE000BFFC01231793039B09AA1C991F98FFF738
:109CF00097FE1C9B1F9314E01D9B0122134010D163
:109D0000039B09AA1C991F98FFF7A3FE189B002B21
:109D100005D0039A09A9189B1800FFF7A1FC01239D
:109D20001793179B002B00D08FE1189B002B00D1BD
:109D30008BE1039A09A9189B1800FFF791FC84E1B5
:109D4000019B04330193019B08330193019B083B62
:109D50005C681B6806930794069807990022002305
:109D6000FDF72EF9031E0FD02D231893069B079C99
:109D70001A0015008022120662401600069507960A
:109D80001F9B01331F9315E01D9B0222134005D03A
:109D90002B2318931F9B01331F930BE01D9B042261
:109DA000134005D0202318931F9B01331F9301E01C
:109DB00000231893002317931A9B002B0AD0199A9B
:109DC0000AA906AB1800FFF771FC03001F930AAB4A
:109DD000209317E01B9B002B0AD10AA906AB08228F
:109DE0001800FFF763FC03001F930AAB209309E000
:109DF000199A0AA906AB1800FFF758FC03001F9335
:109E00000AAB20931D9B0822134017D0189B002BF0
:109E100005D0039A09A9189B1800FFF721FC01231C
:109E20001793039B09AA1C991F98FFF7F9FD1C9B28
:109E30001F9318E028A300006CA300001D9B0122C3
:109E4000134010D1039B09AA1C991F98FFF701FE2C
:109E5000189B002B05D0039A09A9189B1800FFF73F
:109E6000FFFB01231793179B002B14D1189B002B8A
:109E700011D0039A09A9189B1800FFF7F1FB0AE01B
:109E8000209B5A1C20921B785BB21800039A09ABE6
:109E90001900FFF7E5FB209B1B785BB2002BEFD18D
:109EA0001D9B0122134000D162E1039B09AA1C996A
:109EB0001F98FFF7CEFD5BE1019B04330193019BEB
:109EC000043B1B68059305A90AA810230022FFF78D
:109ED0002BFD03001F930AAA1F9BD3182093002376
:109EE00017931D9B082213401AD01D9B102213406C
:109EF0000DD0039A09AB19003020FFF7B1FB039A8C
:109F000009AB19007820FFF7ABFB01231793039BE4
:109F100009AA1C991F98FFF783FD1C9B1F9322E041
:109F20001D9B012213401ED11D9B1022134002D005
:109F30001F9B02331F93039B09AA1C991F98FFF7CD
:109F400088FD1D9B102213400DD0039A09AB190008
:109F50003020FFF785FB039A09AB19007820FFF743
:109F60007FFB012317931D9B102213406FD0179B7B
:109F7000002B6CD1039A09AB19003020FFF770FB5E
:109F8000039A09AB19007820FFF76AFB1F9B023385
:109F90001F935CE0019B04330193019B043B1B680E
:109FA000059305A90AA808230022FFF7BDFC0300BA
:109FB0001F932EE0019B04330193019B043B1B681C
:109FC000059305A90AA802230022FFF7ADFC0300B0
:109FD0001F931EE0019B04330193019B043B1B680C
:109FE000059305A90AA810230022FFF79DFC030092
:109FF0001F930EE0019B04330193019B043B1B68FC
:10A00000059305A90AA80A230022FFF78DFC030087
:10A010001F930AAA1F9BD31820931D9B082213404D
:10A0200008D0039B09AA1C991F98FFF7F9FC1C9BF9
:10A030001F931BE01D9B012213400AD1039B09AA19
:10A040001C991F98FFF705FD10E0C0460EE0C046C2
:10A050000CE0C0460AE0209B5A1E20921B785BB29F
:10A060001800039A09AB1900FFF7FAFA209B1B7836
:10A070005BB2002BEFD11D9B0122134000D179E090
:10A08000039B09AA1C991F98FFF7E3FC72E0019B50
:10A0900004330193019B043B1B685BB21393039A47
:10A0A00009A9139B1800FFF7DBFA66E0019B043354
:10A0B0000193019B043B1B681693169B002B5BD0FE
:10A0C000169B1800FEF716F803001F931D9B012234
:10A0D000134005D1039B09AA1C991F98FFF7B9FCEF
:10A0E000199B002B22D010E0199B002B0DDD199B32
:10A0F000013B1993169B5A1C16921B785BB21800F1
:10A10000039A09AB1900FFF7ABFA169B1B785BB2F9
:10A11000002BE9D10FE0169B5A1C16921B785BB2FC
:10A120001800039A09AB1900FFF79AFA169B1B78DF
:10A130005BB2002BEFD11D9B012213401CD0039B6F
:10A1400009AA1C991F98FFF784FC15E0019B0433B2
:10A150000193019B043B1B681493099A149B1A609A
:10A160000BE0039A09A9159B1800FFF779FA04E0A0
:10A17000C04602E0C04600E0C046219B0133219367
:10A18000219B1B785BB21593159B002B00D092E4AA
:10A19000099B180022B070BD0FB400B587B001ABA9
:10A1A00001221A6001AB0A4A5A6009AB059308996B
:10A1B000059A01AB1800FFF765FC03000493002328
:10A1C0000593049B180007B008BC04B01847C046AC
:10A1D00041960000002310B59A4200D110BDCC5C1E
:10A1E000C4540133F8E703001218934200D17047BA
:10A1F00019700133F9E70000D6F7BBFAD7D6B7FBE1
:10A20000B4AEBFAACABCB7A2CBCD210A00000000E1
:10A21000D6F7BBFAD7D6B7FBB4AEB7A2CBCDCDEA53
:10A22000B1CF210A000000006E6F7468696E67008C
:10A230000000000000000000000000004661696CA2
:10A2400020746F20696E697420706F727420696E5B
:10A25000746572757074A3A1A3A1A3A10A00000084
:10A26000506C656173652073656C65637420617201
:10A270006F756E6420506F72742041206F7220439E
:10A28000206F7220440A00003031323334353637C3
:10A290003839414243444546323032303037313626
:10A2A000000000002020A1BE55736572CCE1CABE3B
:10A2B000A1BFA3BABDABBDF8C8EB55736572B5C4F9
:10A2C0006D61696E2829D6B4D0D02E2E2E0D0A00CD
:10A2D000674C656E74683A2025640A0025730A008D
:10A2E0001476000016750000167500003478000022
:10A2F00010750000107500001C7800003478000014
:10A30000107500001C780000107500003478000003
:10A310002A7800002A7800002A78000038780000A7
:10A3200000B0064000C00640269B0000449B000091
:10A33000449B00003A9B0000449B0000449B0000AB
:10A34000449B0000449B0000449B0000449B000091
:10A35000449B00001C9B0000449B0000129B0000DB
:10A36000449B0000449B0000309B0000B89E00000E
:10A3700062A1000062A1000062A1000062A10000D1
:10A3800062A1000062A1000062A1000062A10000C1
:10A3900062A10000B49F00008EA00000609C00003D
:10A3A00062A10000409D000062A1000062A10000C7
:10A3B000609C000062A1000062A1000062A1000098
:10A3C00062A100004CA10000949F0000D49F0000F7
:10A3D00062A1000062A10000ACA0000062A1000028
:10A3E000F49F000062A1000062A10000B89E00007E
:10A3F000F8B5C046F8BC08BC9E467047F8B5C046E4
:08A40000F8BC08BC9E46704741
:08A40800C0CCFF7F0100000041
:04A41000396C0000A3
:04A41400116C0000C7
:0400000300006C5934
:00000001FF
