:1068000000180020596C0000A16C0000A16C000071
:106810000000000000000000000000000000000078
:10682000000000000000000000000000A16C00005B
:106830000000000000000000A16C0000A16C00003E
:10684000A16C0000A16C0000A16C0000A16C000014
:10685000A16C0000A16C0000A16C0000A16C000004
:10686000A16C0000A16C0000A16C0000A16C0000F4
:10687000B1980000A16C0000A16C0000A16C0000A8
:10688000A16C0000A16C0000D9980000A16C000070
:10689000A16C0000A16C0000A16C0000A16C0000C4
:1068A000A16C0000A16C0000A16C0000A16C0000B4
:1068B000A16C0000A16C0000A16C0000A16C0000A4
:106C0000FFFFFFFFFFFFFFFFFFFFFFFFFEFFFFFF95
:106C100010B5064C2378002B07D1054B002B02D072
:106C2000044800E000BF0123237010BD7804002059
:106C30000000000068B20000044B10B5002B03D028
:106C40000349044800E000BF10BDC046000000003A
:106C50007C04002068B2000072B601F0B7FC62B696
:106C60000A490B4A0B4B9B1A03DD043BC858D05012
:106C7000FBDC0949094A521A03DD00208850043A16
:106C8000FCDA02F0D3F901F02BFD000090B2000015
:106C9000000400207804002078040020B4040020C0
:106CA00000B5C04600BDC046002243088B4274D3E5
:106CB00003098B425FD3030A8B4244D3030B8B42FD
:106CC00028D3030C8B420DD3FF22090212BA030C06
:106CD0008B4202D31212090265D0030B8B4219D3E7
:106CE00000E0090AC30B8B4201D3CB03C01A524107
:106CF000830B8B4201D38B03C01A5241430B8B424F
:106D000001D34B03C01A5241030B8B4201D30B0337
:106D1000C01A5241C30A8B4201D3CB02C01A52415E
:106D2000830A8B4201D38B02C01A5241430A8B4221
:106D300001D34B02C01A5241030A8B4201D30B020A
:106D4000C01A5241CDD2C3098B4201D3CB01C01A24
:106D5000524183098B4201D38B01C01A524143092E
:106D60008B4201D34B01C01A524103098B4201D31C
:106D70000B01C01A5241C3088B4201D3CB00C01A89
:106D8000524183088B4201D38B00C01A5241430801
:106D90008B4201D34B00C01A5241411A00D2014626
:106DA000524110467047FFE701B5002000F0F0F8AF
:106DB00002BDC0460029F7D076E7704703460B4373
:106DC0007FD4002243088B4274D303098B425FD3E4
:106DD000030A8B4244D3030B8B4228D3030C8B4210
:106DE0000DD3FF22090212BA030C8B4202D31212F6
:106DF000090265D0030B8B4219D300E0090AC30BCB
:106E00008B4201D3CB03C01A5241830B8B4201D377
:106E10008B03C01A5241430B8B4201D34B03C01A60
:106E20005241030B8B4201D30B03C01A5241C30AD8
:106E30008B4201D3CB02C01A5241830A8B4201D349
:106E40008B02C01A5241430A8B4201D34B02C01A33
:106E50005241030A8B4201D30B02C01A5241CDD2D8
:106E6000C3098B4201D3CB01C01A524183098B4223
:106E700001D38B01C01A524143098B4201D34B010C
:106E8000C01A524103098B4201D30B01C01A52416F
:106E9000C3088B4201D3CB00C01A524183088B42F6
:106EA00001D38B00C01A524143088B4201D34B00DF
:106EB000C01A5241411A00D2014652411046704751
:106EC0005DE0CA0F00D04942031000D34042534056
:106ED00000229C4603098B422DD3030A8B4212D316
:106EE000FC22890112BA030A8B420CD38901921148
:106EF0008B4208D3890192118B4204D389013AD085
:106F0000921100E08909C3098B4201D3CB01C01A59
:106F1000524183098B4201D38B01C01A524143096C
:106F20008B4201D34B01C01A524103098B4201D35A
:106F30000B01C01A5241C3088B4201D3CB00C01AC7
:106F4000524183088B4201D38B00C01A5241D9D2DF
:106F500043088B4201D34B00C01A5241411A00D260
:106F60000146634652415B10104601D34042002B5C
:106F700000D54942704763465B1000D3404201B5DB
:106F8000002000F005F802BD0029F8D016E7704790
:106F90007047C0468446101C62468C46191C6346E6
:106FA00000E0C0461FB500F0F1F9002801D400212F
:106FB000C8421FBD10B500F049F94042013010BD74
:106FC00010B500F0E3F9002801DB002010BD01201E
:106FD00010BDC04610B500F0D9F9002801DD002031
:106FE00010BD012010BDC04610B500F06BF900289F
:106FF00001DC002010BD012010BDC04610B500F01E
:1070000061F9002801DA002010BD012010BDC04642
:10701000002B11D1002A0FD1002900D1002802D065
:107020000021C943081C07B4024802A1401802907D
:1070300003BDC0465DFFFFFF03B4684601B502987B
:1070400000F042F8019B9E4602B00CBC7047C0465F
:1070500070B500220C4B04000D00FFF7CFFF002895
:1070600004D12000290000F0B3FF70BD064B0022C0
:107070002000290000F064FC00F0AAFF80231B061A
:107080009C466044F1E7C0460000E04170B5002234
:107090000B4B0D00040000F0E1F9FFF7D9FF0600EB
:1070A00000F0CCFF0022074B00F0D8F902000B00E3
:1070B0002000290000F044FCFFF7CAFF310070BD3A
:1070C0000000F03D0000F041F0B54F464646D64680
:1070D000C0B5040082B00D00914698468B422FD86F
:1070E0002CD04146484600F0F9FF29000600200058
:1070F00000F0F4FF331A9C46203B9A4600D576E018
:107100004B46524693401F004B46624693401E003A
:10711000AF4228D825D05346A41BBD41002B00DA2E
:107120007BE000220023009201930123524693400A
:107130000193012362469340009318E08242D0D924
:1071400000220023009201930A9B002B01D01C60B7
:107150005D600098019902B01CBC90469946A24619
:10716000F0BDA342D7D900220023009201936346C9
:10717000002BE9D0FB079846414672080A437B087A
:1071800066460EE0AB4201D1A2420CD8A41A9D4142
:10719000012024196D410021013E24184D41002E8B
:1071A00006D0AB42EED9013E24196D41002EF8D134
:1071B00000980199534600196941002B23DB2B00ED
:1071C0005246D3402A006446E2401C005346150054
:1071D000002B2DDB26005746BE40330026006746B5
:1071E000BE403200801A994100900191ACE762469E
:1071F00020239B1A4A46DA406146130042468A40E1
:1072000017001F4380E7624620239B1A2A00664628
:107210009A402300F3401343D4E762462023002121
:107220009B1A0022009101920122DA40019280E72C
:107230002023624626009B1ADE402F00B046664699
:10724000B74046463B003343C8E7C046F0B54F461B
:107250004646D6468446C0B58046194E18030F03ED
:107260004D00000B5C0082463F0B6D0DC90F91462F
:10727000640DDB0F0120B5420AD0B44203D0A54211
:1072800001D157450CD01CBC90469946A246F0BD92
:1072900066463E43F7D1AC42F5D154461443F2D191
:1072A0000120C845EFD1994207D0002DEBD16346AC
:1072B0001F433800471EB841E5E70020E3E7C0461A
:1072C000FF070000F0B54F464646D6464D00C0B514
:1072D0000E03C90F8A462C491F035C008046360BFB
:1072E0006D0D91463F0B640DDB0F8D421ED08C421D
:1072F00016D0002D1ED130438446002C01D13A43D4
:1073000023D06246002A1AD09A4529D0514602203D
:107310000139084001381CBC90469946A246F0BD90
:1073200039001143E5D002204042F4E73043FAD15E
:10733000AC420FD0002C0FD13A43E7D00CE0012231
:10734000013B934318000130E5E763460020002B22
:10735000E1D0DBE73A43E6D19A45D7D1A542D5DC67
:10736000A54205DBBE42D1D808D00020BE42D2D211
:1073700050460123013898430130CCE7C845C5D8B1
:107380000020C845F4D3C6E7FF070000F0B54F461C
:107390004646D6464D00C0B50E03C90F8A462E4953
:1073A0001F035C008046360B6D0D91463F0B640D4C
:1073B000DB0F8D4218D08C4211D0002D18D13043F4
:1073C0008446002C1ED13A431CD163460020002B7A
:1073D00030D0514602200139084001382AE03900F6
:1073E0001143EAD0022025E03043FBD1AC4226D045
:1073F000002C26D13A4324D15146022001390840BD
:10740000013817E06246002A0FD09A45E1D1A54223
:1074100005DBBE42DDD819D00020BE420AD250465C
:10742000012301389843013004E00122013B9343DA
:10743000180001301CBC90469946A246F0BD3A4364
:10744000D0D19A45C5D1A542C3DCE0E7C845C0D834
:107450000020C845E3D3EDE7FF070000F0B557462D
:10746000DE464E464546E0B5834606000F0348001B
:1074700087B092461D003F0B400DCC0F002800D175
:107480006FE0DE4B984238D08023FF001B041F437F
:10749000730F3B430193DA4B0027994600239B4629
:1074A000F60081442B0369001B0B52469846490D98
:1074B000ED0F002900D185E0D04B994200D173E057
:1074C0004346DA0080231B0413435246CC48520F34
:1074D00084461343524600206144D200894421006F
:1074E000694000918C46012149448A460F2F00D9FA
:1074F00090E0C449BF00CF59BF465B463B43019370
:1075000000D06AE102230827002681469B46C9E78E
:1075100032005846019B61460091022800D175E077
:10752000032800D1FEE1012800D02CE10023002730
:10753000002600253F032A0D3F0BB34812053A43AE
:1075400002401B051343009A5B00D1075B080B4305
:107550003000190007B03CBC90469946A246AB46A5
:10756000F0BD5B463B43019300D12FE1002F00D1DA
:10757000A5E1380000F094FD03000B3B1C2B00DD5F
:1075800096E11D22D31A5A460100DA405E460839B8
:107590008F4013008E403B4301939C4B00271B1AE6
:1075A000994600239B467DE7414653460B4393494A
:1075B0008C46E144002B00D01AE10222022017433E
:1075C00000228CE7134300D10DE14346002B00D18C
:1075D00081E1404600F064FD02000B3A1C2A00DD08
:1075E00072E10100434608398B4098461D239A1AE0
:1075F0005346D3401A004346134352468A404946F5
:10760000081A824989468144002068E77B4B00279D
:1076100000268EE7140C1204120C1100370C3604ED
:10762000350C794328008C462E0060436044834625
:1076300056432100300C804658467943404402911D
:10764000844506D98846802149028C46E04441465B
:1076500002913604010C360C00048B4681191E0C75
:107660001B041B0C0391190079438C4628007543B9
:107670006544A8465843050C45447743A94203D9BD
:10768000802149028C466744290C8C46390000044D
:10769000000C2D042D186144AB440591594604910A
:1076A00001990F043F0C080C3900514342439046A6
:1076B00002008C46090C8B4662437C4344445C4484
:1076C000A04503D98021490288464244210C8846BE
:1076D00061460904090C8C46390059434343704301
:1076E0007E430F0CF6182404BE19644442448C46B1
:1076F000B34203D980235B0298464044029B614613
:107700009846049B370443449B46AB45AD416B42CE
:107710000D0405992D0C8C467F196744FD18A84669
:107720005D462D19A542A44193466442A446C34434
:10773000DC448F42BF4198459B4193459241A4450B
:10774000A4415B427F421F43360C52426442BF1940
:107750002243BF18624638184302D20D03991343DF
:107760006A020A43501E82416146ED0D2A434E02D1
:107770003243D90100D4B3E001265008324002431D
:10778000DE0732435B08224C5444002C62DD510773
:1077900009D00F201040042805D0101D90429241BE
:1077A00052429B180200D90104D580241948E400F4
:1077B000034054441848844200DD27E75E075B021B
:1077C000D2081F0B630516435B0DB2E600239946F2
:1077D0000133042700269B4664E603230197814674
:1077E0000C279B465EE6012201201743002276E625
:1077F000032303201F43434671E6C046FF070000F2
:1078000001FCFFFF24A90000FFFF0F800DFCFFFF1C
:10781000FF030000FFFFFFFEFE070000002380279C
:1078200000933F030026434B83E6019B3200A446AE
:10783000584670E6AC466EE6802701993F03394210
:107840002DD03B422BD11F433F033F0B0095160029
:10785000384B6EE601252D1B382D00DD66E61F2D09
:1078600040DC35481C005044160082408440EE4005
:10787000501E824134431443EB40620709D00F226B
:107880002240042A05D02200141D94428041404227
:107890001B181A023ED501230027002649E680273F
:1078A000019B3F031F433F033F0B0094214B40E6E6
:1078B00003005A46283B9A40002601926DE658463E
:1078C00000F0EEFB203057E603005246283B9A407A
:1078D0001300002293E6504600F0E2FB20307BE6E6
:1078E000CA4650E71F201E004042041BE640202DE0
:1078F00003D0124C5444A3401A43501E82413243D9
:1079000007260027164009D00F200023104014003E
:107910000428B9D122005E075B021F0BD208164370
:10792000002306E680273F031F433F033F0B16005B
:10793000004BFEE5FF0700001E0400003E040000AF
:10794000F8B557464E464546DE460C000903E0B5FD
:10795000490A460F5F0031431E03DB0F760A9B4640
:10796000530F3343C84E6500C000E40FD2006D0DC5
:10797000A24681467F0D9C469046B74200D1B9E0B1
:107980005B46012673409B46EE1BA34500D183E076
:10799000002E63DD002F00D0B1E06346134300D119
:1079A00023E1731E002B00D0BAE1861A6346B04271
:1079B00080410125C91A4042091A0B0200D447E14F
:1079C00049024B0A98464346002B00D189E14046C4
:1079D00000F066FB0300083B1F2B00DD7CE120224A
:1079E0003000D21A4146D040994002009E400A43DE
:1079F0009D4200DD6AE15D1B6B1C1F2B00DD94E1E5
:107A0000202110003500C91A8E40DA408840DD4040
:107A1000711E8E4111000722284300250643324083
:107A2000002A09D00F233340042B05D0331DB34265
:107A3000B641764289191E000B0200D43DE26A1C51
:107A4000914B55056D0D9A4200D119E18F4AF60808
:107A50000A40570752023743120B9BE0002E00D01A
:107A6000C5E06E1C7605760D012E00DC48E1674608
:107A7000861ACB1BB042BF417F42B8461F00434627
:107A8000FF1A3B00B8461B0200D55FE137439AD18D
:107A900000220024002579E0002E00DCFAE0002F0F
:107AA00000D18DE0784B9D4267D0802367461B0450
:107AB0001F43BC46382E00DC52E1634613435A1E76
:107AC00093411E1886428041404209180B0200D49F
:107AD000BEE06D4B01359D4200D1D2E06B4A730888
:107AE0000A4001210E401E435108D30707221E43BE
:107AF000324095E71E00164300D045E740E7624B51
:107B00009D423AD0802367461B041F43BC46382E53
:107B100000DDEBE01F2E00DC3AE133006746203B3E
:107B2000DF403B00202E05D04027BF1B6646BE40ED
:107B3000324390464646721E96413343DAE0002BAC
:107B400000D114E26346134300D168E180234E075D
:107B5000C008C9081B030643194208D06046C00884
:107B6000184204D163460100D2085E071643F300B1
:107B70009946C900720F444D11434B46DE08424BF3
:107B80004F073743CA089D4200D16EE012036D05CE
:107B9000120B6D0D00211203130B0A0D12051A436F
:107BA0003B4B2D0513402B435B00E4075B0823434D
:107BB000380019003CBC90469946A246AB46F8BD39
:107BC0006346134311D0731E002B00D007E18618C3
:107BD0008642804161444042091801250B0237D595
:107BE00002257BE73E00614691463500C5E75C46CD
:107BF000002D00D0E1E00B000343F3D0731C00D153
:107C0000ACE1214B9F4200D13AE1F343382B00DD38
:107C10006FE11F2B00DD8CE120250E00ED1AAE4038
:107C2000B0460600AA46DE40454635432E0055467E
:107C3000D940A8406346451EA8415B1A9C46304384
:107C4000161AB242924163465242991A3D00B4E676
:107C500007223240002A00D0E4E60B4BF6084F071B
:107C60003743CA089D4200D090E73B00134300D140
:107C7000A6E180231B031A431203120B024D89E76E
:107C800015000022002785E7FF070000FFFF7FFFA8
:107C9000FFFF0F80002E00D0C7E06B1C5E05760D45
:107CA000012E00DCF0E0C84DAB4200D1B9E08518F0
:107CB0000A00854289416244494251180722CE0791
:107CC0006D082E43490832401D00A9E6BF49ED1A50
:107CD000114007223240A3E63200283882400026B5
:107CE00086E6300000F0DCF9203073E6634613438B
:107CF0005A1E9341C61AB04280414042091A5CE6BE
:107D00000E00674606431743002D5ED1002E00D0BB
:107D1000F3E0002F00D11EE15C46614691462CE75E
:107D2000A94FBE427BD01E00F1E610001F3DE84087
:107D3000202B03D04021CB1A9A401643731E9E413C
:107D40000722064332400021002583E7161A6346C6
:107D5000B2428041591A40420B1A98465C4632E6BC
:107D60001F2E00DDABE02027BB1B9A46634657461B
:107D7000BB40994613004F46F3401F433B00574614
:107D8000BA40571EBA4113436246F240891898E63A
:107D90002027BB1B9A4663465746BB4099461300B3
:107DA0004F46F3401F433B005746BA40571EBA4167
:107DB00013436246F240891A9CE7834B9F425FD08F
:107DC00080252D047342294320E7002E0CD1002F7B
:107DD00000D1D0E05C46614691467B4DCDE67A4FBE
:107DE000BE421CD01E0065E6002F18D0C0084E070A
:107DF00006438020C9080003014208D06346DC081E
:107E0000044204D12100DA46D2085E071643F3008B
:107E1000994601245346C900720F11431C406A4D14
:107E2000ABE61D0000220027B4E6002D59D10B005F
:107E3000034300D1D6E6731C00D1B2E0624B9F42EF
:107E40001ED0F343382B6FDC1F2B00DD97E020257D
:107E50000E00ED1AAE40B0460600AA46DE4045468A
:107E600035432E005546A840D940451EA8418C44B4
:107E70000643B61896429241514261443D0025E6C0
:107E80003D006146914678E60B000343002D00D08B
:107E900055E6002BF5D06346134300D16DE68618F6
:107EA0008642804161444042091800220B0200D4FE
:107EB000D0E6464B01351940B2E5B1465DE63300E8
:107EC0006746203BDF403B00202E05D04027BF1BEC
:107ED0006646BE40324390464646721E9641334344
:107EE000EFE5394B9F42CBD080252D0473422943C7
:107EF000A8E70843411E8841A2E6002F00D13CE6D6
:107F00006346861ACF1AB0429B415B42FB1A9846E1
:107F10001B024ED5161A6346B2429241591A52427A
:107F2000891A5C4600227BE501430E00711E8E41DA
:107F30009FE71D000E00203DEE40B046202B04D0F0
:107F40004025EB1A99400843814648464346411E66
:107F50008841184374E60022002417E6161A634687
:107F6000B2429241591A5242891A3D0025E56146B2
:107F70009146154D01E680220024120379E61D008A
:107F80000E00203DEE40B046202B04D04025EB1AD9
:107F90009940084381464E464346711E8E411E431A
:107FA00067E7861896429B4161445B42C9183D00D1
:107FB0008CE547463743CED007224146324049E65A
:107FC00000273A00E6E5C046FF070000FFFF7FFFFD
:107FD00030B5144D0A034B00120B5B0DC90F002482
:107FE000AB4211DD104CA34210DC80246403224319
:107FF0000E4CE41A1F2C0CDD0D48C31ADA40130096
:108000005C42002900D11C00200030BD094BCC1877
:10801000FAE7094DE040AC4663449A40130003433D
:10802000EEE7C046FE0300001D040000330400001C
:1080300013040000FFFFFF7FEDFBFFFF10B5041EE0
:1080400025D000F02DF8144B1B1A5B055B0D0A2898
:1080500012DD0B38844000222403240B0021100081
:1080600024030A0D240B120522430C4C1B0522404D
:1080700013435B00590810BD0200210015329140E6
:108080000A000B21081AC4402403240BE6E700234E
:1080900000240022E2E7C0461E040000FFFF0F801C
:1080A0001C2101231B04984201D3000C10391B0A28
:1080B000984201D3000A08391B09984201D30009EC
:1080C000043902A2105C40187047C0460403020243
:1080D00001010101000000000000000010B50029AE
:1080E00003D1FFF7DDFF203002E0081CFFF7D8FFC7
:1080F00010BDC0460023C25C0133002AFBD1581ECC
:1081000070470000224B1A6A40218A431A625A6A59
:1081100035398A435A625A6A04390A435A625A6A9A
:1081200079310A435A621A4B1B681B06FBD5184B60
:108130005B6A5B062AD4164AD36CDBB2916C5B187F
:10814000DBB2516C5B18DBB2116C5B18DBB2D16B2C
:108150005B18DBB2916B5B18DBB25B08D362D36E4A
:10816000DBB2916E5B18DBB2516E5B18DBB2116E45
:108170005B18DBB2D16D5B18DBB2916D5B18DBB2C3
:108180005B081363536A80218B435362C046704778
:1081900000B00340F8B51D00234E244C375980230E
:1081A0001B053B433351083AD3B2052B07D89A003D
:1081B0001F4B9B589F46002204E0082202E00C223D
:1081C00000E0042251231A431A4CA260E3680F22F4
:1081D0009343E36001281BD0164AD36810208343E1
:1081E000D360144800230362426A03332B401343D5
:1081F0000C221343436201290FD00E4A1368202139
:108200008B4313600B4A136840218B431360F8BD06
:10821000E3680F300343E360E3E703681F310B4378
:108220000360FFF76FFFEDE7007004403C100000B3
:1082300064A9000000B0034010B5000A0323102217
:10824000FFF7A8FF10BD000070B52E4C2170840010
:108250002D49615800282AD12C4D2D4C28594026F3
:10826000304328512B488024A4008460C46000203F
:1082700088708879402420438871C878122420436C
:10828000C8702048007801281DD05200D2B20A7070
:108290008B78802252421343DBB28B708B78903202
:1082A00093438B708B78103293438B7070BD174D56
:1082B000174C285980263043285117488024A400A1
:1082C00044608460D3E7322B12D006D94B2B12D0F6
:1082D000642B13D11F234B7003E0192B0ED19F2366
:1082E0004B708B78802252421343DBB28B70DDE7F8
:1082F0005F234B70F5E725234B70F2E71F234B708C
:10830000EFE7C046A00400207CA9000000700440F4
:108310003410000000A0044000B004408000094B6D
:10832000C1580023CA78920706D401339BB2064A8B
:108330009342F7D1012004E0CB7802221343CB70A3
:10834000002070477CA90000FFFF00008000024B66
:10835000C3581879C0B270477CA900008000024B56
:10836000C35819717047C0467CA900008000054BB6
:10837000C3589A7820218A439A709A7810398A4390
:108380009A7070477CA900008000054BC3589A780A
:1083900010210A439A709A7820210A439A707047F4
:1083A0007CA900008000054BC3589A7810210A432D
:1083B0009A709A7804210A439A7070477CA9000049
:1083C0008000034BC258937808218B439370704709
:1083D0007CA900008000034BC258937808210B430E
:1083E000937070477CA900008000064BC3589A78B0
:1083F000102082439A709A780901014011439970C4
:108400007047C0467CA900008000034BC358D87851
:10841000012318407047C0467CA90000F8B504004D
:108420000E0017001D00FFF7AFFF234B9F421AD02D
:108430007100C9B22000FFF791FF2000FFF76EFF27
:10844000012838D02000FFF7DFFF012833D0F9B230
:108450002000FFF783FF2000FFF760FF01282AD0EC
:108460002000FFF79FFF760001213143C9B22000B1
:10847000FFF774FF2000FFF751FF01281BD02000F9
:10848000FFF7C2FF012816D000212000FFF7ACFF44
:108490002000FFF79FFF2000FFF758FF2000FFF7A5
:1084A0003DFF012807D02000FFF760FF2000FFF705
:1084B0004DFF28700020F8BDFFFF0000002201E002
:1084C000C0460132024B43439342F9D87047C0463D
:1084D00070170000F0B583B004000F001500019381
:1084E00008AB1E78FFF750FF374B9D421DD0790037
:1084F000C9B22000FFF732FF2000FFF70FFF01286D
:1085000045D02000FFF780FF012840D0E9B22000CD
:10851000FFF724FF2000FFF701FF012837D0642078
:10852000FFF7CCFF2000FFF73DFF7F00012139431B
:10853000C9B22000FFF712FF2000FFF7EFFE01286D
:1085400025D02000FFF760FF012820D00021200067
:10855000FFF74AFF2000FFF733FF2000FFF7F6FE8A
:108560002000FFF7DBFE012811D0002501E00135D6
:10857000EDB2B31E9D420CDA019B5F192000FFF79C
:10858000E5FE38702000FFF7C9FE0128EFD103B0E7
:10859000F0BD2000FFF71EFF6F1CFFB2019B5E19AC
:1085A0002000FFF7D3FE30702000FFF7B7FE012850
:1085B000EDD02000FFF7DAFE019BDD192000FFF768
:1085C000C5FE28700020E2E7FFFF0000264B274A87
:1085D000C0218902995026495858802292000243AE
:1085E0005A50244B9B781B0704D5224A93780821C4
:1085F0000B4393701C4B1D4A8021490299501E4A1F
:1086000099581E480140995019681D480140196049
:1086100099581C48084080214904014399501A4B3D
:1086200006221A705A7840210A405A70D97849B205
:108630001F2211407F3A0A43D2B2DA700022134956
:108640000A701A715A71104B9B79DB06FBD50E4BE1
:108650009A790C231A42FAD10349054A8858F8231B
:108660009B0103438B50704700700440441000008E
:108670003810000000D0074004100000FFFFFCFF8E
:10868000FFFFF3FFFFFFFFFC0040064000500640E5
:108690008000034BC258136880210B43136070475E
:1086A0000404002010B5002806D0431EDBB2012BC5
:1086B00007D8FFF7EDFF04E0024A136880210B435F
:1086C000136010BD00000440002201E0C0460132EA
:1086D000024B43439342F9D87047C04670170000DD
:1086E000F0B591B072B600F06BFA994801F0EAFC6F
:1086F000032000F047FA01220121052000F006FACC
:10870000012201210C2000F001FA012201210D209B
:1087100000F0FCF9012200218E4800F0F7F900F08A
:108720004FFA8D4801F0CEFC01F06AF88B4801F059
:10873000C9FCE1214902002000F0C4FC002107200F
:10874000FFF77AFD00210220FFF776FD00211A20B5
:10875000FFF772FD00F034FA002000F0CFFD62B6A2
:108760007F4801F0AFFC9F23002200925B00EE32B5
:108770000221022000F0B4FF012500955023EC22D5
:108780002821042000F0ACFF764CF8263602764B08
:108790000093230032001421482000F0FDFE734BAB
:1087A0000093230032003421442000F0F5FE00F055
:1087B00007FA6F4B0093230000225821082000F095
:1087C000EBFE00957423EC226A21042000F088FF60
:1087D000684B0093230000227821082000F0DCFE83
:1087E00000959423EC228A21042000F079FF624B4B
:1087F0000093230000229821082000F0CDFE009570
:10880000B423EC22AA21042000F06AFF5B4B009302
:1088100023000022B821082000F0BEFE0095D423DA
:10882000EC22CA21042000F05BFF554B009323008B
:108830000022D821082000F0AFFE00F0C1F99E23ED
:1088400000955B00EC22EA21042000F049FF4D482E
:1088500001F038FC002400F0B3F90134142CFAD9EB
:1088600000F0AEF900F0ACF900F0AAF90526039685
:1088700000240294019480250095082308220B21EE
:10888000002000F073FB13236B441900002000F05C
:10889000C7FA0396029401940095082308220B213D
:1088A000002000F063FB13236B441900002000F04C
:1088B000B7FA0520FFF708FF05AF0622390032207E
:1088C00000F0BAFA7E7836023B78F618B6B2FD7838
:1088D0002D02BB78ED18ADB27C7924023B79E41807
:1088E000A4B23100284801F0EDFB2900274801F02F
:1088F000E9FB2100264801F0E5FB264F3200390054
:1089000007A801F003FC2A0039000AA801F0FEFBC9
:10891000220039000DA801F0F9FB07A9002000F0A2
:10892000A3FC2E21002000F071FC0AA9002000F019
:108930009BFC2E21002000F069FC0DA9002000F016
:1089400093FC0A21002000F061FC002483E7C0466C
:1089500084A900001304000098A90000A8A9000041
:10896000B0A9000030840000CCA90000DCA9000000
:10897000ECA90000F8A9000004AA000010AA000059
:108980001CAA000030AA000038AA000050AA00006B
:1089900068AA000080AA000010B501F0A5FB10BD78
:1089A00000238B4206D28202D25CFF2A05D101331A
:1089B0009BB2F6E70120C0B270470020FBE7000041
:1089C0000F4B30221A70EFF31083002B12D172B6C6
:1089D0002F3A0B4B80211970094B1B785BB2002B8F
:1089E000FADA012A08D0064B1A7831231A4205D147
:1089F000002070470022ECE762B6F4E70120F8E7B8
:108A00000000024010B58402164B0922DA7182047C
:108A1000120E9A718006000E5871E2B21A71FFF7B9
:108A2000CFFF01281BD0104B9C4201D9002010BD64
:108A30000C4B0622DA7100229A7104325A71083204
:108A40001A71F332DA729A725A72013A1A72FFF795
:108A5000B7FF012801D00020E9E70130E7E7012056
:108A6000E5E7C04600000240FF030000F8B50F0034
:108A70001400124B0622DA7105000026B74218D9FD
:108A80002A02120E0D4B9A712A04120E5A71EAB282
:108A90001A71E278DA72A2789A7262785A7222783F
:108AA0001A72FFF78DFF012805D00436043504340F
:108AB000E4E70020F8BD0220FCE7C04600000240C9
:108AC000030A0B701070704730B583B00D006B4611
:108AD000DC1D9A1D2100FFF7F3FF23789B000A4A53
:108AE0009B58012D08D01A68694688790121814078
:108AF0008A431A6003B030BD1A686946887901213B
:108B000081400A431A60F5E784AA0000F0B585B0F9
:108B100004000F00019202AB9E1DDD1D32002900F2
:108B2000FFF7CEFF2A789200134BD35813495058C1
:108B300032789200D158124D2940D15032789200AB
:108B4000D658802149003143D150012F08D04369C4
:108B500002AA917901228A409343436105B0F0BD96
:108B6000436902AA917901228A4013434361019922
:108B70002000FFF7A9FFF1E798AA000084AA0000EF
:108B8000FFF8FFFF012809D002280FD00B498822E7
:108B900052018B580C2003438B5006E00749882272
:108BA00052018B58042003438B507047034988229D
:108BB00052018B58082003438B50F6E700700440A5
:108BC000034A044B5521D1505531D1507047C0460E
:108BD0000070044004110000F8B50D0014001F00DF
:108BE00006AB1E78012802D8002800D076E078492C
:108BF000784A88588023DB0303438B50764B8022CE
:108C000092001A615A619A61DA61FFF7D9FF734BDA
:108C10000022DA70DA7840210A43DA70012D2DD073
:108C20006E4AD378802149420B43DBB2D370002FC8
:108C30002AD16A4AD37808218B43D370002E29D1D8
:108C4000664AD37804218B43D370FFF7B9FF634B97
:108C5000DA7802210A43DA7000229A70012D1FD0BF
:108C60005E4B00225A7021005D48FEF7A7F8C4B29F
:108C7000FFF7A6FF082C19D9002523E01A00DB789E
:108C800010210B43D370D2E7544AD37808210B4309
:108C9000D370D3E7514AD37804210B43D370D4E780
:108CA0001A009B7810210B439370D9E7013CE3B283
:108CB0001B01DBB2494A53700FE0FFF781FF01351A
:108CC000EDB26408112CF8D8013CE4B22401E4B2FE
:108CD000424B5C705A7815435D70F8BDFFF770FF2A
:108CE0003B493C4A885880231B0403438B503D4B2F
:108CF000802292001A615A619A61DA61FFF760FF7F
:108D0000394B0022DA70DA7840210A43DA70012DFB
:108D10002DD0354AD378802149420B43DBB2D37042
:108D2000002F2AD1304AD37808218B43D370002EEC
:108D300029D12D4AD37804218B43D370FFF740FF0C
:108D4000294BDA7802210A43DA7000229A70012D49
:108D50001FD0254B00225A7021002148FEF72EF823
:108D6000C4B2FFF72DFF082C19D9002523E01A0003
:108D7000DB7810210B43D370D2E71B4AD37808214C
:108D80000B43D370D3E7184AD37804210B43D37035
:108D9000D4E71A009B7810210B439370D9E7013C6C
:108DA000E3B21B01DBB20D4A537096E7FFF708FFF1
:108DB0000135EDB26408112CF8D8013CE3B21B0177
:108DC000DBB2064A537053781D43557085E7C046A1
:108DD000007004403410000000B004400060074000
:108DE000C05D000000C00440007007400A4B9C4674
:108DF0006044000303789B06FCD581710023074A79
:108E0000934204D80278920603D40133F7E7002096
:108E100000E001207047C04676000400EFFF00002C
:108E200010B50B0082B2034908785321FFF7F6FA18
:108E300010BDC046AC04002000B583B00B0011008B
:108E400082B20448007800915321FFF743FB03B03E
:108E500000BDC046AC0400208000054BC3589A7882
:108E600010210A439A709A7820210A439A70704719
:108E7000ACAA00008000024BC35819717047C0466D
:108E8000ACAA00008000094BC1580023CA789207A1
:108E900006D401339BB2064A9342F7D1012004E085
:108EA000CB7802221343CB7000207047ACAA00009D
:108EB000FFFF00008000034BC358D87801231840FF
:108EC0007047C046ACAA00008000054BC3589A7892
:108ED00020218A439A709A7810398A439A70704791
:108EE000ACAA0000F8B505000C0017001E00FFF743
:108EF000B3FF6400E1B22800FFF7BCFF2800FFF7D2
:108F0000C1FF012822D02800FFF7D4FF01281DD07F
:108F10000F4B9E420DD0F1B22800FFF7ABFF2800A7
:108F2000FFF7B0FF012811D02800FFF7C3FF012889
:108F30000CD039002800FFF79DFF2800FFF7A2FFA3
:108F4000012803D02800FFF7BFFF00E00120F8BD93
:108F5000FFFF0000002201E0C0460132024B434304
:108F60009342F9D87047C04670170000F0B5DE464E
:108F700000B584B00191029203930AAB1C78A3461A
:108F80000BAB1F780CAB1E780DAB1D78264C2070F8
:108F900064239F220121FFF757F90120FFF7DAFF31
:108FA00020783123019A5321FFF79CFF0120FFF71E
:108FB000D1FF20782C23029A5321FFF793FF012041
:108FC000FFF7C8FF20782D23039A5321FFF78AFF6C
:108FD0000120FFF7BFFF20782E235A465321FFF7C9
:108FE00081FF0120FFF7B6FF20781E233A005321AE
:108FF000FFF778FF0120FFF7ADFF20781F23320035
:109000005321FFF76FFF0120FFF7A4FF20782023F3
:109010002A005321FFF766FF0120FFF79BFF04B0F2
:1090200004BC9346F0BDC046AC04002080B51D4F83
:10903000BD4418213F20FFF7B3FC00282BD180222C
:10904000D021D200C90102A8FFF7A6FC78231B6833
:10905000209A9A4210D01A20FFF7D4FC08231B68EC
:10906000049378231B68019320938021D02002AAC7
:10907000C900C001FFF7FAFC0B4BD022D2019A6065
:109080000A4BE02292011A60094801F01BF8812383
:10909000DB009D4480BDFC20064A18210002FFF73A
:1090A000E5FCCCE7F8FBFFFF00ED00E0A8040020A2
:1090B000D0AA0000B4AA0000022801D801207047FD
:1090C0000020FCE770B504000D00FFF7F5FF002855
:1090D0002BD0002C2AD0012C00D16DE0022C00D125
:1090E00077E0013CA400414BE458E3780C22934321
:1090F000E3703F4B186840082901FDF7D5FD237840
:109100001F22934302121F210A4013432370C0B24F
:1091100060700023A370A3716371E3787F22134012
:10912000E370E3780C221343E37070BD314B324A95
:1091300098588021C9040143995099582F480140FB
:1091400099502F49086D8022D20010430865486D60
:10915000104348652B49585802435A502A4CE3782B
:109160000C229343E3702901214B1868FDF79CFD05
:1091700023781F22934302121F210A4013432370B6
:10918000C0B260700F23A3720023A370A371237277
:10919000637223791F221343237163794022524261
:1091A0001343DBB26371E378BF321340E370E378BB
:1091B0000C221343E370B8E7114BC02292001A60EF
:1091C0005A600C490F4A885880231B0103438B5077
:1091D00087E70B4BC02292001A645A640549094A7A
:1091E000885880235B0103438B507AE7FCAA000078
:1091F000000400200070044004100000FFFFFEFF88
:1092000000D004403410000000A0064070B50500F6
:109210000C00431E9B00114A9E58FFF74DFF00288B
:1092200016D0002304E0327952B2002A11DB013358
:109230000B4A934208D8002DF5D10A4A127952B24E
:10924000002AF4DA074AD471054A934203D8012070
:1092500070BDF471F8E70020FAE7C046FCAA0000F0
:10926000BAFB000000A0064070B504000E00FFF736
:1092700023FF00280CD00025715D002907D02000B5
:10928000FFF7C4FF002803D00135ADB2F4E7012099
:1092900070BD000070B504000E00431E9B00144A10
:1092A0009D58FFF709FF002801D0002306E00023A6
:1092B000337070BD2A79920615D401330D4A93425A
:1092C0000AD8002CF6D10C4A12799206F5D50A4A32
:1092D000D079C0B201223270064A9342E9D9002304
:1092E0003370FF20E5E7E879C0B201223270F3E77E
:1092F000FCAA0000BAFB000000A0064070B5040004
:10930000431E9B000D4A9D58FFF7D6FE00280ED045
:10931000002C0DD10A4AD37820210B43D370094B7E
:109320001B5D1F221A4001239340074A136070BD42
:10933000EB7820221343EB70F1E7C046FCAA000053
:1093400000A006401004002000E100E070B5050018
:10935000FFF736FC01210948FFF7B6FBC024A40043
:1093600000212000FFF7B0FB29000020FFF73EFDA1
:1093700001212000FFF7A8FB70BDC04601030000DB
:1093800070B50400FFF71CFC01210B48FFF79CFBA4
:10939000C025AD0000212800FFF796FB210A002020
:1093A000FFF724FDE1B20020FFF720FD0121280096
:1093B000FFF78AFB70BDC0460103000070B50500D1
:1093C000FFF7FEFB00210948FFF77EFBC024A40045
:1093D00000212000FFF778FB29000020FFF706FDA1
:1093E00001212000FFF770FB70BDC04601030000A3
:1093F00010B50C00FFF7E2FF2000FFF7C1FF10BD22
:10940000F8B507000D0016001C002A20FFF7D6FF54
:10941000380AFFF79BFFF8B2FFF798FF300AFFF713
:1094200095FFF0B2FFF792FF2B20FFF7C7FF280A46
:10943000FFF78CFFE8B2FFF789FF200AFFF786FFEE
:10944000E0B2FFF783FF2C20FFF7B8FFF8BD70B53F
:1094500005004023FF33EF2200210020FFF7D0FF5B
:1094600000260AE02800FFF78BFF0134A4B2402356
:10947000FF339C42F6D90136B6B2EF2E01D8002454
:10948000F5E770BD10B514000B000200FFF7B8FF40
:109490002000FFF775FF10BDF0B5DE4657464E467B
:1094A0004546E0B585B00EAC248803940190121AAD
:1094B000924602915B1A9B46002A0DDD01239846D5
:1094C0005B46002B12DD01239946DA4518DD55462F
:1094D00000270026002417E0002A05D053429A46B0
:1094E00001235B429846EBE79046E9E7002B05D065
:1094F0005B429B4601235B429946E6E7D946E4E797
:109500005D46E5E70134A4B26B1C9C4214DC6B465B
:1095100019899888039AFFF7B5FF56445F44B5420E
:1095200003DA761B019B43440193BD42EADA7F1BB9
:10953000029B4B440293E5E705B03CBC904699463C
:10954000A246AB46F0BDF0B583B016000193089F6C
:109550000B000F339BB202000F3292B2FFF750FFA5
:10956000002512E00198FFF70BFF0134E4B2072C4D
:1095700008D80023FB562341DB07F3D53000FFF763
:10958000FFFEF2E701370135EDB21F2D01D80024AF
:10959000EDE703B0F0BD0000F0B5DE4657464E469D
:1095A000C0B586B083460491059202930E9E0023B7
:1095B0009A4637E05346D800584480B204990B00CD
:1095C0000F339BB2C21D92B2FFF71AFF00257557E9
:1095D000203D2D01304BED180027B1463E00059F80
:1095E00012E00298FFF7CCFE0134E4B2072C08D851
:1095F0000023EB562341DB07F3D53800FFF7C0FE0D
:10960000F2E701350136F6B20F2E01D80024EDE75E
:109610004E4653460133DBB29A46013653461D2B64
:1096200034D862B60023F356002B2FD072B6002434
:1096300034572300203BDBB25E2BBBD97F2CECD10F
:10964000002301E00133DBB2022B1AD80127F757C0
:10965000039312491A01D5186800455609180122CA
:109660008A56AC42EED19742ECD10B0002335246FF
:10967000D000584480B20093029B059A0499FFF7EA
:1096800062FF53460133DBB29A46C6E706B01CBC04
:1096900091469A46A346F0BD6CAB000004AB0000B7
:1096A000F0B5CE4600B582B001900E001700994685
:1096B00008AB1D884B46FFF7A3FE08E02800FFF724
:1096C0005FFE0134A4B2BC42F8D90136B6B24E45B1
:1096D00001D8019CF7E702B004BC9146F0BD000040
:1096E000F0B5D6464F464646C0B586B00700039053
:1096F000160004921D0005930EAB1B789946384B5B
:1097000000932B000291FFF7CBFF002400940299F5
:109710000B0032003800FFF7BFFE00942B003A0028
:1097200002993800FFF7B8FE00942B00320002992E
:109730003000FFF7B1FE00942B0032002900380002
:10974000FFF7AAFE0125A8464346012B05D906B01E
:109750001CBC90469946A246F0BD4B46002B38D122
:10976000CA4643469CB2039BE618B6B2029BE51874
:10977000ADB2049B1F1BBFB2534600932B003A00AF
:1097800029003000FFF788FE059B1C1BA4B253463E
:1097900000932300320029003000FFF77DFE4B4686
:1097A000002B19D10F4B9A465346009323003A00E1
:1097B00029003800FFF770FE5346009323003A005B
:1097C00021003000FFF768FE43460133DBB29846C4
:1097D000BAE7044B9A46C4E700239A46E4E7C0463A
:1097E00030840000FFFF0000002201E0C04601328B
:1097F000024B43439342F9D87047C04670170000AC
:1098000010B582B000230093254A01210020FFF704
:10981000E3F9244C002201212000FFF777F9002210
:1098200001212148FFF772F9C020012201218000A7
:10983000FFF76CF900210020FFF7DAFD002120007E
:10984000FFF742F96420FFF7CFFF01212000FFF767
:109850003BF96420FFF7C8FF3620FFF7AFFD00207B
:10986000FFF774FDB620FFF7A9FD0A20FFF76EFD94
:10987000A220FFF76BFD3A20FFF7A0FD0520FFF7C0
:1098800065FD1120FFF79AFDC8208000FFF7ACFFAF
:109890000648FFF7DCFD2920FFF790FD02B010BD60
:1098A000204E00000203000001030000FFFF000043
:1098B00010B582B072B66B46DC1D21000020FFF7A8
:1098C000E9FC2378002B02D162B602B010BD010082
:1098D0000020FFF79BFCF7E710B572B60120FEF7FA
:1098E000E1FE62B610BD10B50C001368012B05D067
:1098F000022B07D023680133236010BD536840B2A8
:109900009847F7E793681870936801339360F1E71D
:10991000F0B583B016001D00471C00230370002A19
:109920001FD00C68002C01D000260BE030334370B0
:109930000126300003B0F0BD3023591A39700136CA
:109940000137019C002CF4D029002000FDF736FAE5
:10995000019029002000FDF717FB0029ECDB3031D6
:10996000ECE70C68002C08D1302343700126E0E7B7
:1099700037343C70013601370400002CD9D029005F
:109980002000FDF791F903006B43E41A092CEFD88E
:109990003034EEE7F8B504000D0017001E0005E0B6
:1099A000320039003020FFF79EFF0134AC42F7DB74
:1099B000F8BDF8B504000D0017001E0005E03200E8
:1099C00039002020FFF78FFF0134AC42F7DBF8BDF0
:1099D00010B5C1B20220FFF719FC10BDF0B5D64694
:1099E0004F4680B59BB00400894615001422002123
:1099F00015A800F082FB4C22002102A800F07DFB9C
:109A00002668676830003900FDF722FB8246FEF7C2
:109A100015FB02000B0030003900FDF791FF060036
:109A20000F00002D0ED14B4A4B4BFDF717FDFDF7F4
:109A30002DFB04000191002515E00022474BFDF7A6
:109A40000DFD25006C1E002DF7D1FDF71FFB040056
:109A50000191F0E70022414B30003900FDF7FEFC98
:109A600006000F00013500223D4B30003900FDF7A4
:109A7000A7FA0028EED16F1E5346002B21D13033B8
:109A80004A4613702F3B9A4653465D1C2E234A4686
:109A900051465354019B234323D0002639E0751CC3
:109AA0000A215046FDF786F9B60015ABF1500A21A0
:109AB0005046FDF7F9F882462E005346002BEED1B2
:109AC0000CE00026F9E7013EB20015ABD358303365
:109AD0004A465146535401239C46E244002EF2D19B
:109AE000D2E73033535501352AE00A220023200003
:109AF0000199FDF78DFA731C9A46B60002ABF2503D
:109B00000A22002320000199FDF782FA0400019146
:109B10005646019B2343E8D105E0B300002202A989
:109B20005A50013F0136002FF7D107E0013EB30044
:109B300002AA9B5830334A4653550135002EF5D1C1
:109B40004B465B1900221A7028001BB00CBC9146D2
:109B50009A46F0BD00A0D8855734764300002440D3
:109B60000000F03FF0B5DE4657464E464546E0B5AC
:109B700095B000900D0090460BAC212200212000F2
:109B800000F0BBFA3023237000230A9301330193C2
:109B900000239A460BE0009C22000AA90D20FFF743
:109BA000A2FE22000AA90A20FFF79DFE013500202F
:109BB0002856002800D17CE2252822D00A28EAD0A5
:109BC000009A0AA9FFF78FFEF0E701231E43050064
:109BD00000291BD1681C0123EB56203BDAB2102A66
:109BE00012D89300BE4AD3589F4602231E43EEE785
:109BF00004231E43EBE708231E43E8E710231E431C
:109C0000E5E700260021E3E70121E1E70024002346
:109C10001F0000E00F00002F0ED1681C0123EB563F
:109C20001A00303AD2B2092AF4D8A200121954000C
:109C3000303BE4180500EEE7BB466F1C0123EB56F2
:109C40002E2B19D00023994601936B1C0122AA5692
:109C5000682A04D06C2A27D04C2A2AD02B005D1CFD
:109C6000012018560300583BDAB2202A00D918E226
:109C700093009C4AD3589F460023002000E058469A
:109C800000280ED17D1C0122BA5611003039C9B20C
:109C90000929F4D89900C9184B00303A9B182F00B5
:109CA000EEE799463D00D0E70122514611438A462E
:109CB000D5E70222514611438A46D0E74346043392
:109CC000029343461B6809930A23012209A90BA8A2
:109CD000FFF71EFE81460BAF4F44099B002B07DBAD
:109CE000B30719D501239C46E1442A33984604E082
:109CF00001239C46E1442C33984633071CD5434648
:109D0000002B13D1009B0AAA21004846FFF742FE10
:109D1000A146029B984662E1042333409846ECD06A
:109D200001239C46E1441F339846E6E7009A0AA9BE
:109D30004046FFF7D8FDE5E7F30705D54346002B7E
:109D400016D1029B98464AE1009B0AAA2100484688
:109D5000FFF72FFE4346002B02D1029B98463EE1BF
:109D6000009A0AA94046FFF7BEFD029B984636E1DD
:109D7000009A0AA94046FFF7B6FD029B98462EE1DD
:109D80000C2343449B46434659689F6802910A004E
:109D90003B00069207930022002302983900FDF74A
:109DA0000FF9002806D1B30724D40427374008D080
:109DB000202706E0029A802109067B180692079365
:109DC0002D27019B002B17D15346002B1BD10822B6
:109DD0000BA906A8FFF702FE0290330720D5002F3B
:109DE00018D1009B0AAA21000298FFF7D3FD029424
:109DF0000BAF32E02B27E4E74A460BA906A8FFF792
:109E0000EDFD0290E9E74A460BA906A8FFF7E6FD3B
:109E10000290E2E7009A0AA93800FFF764FDE0E744
:109E2000F30707D5002FE3D0009A0AA93800FFF7FF
:109E30005AFDDDE7009B0AAA21000298FFF7B9FD51
:109E4000002FD5D0009A0AA93800FFF74CFDCFE7C4
:109E50000137009A0AA9FFF746FD0020385600286E
:109E6000F6D1F30701D4D846A0E6009B0AAA210048
:109E70000298FFF79EFDD84698E6434604330293C6
:109E800043461B6805931023002205A90BA8FFF782
:109E90003FFD81460BAF4F4408233340984623D003
:109EA0001023334098460FD1009B0AAA2100484650
:109EB000FFF770FDA146F30600D49EE04346002B59
:109EC00030D0029B98468AE0009A0AA93020FFF71A
:109ED0000AFD009A0AA97820FFF705FDD846E3E7B6
:109EE0006CB10000B0B10000F307E4D4102333409C
:109EF000984602D002239C46E144009B0AAA210016
:109F00004846FFF756FD4346002BD4D0009A0AA9D5
:109F10003020FFF7E8FC009A0AA97820FFF7E3FC5D
:109F2000D846C8E7009A0AA93020FFF7DCFC009A5F
:109F30000AA97820FFF7D7FC02239C46E144029B44
:109F400098464CE043461F1D1B68059308230022DA
:109F500005A90BA8FFF7DCFC8146B8460BAF4F44C0
:109F600033072FD4F3073AD4009B0AAA21004846AE
:109F7000FFF71FFD33E043461F1D1B6805930223B7
:109F8000002205A90BA8FFF7C3FC8146B846E5E708
:109F900043461F1D1B6805931023002205A90BA82B
:109FA000FFF7B6FC8146B846D8E743461F1D1B683D
:109FB00005930A23002205A90BA8FFF7A9FC8146F7
:109FC000B846CBE7009B0AAA21004846FFF7E2FC0F
:109FD000A14604E0013F009A0AA9FFF784FC002093
:109FE00038560028F6D1F30700D4DFE5009B0AAA13
:109FF00021004846FFF7DDFCD8E5029B9846EEE7D6
:10A0000043461C1D00201856009A0AA9FFF76BFC56
:10A01000A046CBE543460433029343461F68002F16
:10A0200044D03800FEF766F8039001231E4013D099
:10A030004B46002B1BD00020385600281BD04B4627
:10A04000002BF8DD01235B429C46E1440137009A76
:10A050000AA9FFF748FCEEE7009B0AAA2100FFF7D8
:10A06000A8FCE5E70137009A0AA9FFF73CFC0020AD
:10A0700038560028F6D1002E02D1029B984695E56D
:10A08000009B0AAA21000398FFF793FC029B9846C5
:10A090008CE543461B680A9A1A6004239C46E044F8
:10A0A00084E5009A0AA9FFF71EFC7FE5029B98460B
:10A0B0007CE50A9815B03CBC90469946A246AB4652
:10A0C000F0BDC0460FB400B585B001230193054B28
:10A0D000029306AA02CA01A8FFF744FD05B008BC16
:10A0E00004B01847D1990000002310B59A4200D15E
:10A0F00010BDCC5CC4540133F8E70300121893423E
:10A1000000D1704719700133F9E700000EB400B5B3
:10A110000B499CB01DAB0290069007910491094831
:10A12000094904CB0591006802A9019300F070F879
:10A130000023029A13701CB008BC03B01847C04635
:10A14000FFFFFF7F140400200802FFFFF0B58E68B8
:10A1500085B007000C00039201939E423CD89023E7
:10A160008A89DB001A4234D00325096923685B1A07
:10A170000293636902985D43EB0F5D19019B6D10BB
:10A1800001331B18AB4200D91D00530532D52900FD
:10A19000380000F019FB061E09D10C233B60402358
:10A1A0000120A28940421343A38105B0F0BD029A69
:10A1B0002169FFF799FFA389144A1A4080231343AA
:10A1C000A381029B2661F61826606561019EED1A47
:10A1D000A560019B9E4200D9019E32000399206830
:10A1E00000F095FAA36800209B1BA36023689E19CA
:10A1F0002660DAE72A00380000F044FB061EE0D1B2
:10A200002169380000F096FAC7E7C0467FFBFFFFE0
:10A21000F0B59FB0029005938B890F0016001B06C6
:10A2200011D50B69002B0ED1402100F0CDFA38601A
:10A230003861002805D10C23029A013813601FB041
:10A24000F0BD40237B61002306AC6361203363765D
:10A250001033A37635002B78002B01D0252B46D167
:10A26000AB1B04930CD0320039000298FFF76EFF4D
:10A27000431C00D1AEE06269049B94466344636171
:10A280002B78002B00D1A5E001220023524262600E
:10A2900002A9543252186E1C2360E360A36013704D
:10A2A000A36531780522544800F026FA751C002871
:10A2B0001FD12268D30604D5532302A95B1820219D
:10A2C0001970130704D5532302A95B182B211970A9
:10A2D00033782A2B16D0350000210A20E3682A782B
:10A2E0006E1C303A092A4ED9002918D010E00135E9
:10A2F000B1E7414B2268C01A012383401343236016
:10A300002E00CEE7059B191D1B680591002B01DB74
:10A31000099304E05B42E3600223134323602B783C
:10A320002E2B0AD16B782A2B35D1059B02351A1DAD
:10A330001B680592002B2BDB0793304E29780322F4
:10A34000300000F0D9F9002806D04023801B83405C
:10A3500022680135134323602978062228486E1CA1
:10A36000217600F0C9F900283CD0264B002B25D1DE
:10A370000722059B07339343083305936369039AC8
:10A380009B18636166E7434301219B183500A6E7EC
:10A3900001235B42D0E700230A201A0001356360E5
:10A3A00029786E1C3039092903D9002BC5D00792B2
:10A3B000C3E74243012352183500F1E705AB009390
:10A3C0003A00114B2100029800E000BF0390039B6C
:10A3D0000133D3D1BB890B985B0600D42FE7012052
:10A3E00040422CE705AB00933A00074B210002984E
:10A3F00000F07AF8EAE7C04634B200003AB2000052
:10A400003EB20000000000004DA10000F7B51500AD
:10A4100001938A680B6900900C00934200DA1300E4
:10A4200022002B6043321278002A01D001332B60C6
:10A4300023689B0602D52B6802332B60062723680E
:10A440001F4027D0230043331B785A1E93412268B4
:10A45000920630D42200019943320098089EB047FA
:10A46000431C25D0062320682A68E16803400025A4
:10A47000042B03D18D1AEB43DB171D40A36822691F
:10A48000934201DD9B1AED180027BD4220D1002028
:10A4900010E00137E3682A689B1ABB42D2DD220034
:10A4A0000123193201990098089EB047431CF0D14E
:10A4B00001204042FEBD3020E118433108702100E8
:10A4C0005A1C45310978A218433202331170C1E792
:10A4D000220001231A3201990098089EB047431CBC
:10A4E000E6D00137D1E70000F0B589B004920A0048
:10A4F00043320593039002920A7E0C000E9B6E2A53
:10A5000000D186E01FD8632A33D008D8002A00D1B2
:10A510008CE0582A4DD0250042352A7030E0642A5C
:10A5200001D0692AF7D1196825680A1D280629D59E
:10A5300008681A60002803DA2D23029A404213703B
:10A540006B4E0A274FE0732A74D008D86F2A1FD0A9
:10A55000702AE0D1202209680A43226003E0752AAC
:10A5600016D0782AD7D12200782145321170614E59
:10A5700022E025001A684235111D196013682B70FE
:10A58000012365E008681A606906D3D500B2D1E7F7
:10A5900019682568081D186008682E0605D5544EF0
:10A5A00008276F2A1BD00A2719E06D06F7D580B25D
:10A5B000F5E745314E4E0A7018682268011D0068A3
:10A5C0001960150621D5D30702D520231A4322602E
:10A5D0001027002803D1202322689A4322602300F9
:10A5E000002243331A706368A360002B58DB0422F7
:10A5F000216891432160002854D1029D002B5AD03C
:10A600002500337842352B7055E05506DBD580B2F6
:10A61000D9E71A680D68101D4969186013682E067D
:10A6200001D5196002E06D06FBD519800023029D5B
:10A6300023614FE01A68111D1960156800216268D6
:10A64000280000F059F8002801D0401B60606368C2
:10A6500023610023029A13703CE023692A000499C5
:10A660000398059DA847431C3ED023689B0715D43B
:10A67000079BE068984239DA180037E0220001238E
:10A68000193204990398059EB047431C2CD001351C
:10A69000E368079A9B1AAB42F0DCE9E70025F7E78D
:10A6A0000028ADD0029D3900FCF784FB735C013DAE
:10A6B0002B700028F7D1082F09D12368DB0706D5B6
:10A6C00063682269934202DC3023013D2B70029BB8
:10A6D0005B1B2361059B07AA00932100049B039841
:10A6E000FFF794FE431CB8D10120404209B0F0BDF1
:10A6F00045B2000056B20000C9B28218904201D1A2
:10A700000020704703788B42FBD00130F6E710B58C
:10A71000884202D98B18984203D3002307E08B5C50
:10A720008354013AFBD210BDCC5CC45401339A422D
:10A73000FAD1F8E770B50500002910D00C1F236886
:10A74000002B00DAE418280000F0D4F81D4A136842
:10A75000002B05D163601460280000F0CCF870BDB8
:10A76000A34209D9216860188342F3D118685B6855
:10A7700041182160EEE713005A68002A01D0A24276
:10A78000F9D919685818A0420BD12068091858182F
:10A7900019608242E0D110685268411819605A600D
:10A7A000DAE7A04202D90C232B60D5E721686018B4
:10A7B000824203D1106852684118216062605C6077
:10A7C000CAE7C04694040020032370B5CD1C9D4306
:10A7D000083506000C2D1ED20C25A9421DD83000CC
:10A7E00000F088F8254A14682100002919D1244C6A
:10A7F0002368002B03D1300000F06AF820602900A4
:10A80000300000F065F8431C2BD10C23300033607E
:10A8100000F071F803E0002DDFDA0C233360002034
:10A8200070BD0B685B1B19D40B2B03D90B60CC18C4
:10A83000256003E04B688C420DD11360300000F0BE
:10A840005AF8200007220B30231D9043C31AE7D08B
:10A850005A42E250E4E763600C00EFE70C004968FD
:10A86000C3E70323C41C9C43A042E1D0211A30005B
:10A8700000F02EF8431CDBD1C7E7C046940400204B
:10A8800098040020F8B507000D001600002905D136
:10A890001100FFF799FF04002000F8BD002A03D142
:10A8A000FFF748FF3400F7E700F026F82C00B0422D
:10A8B000F2D231003800FFF787FF041EECD02900E8
:10A8C0003200FFF711FC29003800FFF733FFE3E700
:10A8D000002370B5064C05000800236000F014F852
:10A8E000431C03D12368002B00D02B6070BDC046F1
:10A8F000B0040020704770470B1F1B68181F002B07
:10A9000001DA0B58C0187047044A1368002B00D1B5
:10A91000034B1818106018007047C0469C040020B4
:10A92000B8040020147600001675000016750000AB
:10A930003478000010750000107500001C780000CD
:10A9400034780000107500001C78000010750000BD
:10A95000347800002A7800002A7800002A78000065
:10A9600038780000B6810000B6810000BA8100008E
:10A97000BA810000C2810000C28100000060064070
:10A9800000700640BDF8C8EB55736572B5C46D61C3
:10A99000696E2E2E2E0A00004C4344B3F5CABCBB90
:10A9A000AF2E2E2E00000000B3C9B9A60A00000089
:10A9B000BDF0BAF9C2ABCCE1CABEA3BA4C4344C69F
:10A9C000C1C4BBB0E6C3E62E2E2E000041484C2D7C
:10A9D0004D43552D4B4C33360000000048617264E6
:10A9E000776172652D546573740000004D43555FA7
:10A9F000546D703A00000000526F756E645F546DC4
:10AA0000703A00004272696768746E6573733A0049
:10AA10004D61676E657469736D3A00005472692DFB
:10AA2000636F6C6F75726564206C696768743A0057
:10AA3000CDEAB3C90A000000CAE4B3F678B7BDCFC7
:10AA4000F2C7E3BDC73A25640D0A0D0A00000000F5
:10AA5000CAE4B3F679B7BDCFF2C7E3BDC73A256400
:10AA60000D0A0D0A00000000CAE4B3F67AB7BDCFA4
:10AA7000F2C7E3BDC73A25640A0D0A0D0A000000BB
:10AA80002564000000F00F4040F00F4080F00F40C0
:10AA9000C0F00F4000F10F400090044000A00440BF
:10AAA00000B0044000C0044000D0044000600640F4
:10AAB0000070064030313233343536373839414250
:10AAC00043444546323032303037313600000000E2
:10AAD0002020A1BE55736572CCE1CABEA1BFA3BA46
:10AAE000BDABBDF8C8EB55736572B5C46D61696ED9
:10AAF0002829D6B4D0D02E2E2E0D0A0000B0064044
:10AB000000C00640BDF0800080004001200210041B
:10AB1000080AF47783208000F80F800088089004EA
:10AB2000A012FE3F0000BAF920022022FF7F20027F
:10AB3000103E9022FE23103E5022FC22443E44222E
:10AB400044227C2244298010C2AB10041024FF7FD1
:10AB500010048010FC3F04100410FC1F04100400BB
:10AB600004000400020002000100000000000000D8
:10AB70000000000000000000000000000000183C81
:10AB80003C3C1818180018180000000000666666A3
:10AB9000240000000000000000000000000000365B
:10ABA000367F3636367F36360000000018183E6392
:10ABB00043033E6061633E1818000000000000007F
:10ABC000436330180C0663610000000000001C366F
:10ABD000361C6E3B3333336E00000000000C0C0C4F
:10ABE0000600000000000000000000000000301817
:10ABF0000C0C0C0C0C0C18300000000000000C18A1
:10AC0000303030303030180C000000000000000000
:10AC100000663CFF3C6600000000000000000000F1
:10AC20000018187E18180000000000000000000046
:10AC300000000000001818180C00000000000000C0
:10AC40000000007F00000000000000000000000085
:10AC500000000000000018180000000000000000C4
:10AC6000406030180C0603010000000000003E6345
:10AC700063736B6B6763633E000000000000181C89
:10AC80001E1818181818187E0000000000003E63F7
:10AC90006030180C0603637F0000000000003E6374
:10ACA00060603C606060633E00000000000030387F
:10ACB0003C36337F303030780000000000007F03E6
:10ACC00003033F706060633E0000000000001C064C
:10ACD00003033F636363633E0000000000007F6383
:10ACE000606030180C0C0C0C0000000000003E638B
:10ACF00063633E636363633E0000000000003E63E5
:10AD000063637E606060301E000000000000000091
:10AD100018180000001818000000000000000000D3
:10AD2000181800000018180C000000000000006057
:10AD300030180C060C183060000000000000000005
:10AD400000007F00007F00000000000000000006FF
:10AD50000C18306030180C060000000000003E6344
:10AD60006330181818001818000000000000003E9A
:10AD700063637B7B7B3B033E000000000000081CFC
:10AD80003663637F636363630000000000003F6617
:10AD900066663E666666663F0000000000003C6630
:10ADA000430303030343663C0000000000001F361A
:10ADB000666666666666361F0000000000007F66F5
:10ADC00046161E160646667F0000000000007F66DD
:10ADD00046161E160606060F0000000000003C6620
:10ADE0004303037B6363665C000000000000636351
:10ADF00063637F63636363630000000000003C18CB
:10AE0000181818181818183C0000000000007830B6
:10AE1000303030303333331E0000000000006766EE
:10AE200036361E1E366666670000000000000F06FC
:10AE3000060606060646667F0000000000006377EF
:10AE40007F7F6B63636363630000000000006367E0
:10AE50006F7F7B73636363630000000000001C3638
:10AE6000636363636363361C0000000000003F6699
:10AE700066663E060606060F0000000000003E6300
:10AE800063636363636B7B3E3070000000003F666A
:10AE900066663E36666666670000000000003E6338
:10AEA00063061C306063633E0000000000007E7E8D
:10AEB0005A1818181818183C0000000000006363A6
:10AEC000636363636363633E0000000000006363C9
:10AED0006363636363361C08000000000000636363
:10AEE0006363636B6B7F36360000000000006363B2
:10AEF00036361C1C363663630000000000006666B0
:10AF000066663C181818183C0000000000007F63BB
:10AF10006130180C0643637F0000000000003C0C09
:10AF20000C0C0C0C0C0C0C3C000000000000000190
:10AF300003070E1C387060400000000000003C3029
:10AF4000303030303030303C00000000081C3663B8
:10AF500000000000000000000000000000000000F1
:10AF6000000000000000000000FF00000C0C1800B2
:10AF700000000000000000000000000000000000D1
:10AF8000001E303E3333336E000000000000070621
:10AF9000061E36666666663B000000000000000084
:10AFA000003E63030303633E0000000000003830EE
:10AFB000303C36333333336E0000000000000000B5
:10AFC000003E637F0303633E0000000000001C3668
:10AFD00026060F060606060F00000000000000000F
:10AFE000006E33333333333E30331E000000070628
:10AFF00006366E6666666667000000000000181878
:10B00000001C18181818183C0000000000006060B0
:10B01000007060606060606066663C00000007066B
:10B020000666361E1E3666670000000000001C180B
:10B03000181818181818183C00000000000000002C
:10B0400000377F6B6B6B6B6B000000000000000033
:10B05000003B666666666666000000000000000051
:10B06000003E63636363633E000000000000000075
:10B07000003B66666666663E06060F00000000003E
:10B08000006E33333333333E30307800000000003D
:10B09000003B6E460606060F0000000000000000A0
:10B0A000003E63061C30633E000000000000080CF8
:10B0B0000C3F0C0C0C0C6C38000000000000000071
:10B0C000003333333333336E0000000000000000E0
:10B0D0000066666666663C1800000000000000001E
:10B0E000006363636B6B7F360000000000000000AC
:10B0F0000063361C1C1C36630000000000000000CA
:10B10000006363636363637E60301F0000000000C0
:10B11000007F33180C06637F0000000000007018E9
:10B1200018180E18181818700000000000001818E1
:10B1300018180018181818180000000000000E1841
:10B14000181870181818180E0000000000006E3B48
:10B1500000000000000000000000000000000000EF
:10B16000081C366363637F0000000000F09B000052
:10B17000089C0000089C0000FC9B0000089C00004C
:10B18000089C0000089C0000089C0000089C00002F
:10B19000089C0000089C0000EA9B0000089C00003E
:10B1A000CA9B0000089C0000089C0000F69B000061
:10B1B0007A9E0000A2A00000A2A00000A2A00000B1
:10B1C000A2A00000A2A00000A2A00000A2A0000077
:10B1D000A2A00000A2A00000769F000000A0000036
:10B1E000BC9C0000A2A00000809D0000A2A0000066
:10B1F000A2A00000BC9C0000A2A00000A2A0000031
:10B20000A2A00000A2A0000092A00000449F0000A5
:10B21000909F0000A2A00000A2A0000014A00000C7
:10B22000A2A00000AA9F0000A2A00000A2A000000F
:10B230007A9E0000232D302B2000686C4C00656640
:10B240006745464700303132333435363738394177
:10B25000424344454600303132333435363738398D
:10B260006162636465660000F8B5C046F8BC08BC5E
:10B270009E467047F8B5C046F8BC08BC9E4670476D
:08B2800048BEFF7F0100000041
:04B28800396C00001D
:04B28C00116C000041
:10B29000006CDC02008003400090034000A00340EB
:10B2A0000C0D0E001804002000000000000000003B
:10B2B000000000000000000000000000000000008E
:10B2C000000000000000000000000000000000007E
:10B2D000000000000000000000000000000000006E
:10B2E000000000000000000000000000000000005E
:10B2F000000000000000000000000000000000004E
:08B30000000000000000000045
:0400000300006C5934
:00000001FF
