:1068000000180020596C0000A16C0000A16C000071
:106810000000000000000000000000000000000078
:10682000000000000000000000000000A16C00005B
:106830000000000000000000A16C0000A16C00003E
:10684000A16C0000A16C0000A16C0000A16C000014
:10685000A16C0000A16C0000A16C0000A16C000004
:10686000A16C0000A16C0000A16C0000A16C0000F4
:10687000D1B40000A16C0000A16C0000A16C00006C
:10688000A16C0000A16C0000F9B40000A16C000034
:10689000A16C0000A16C0000A16C0000A16C0000C4
:1068A000A16C0000A16C0000A16C0000A16C0000B4
:1068B000A16C0000A16C0000A16C0000A16C0000A4
:106C0000FFFFFFFFFFFFFFFFFFFFFFFFFEFFFFFF95
:106C100010B5064C2378002B07D1054B002B02D072
:106C2000044800E000BF0123237010BD9004002041
:106C3000000000008CCC0000044B10B5002B03D0EA
:106C40000349044800E000BF10BDC046000000003A
:106C5000940400208CCC000072B603F009F862B6F0
:106C60000A490B4A0B4B9B1A03DD043BC858D05012
:106C7000FBDC0949094A521A03DD00208850043A16
:106C8000FCDA03F065FF03F0AFF90000B4CC0000BC
:106C9000000400209004002090040020B80400208C
:106CA00000B5C04600BDC046002243088B4274D3E5
:106CB00003098B425FD3030A8B4244D3030B8B42FD
:106CC00028D3030C8B420DD3FF22090212BA030C06
:106CD0008B4202D31212090265D0030B8B4219D3E7
:106CE00000E0090AC30B8B4201D3CB03C01A524107
:106CF000830B8B4201D38B03C01A5241430B8B424F
:106D000001D34B03C01A5241030B8B4201D30B0337
:106D1000C01A5241C30A8B4201D3CB02C01A52415E
:106D2000830A8B4201D38B02C01A5241430A8B4221
:106D300001D34B02C01A5241030A8B4201D30B020A
:106D4000C01A5241CDD2C3098B4201D3CB01C01A24
:106D5000524183098B4201D38B01C01A524143092E
:106D60008B4201D34B01C01A524103098B4201D31C
:106D70000B01C01A5241C3088B4201D3CB00C01A89
:106D8000524183088B4201D38B00C01A5241430801
:106D90008B4201D34B00C01A5241411A00D2014626
:106DA000524110467047FFE701B5002000F0F0F8AF
:106DB00002BDC0460029F7D076E7704703460B4373
:106DC0007FD4002243088B4274D303098B425FD3E4
:106DD000030A8B4244D3030B8B4228D3030C8B4210
:106DE0000DD3FF22090212BA030C8B4202D31212F6
:106DF000090265D0030B8B4219D300E0090AC30BCB
:106E00008B4201D3CB03C01A5241830B8B4201D377
:106E10008B03C01A5241430B8B4201D34B03C01A60
:106E20005241030B8B4201D30B03C01A5241C30AD8
:106E30008B4201D3CB02C01A5241830A8B4201D349
:106E40008B02C01A5241430A8B4201D34B02C01A33
:106E50005241030A8B4201D30B02C01A5241CDD2D8
:106E6000C3098B4201D3CB01C01A524183098B4223
:106E700001D38B01C01A524143098B4201D34B010C
:106E8000C01A524103098B4201D30B01C01A52416F
:106E9000C3088B4201D3CB00C01A524183088B42F6
:106EA00001D38B00C01A524143088B4201D34B00DF
:106EB000C01A5241411A00D2014652411046704751
:106EC0005DE0CA0F00D04942031000D34042534056
:106ED00000229C4603098B422DD3030A8B4212D316
:106EE000FC22890112BA030A8B420CD38901921148
:106EF0008B4208D3890192118B4204D389013AD085
:106F0000921100E08909C3098B4201D3CB01C01A59
:106F1000524183098B4201D38B01C01A524143096C
:106F20008B4201D34B01C01A524103098B4201D35A
:106F30000B01C01A5241C3088B4201D3CB00C01AC7
:106F4000524183088B4201D38B00C01A5241D9D2DF
:106F500043088B4201D34B00C01A5241411A00D260
:106F60000146634652415B10104601D34042002B5C
:106F700000D54942704763465B1000D3404201B5DB
:106F8000002000F005F802BD0029F8D016E7704790
:106F90007047C0468446101C62468C46191C6346E6
:106FA00000E0C0461FB501F0C1FD002801D400215A
:106FB000C8421FBD10B501F019FD4042013010BD9F
:106FC00010B501F0B3FD002801DB002010BD012049
:106FD00010BDC04610B501F0A9FD002801DD00205C
:106FE00010BD012010BDC04610B501F03BFD0028CA
:106FF00001DC002010BD012010BDC04610B501F01D
:1070000031FD002801DA002010BD012010BDC0466E
:107010008446081C6146FFE71FB500F0D9FA002836
:1070200001D40021C8421FBD10B500F05BFA4042F8
:10703000013010BD10B500F0CBFA002801DB0020B4
:1070400010BD012010BDC04610B500F0C1FA0028E7
:1070500001DD002010BD012010BDC04610B500F0BC
:1070600069FA002801DC002010BD012010BDC046D7
:1070700010B500F05FFA002801DA002010BD0120F1
:1070800010BDC046002B11D1002A0FD1002900D11C
:10709000002802D00021C943081C07B4024802A1FD
:1070A0004018029003BDC046E9FEFFFF03B46846E6
:1070B00001B5029800F042F8019B9E4602B00CBC5C
:1070C0007047C04670B500220C4B04000D00FFF75E
:1070D00095FF002804D12000290002F065FB70BD57
:1070E000064B00222000290001F0FAFF02F05CFBB1
:1070F00080231B069C466044F1E7C0460000E04147
:1071000070B500220B4B0D00040001F077FDFFF776
:10711000D9FF060002F0B8FB0022074B01F06EFD1C
:1071200002000B002000290001F0DAFFFFF7CAFF80
:10713000310070BD0000F03D0000F041F0B54F4659
:107140004646D646C0B5040082B00D00914698462A
:107150008B422FD82CD04146484602F0BBFC290078
:107160000600200002F0B6FC331A9C46203B9A46EB
:1071700000D576E04B46524693401F004B46624690
:1071800093401E00AF4228D825D05346A41BBD41D2
:10719000002B00DA7BE00022002300920193012300
:1071A000524693400193012362469340009318E0B6
:1071B0008242D0D900220023009201930A9B002B27
:1071C00001D01C605D600098019902B01CBC904623
:1071D0009946A246F0BDA342D7D9002200230092CF
:1071E00001936346002BE9D0FB079846414672089D
:1071F0000A437B0866460EE0AB4201D1A2420CD89E
:10720000A41A9D41012024196D410021013E24183A
:107210004D41002E06D0AB42EED9013E24196D41FE
:10722000002EF8D100980199534600196941002BAE
:1072300023DB2B005246D3402A006446E2401C0068
:1072400053461500002B2DDB26005746BE40330069
:1072500026006746BE403200801A99410090019195
:10726000ACE7624620239B1A4A46DA406146130087
:1072700042468A4017001F4380E7624620239B1A3C
:107280002A0066469A402300F3401343D4E762463F
:10729000202300219B1A0022009101920122DA4052
:1072A000019280E72023624626009B1ADE402F00D1
:1072B000B0466646B74046463B003343C8E7C04643
:1072C000F8B557464E464546DE464402E0B5460010
:1072D0008846640A360EC70F002E63D0FF2E24D0D6
:1072E0008023E400DB041C43002399469B467F3E39
:1072F000434642465D02D20F5B006D0A1B0E90466C
:10730000924665D0FF2B55D080220021ED00D2049B
:107310007F3B1543F61A43464A467B400F2A00D965
:107320008DE06D48920082589746002C54D1082376
:107330009946063BFF269B46DAE70025534602297D
:107340001BD0032900D1BFE0012928D030007F30B5
:10735000002820DD6A0704D00F222A40042A00D02A
:1073600004352A0103D530005C4A80301540FE28E0
:1073700003DCAC01640AC2B201E0FF220024640213
:10738000D205600ADB07104318433CBC904699467F
:10739000A246AB46F8BD0122101A1B287CDD002254
:1073A0000024ECE7002C1DD104239946033B002662
:1073B0009B469DE7FF3E002D20D1022143464A46D1
:1073C0007B400A430F2AD8D84548920082589746F6
:1073D000002D19D10121F1E70C239946093BFF2625
:1073E0009B4685E7200002F057FB7626431F9C4012
:1073F00000237642361A99469B4679E74A4603238C
:107400001A439146032186E7280002F045FB431FFB
:1074100036189D40763600217DE780240023E40362
:10742000FF22ACE700258023DB031C4228D01D424D
:1074300026D12B435C02640A4346FF229FE7620188
:107440006C01A24224D21B210025013E012710001D
:107450006D005200002801DB944201D8121B3D430D
:1074600001390029F3D11400621E944125436DE7D0
:10747000BA46594625005346022900D061E77CE709
:107480008023DB031C436402640A3B00FF2276E78F
:10749000121B1A210125D9E79E362A00B5402C007F
:1074A000C240651EAC411443620704D00F22224043
:1074B000042A00D00434620103D4A401640A002227
:1074C0005DE7012200245AE78024E4032C43640290
:1074D000640AFF2253E7C04604C20000FFFFFFF723
:1074E00044C2000070B542004E024C0045026D0AD5
:1074F000120EC30F760A240EC90FFF2A0FD0FF2CDD
:1075000011D00120A24200D070BDB542FCD18B4207
:107510000DD0002AF8D12800451EA841F4E701202B
:10752000002DF1D1EBE70120002EEDD1E9E700209D
:10753000EAE7C04670B54A004E02450244006D0AB3
:10754000240EC30F760A120EC90FFF2C15D0FF2A86
:107550000ED0002C15D1002A01D1002E1CD0002DF8
:1075600014D08B4227D00220013B1840013870BD57
:10757000002EEED002204042F9E7002DFAD1FF2A7A
:107580000ED0002A0ED1002EEDD00BE001230139E0
:10759000994308000130EAE70020002DE7D0E2E738
:1075A000002EE7D18B42DED1944205DD0221581E28
:1075B00008400138DBE70024A24204DCB542D2D8FF
:1075C0000020B542D3D2581E012398430130CEE7A4
:1075D00030B5420044024D02C30F4800640A120E47
:1075E0006D0A000EC90FFF2A12D0FF280CD0002A06
:1075F00012D1002819D1002D17D1002C2BD0022038
:10760000013B1840013826E0002DF0D0022022E096
:10761000002CFBD1FF281FD000281FD1002D1DD129
:107620000220013B1840013815E0002C0ED08B429F
:10763000E5D10022904204DCAC42E0D80020AC420C
:1076400009D2581E01239843013004E00123013977
:1076500099430800013030BD002DD7D18B42CED1E7
:107660008242E7DD0221581E08400138F3E7C04698
:10767000F0B54E4657464546DE46E0B543025B0A46
:10768000450083B00F1C99462D0EC60F002D57D014
:10769000FF2D24D08020DB00C00418430023814646
:1076A0009A469B467F3D7C027A00FB0F640A120ECD
:1076B000984623D0FF2A4BD0E30080240020E40426
:1076C0007F3A1C43AD186B1C4746019353467740E5
:1076D0003A000F2B48D87D499B00CB589F46002B82
:1076E00000D085E008339A46063B9B467C027A0030
:1076F000FB0FFF25640A120E9846DBD1002C00D048
:1077000090E0524601231A4392460120DBE74C46A3
:1077100058461700022824D0032800D1CFE00022C9
:10772000002301284DD15802D205400AFF0710431B
:10773000384303B03CBC90469946A246AB46F0BDE8
:10774000002B5BD104239A46033B00259B46AAE706
:10775000FF35002C60D1524602231A439246022084
:10776000B1E7FF220023DEE74B461B0C9C464B464D
:107770002604360C180461463300220C6446000CC3
:1077800043434E435043544380191A0C12189642F7
:1077900003D9802149028C4664441B041B0C10044D
:1077A000C01883015E1EB341800E1843130C1B19D1
:1077B0009B0103431C00230179D5012362081C406F
:1077C0001443019A7F32002A4DDD630704D00F2352
:1077D0002340042B00D00434230103D53C4B019AF1
:1077E0001C408032FE2ABCDCA3015B0AD2B29AE7BD
:1077F0000C239A46093BFF259B4654E7180002F0EC
:107800004BF94A46431F76259A4000236D42914624
:107810002D1A9A469B4646E7524603231A43924640
:10782000032050E7200002F037F9431F2D1A9C4037
:10783000763D002047E780230027DB03FF2272E725
:10784000424666E74C463200584662E780234A4685
:10785000DB031A4222D01C4220D123435B025B0A85
:107860004746FF225FE701239A1A1B2A21DC2300E7
:107870000199D3409E318C401A0023005C1EA34125
:1078800013435A0704D00F221A40042A00D00433AD
:107890005A0111D49B015B0A002244E780234A4627
:1078A000DB0313435B025B0A3700FF223BE70195D2
:1078B00087E70022002336E70122002333E78023F5
:1078C000DB0323435B025B0AFF222CE784C2000038
:1078D000FFFFFFF7F8B54746CE464400C20F80B51C
:1078E00047024802400A8446664648007F0A240E42
:1078F000F60025009046FB00000EC90FB146FF2898
:1079000000D185E001267140261A914257D0002E01
:1079100043DD002800D07FE04946002900D1AAE0DD
:10792000013E002E00D0F7E05B1A5A0100D48BE034
:107930009B019C09200002F0AFF805388440854285
:1079400000DDD3E0451B230020200135EB40451B23
:10795000AC40621E94412343072400251C400122B1
:1079600041460A40002C04D00F211940042900D0C0
:107970000433590100D480E00135ECB2FF2D00D072
:10798000A3E0FF2400235B02E405580AD20720434A
:1079900010430CBC90469946F8BD002E74D1601C73
:1079A000C0B2012800DCA7E04A469C1A620100D55B
:1079B000B6E0002CBED1002200240023E3E7002E15
:1079C00000DC85E0002846D0FF2C49D080224846C4
:1079D000D2041043814601221B2E09DC20204C4694
:1079E000801B84404A462000F240441EA0410243CE
:1079F0009B185A0128D50135FF2D00D1A8E001229E
:107A0000072494491A405B080B4013431C40A6E727
:107A1000002E00D078E775E7FF2C54D0802249462D
:107A2000D2041143894601221B2E09DC202148463D
:107A3000891B88404A460100F240481E81410A43A2
:107A40009B1A5A0100D573E7012241460A405907A3
:107A500000D089E711E04846002858D1FF2C0CD10E
:107A6000DB08002B00D18CE78020C00303435B02BE
:107A70005B0AFF2487E7FF2C25D0DB08FF2DF0D021
:107A80005B025B0AECB27EE7002C4DD0FF2818D0D9
:107A90008024E404724223431B2A00DDC4E01C005E
:107AA0002025D440AA1A93405A1E934123434A46A4
:107AB0000500D31A884638E7721CF8D0F243FF2835
:107AC000EAD10A004B46FF25D7E79B015B0A5AE73C
:107AD000002E41D1651CE9B2012945DDFF2D00D101
:107AE0004FE707244B445B081C4038E707225A4BFA
:107AF0002D1A2340144032E7002C1DD1002B7AD1DF
:107B00004B46002B00D191E00A000025B5E7013E6D
:107B1000002E19D14B446CE7FF2C84D1FF25ACE734
:107B20004A468846D41A05E7002BC5D10A00FF282B
:107B3000C8D005004B46A0E7002B49D14B46002B8F
:107B400077D00A00FF2598E7FF2C00D043E787E7AE
:107B50000A00FF24002316E7002C15D1002B57D173
:107B6000FF28E6D14B467BE7002C20D1002B57D0D5
:107B70004946002953D04B445A0168D50724364A58
:107B80001C4001251340EAE6FF28EBD08022D204F6
:107B9000764213431B2E53DC2025AD1B1A00AB404D
:107BA000F2405C1EA34113434B44050021E7002B28
:107BB000D8D04946002900D152E78021C9030F429D
:107BC00000D14DE76046084200D049E74B4647E701
:107BD0004846FF25002800D14FE78022D2031742F4
:107BE00004D06046104201D14B46884601224146EE
:107BF000FF250A4041E7484600281FD01A1A5001C5
:107C000020D54A460724D31A1C4088460025A6E6FC
:107C1000741CC9D0F643FF28BCD14B4620E79946D7
:107C20004B460025DB082BE7012340E70022002319
:107C3000A9E680230022DB03FF24A4E600251CE73D
:107C40000123B1E7002AF1D013000025FCE600254E
:107C5000FAE6C046FFFFFF7DFFFFFFFB4102420047
:107C6000C30F490A120E00207E2A0DD99D2A0CD876
:107C7000802000040143952A0ADC9620821AD14014
:107C80004842002B00D108007047034A9818FBE7D0
:107C9000963A9140F4E7C046FFFFFF7F70B5002899
:107CA0003DD0C317C5185D40C40F280001F0F4FE95
:107CB0009E22121A962A07DCD2B2082833DD083831
:107CC00085406802400A23E0992A0BDD052329003C
:107CD0001B1AD94003001B339D402B005D1EAB4196
:107CE00019430D00052801DD431F9D402B000F495E
:107CF0000B406E0709D00F263540042D05D0043304
:107D00005D0102D59F220B40121A9B01580AD2B284
:107D10004002D205400AE4071043204370BD00240E
:107D200000220020F4E76802400AF1E7FFFFFFFBB2
:107D300070B5041E34D001F0AFFE9E22121A962AAE
:107D400007DCD2B208282EDD083884406002400AE1
:107D500021E0992A09DD030021001B3399404B1EC5
:107D6000994105231B1ADC400C43052801DD431F04
:107D70009C4023000D490B40650709D00F252C407E
:107D8000042C05D004335C0102D59F220B40121A4B
:107D90009B01580AD2B24002D205400A104370BD7E
:107DA00000220020F7E76002400AF4E7FFFFFFFB34
:107DB000F0B54F464646D6460C000903C0B5490A01
:107DC000470F5E0039431F03DB0F9C4665007B0AAB
:107DD000570F1F436D0DE40F760DA146C000B84646
:107DE000D200AB1B64457BD0002B5FDD002E00D0A2
:107DF000A4E03E00164300D112E15E1E002E00D02A
:107E00009EE1871A4346B84280410125C91A404283
:107E1000091A0B0200D431E149024E0A002E00D1AA
:107E20006EE1300001F038FE0300083B1F2B00DD3F
:107E300061E120223900D21A9E40D1409F400E437A
:107E40009D4200DD51E15D1B6B1C1F2B00DD7CE1C1
:107E50002021C91A3D0030008F408840DD40791E46
:107E60008F41310007222843D940002507433A407B
:107E7000002A09D00F233B40042B05D03B1DBB42F9
:107E8000BF417F42C9191F000B0200D426E26A1CC1
:107E9000C64B55056D0D9A4200D106E1C44AFF0854
:107EA0000A40530752023B43120B8EE0002B00D0D6
:107EB000B8E06B1C5B055B0D012B00DC30E1871A21
:107EC0004346B842B641CB1A76429E1B330200D5D8
:107ED0004CE13B003343A1D100220024002570E097
:107EE000002B00DCE5E0002E00D183E0AF4EB54270
:107EF00060D0802636043743B846382B00DC3EE19C
:107F0000434613431F007A1E97413F188742804122
:107F1000404209180B0200D4B0E0A44B01359D4249
:107F200000D1C3E0A24A7B080A4001210F401F4351
:107F30005108D30707221F433A4099E79B4EB542A9
:107F400038D0802636043743B846382B00DDDCE0D5
:107F50001F2B00DC30E11E004746203EF740BC46A8
:107F6000202B04D04026F31A46469E403243170089
:107F700063467A1E97411F43CCE0002B00D104E2F8
:107F80004346134300D159E14B07C00818438023EF
:107F9000C9081B03194208D04546ED081D4204D10B
:107FA0004346D008590708432900420FC9007F4DB6
:107FB0001143C0004B07CA087C49C00803438D42E7
:107FC00068D012036D05120B6D0D0021120318000D
:107FD000130B0A0D12051A43764B2D0513402B4344
:107FE0005B00E4075B08234319001CBC90469946DC
:107FF000A246F0BD3E00164312D05E1E002E00D0F9
:1080000000E1871887428041414440420918012518
:108010000B0233D5022585E7644633004146100044
:108020001D00C7E7002D00D0DAE00C000443F3D0B8
:108030005C1C00D19FE15D4CA64200D12FE1DB43E7
:10804000382B00DD66E11F2B00DD83E120240500D5
:10805000E41A0F00DD40D940A0404346A7405B1A18
:10806000441EA04198462F433843171ABA42924102
:1080700043465242991A64463500CAE607223A40FE
:10808000002A00D0F6E64B07CA084849FF083B43E0
:108090008D4296D11900114300D19EE18021090340
:1080A0000A431203120B414D8FE7150000220023F3
:1080B0008BE7002B00D0C7E06B1C5F057F0D012F05
:1080C00000DCF1E0394DAB4200D1B9E085180A007F
:1080D000854289414244494251180722CF076D0821
:1080E0002F4349083A401D00C2E607223049ED1AE5
:1080F00031403A40BCE63E002838864000279FE6E3
:10810000380001F0C9FC20308EE6434613431F00BF
:108110007A1E9741C71BB84280414042091A78E64F
:108120000E003B0006431343002D61D1002E00D00A
:10813000F4E0002B00D11BE164463900100039E760
:108140001A4FBB427AD03300FFE630001F3DE840B3
:10815000202B03D04021CB1A9E4037437B1E9F41EA
:10816000072207433A400021002589E7171A4346B2
:10817000BA42B641591A76428E1B64464EE61F2B10
:1081800000DDADE020264746F61AB740B946170095
:10819000B246DF404E463E4337005646B240561E7A
:1081A000B24117434246DA408918AEE6FF070000A5
:1081B000FFFF7FFFFFFF0F8020264746F61AB740DC
:1081C000B9461700B246DF404E463E43370056469A
:1081D000B240561EB24117434246DA40891A99E727
:1081E0007F4CA6425BD0802424045B42214327E7D6
:1081F000002E0CD1002B00D1CBE0644639001000DA
:10820000774DD7E6764FBB4218D0330075E6002B8A
:1082100014D04B07C00818438023C9081B03194218
:1082200007D0FC081C4204D17907D0080843E14676
:1082300021004C46420FC9001143C000684DB9E609
:108240001D0000220023C0E6002D5BD10D00054378
:1082500000D1E2E65D1C00D1B0E0614DAE421FD01E
:10826000DB43382B71DC1F2B00DD96E020250F004F
:10827000ED1AAF40B9460700AA46DF404D463D43E0
:108280002F005546A840D940451EA84188440743C1
:10829000BF18974292415142414435003AE6644644
:1082A00035004146100085E60B000343002D00D049
:1082B00063E6002BF5D04346134300D17AE68718D6
:1082C0008742804107224144404209183A400B024C
:1082D00000D4D5E6434B01351940C9E5380069E6BD
:1082E0001E004746203EF740BC46202B04D04026C7
:1082F000F31A46469E403243170063467A1E974162
:108300001F4302E6364DAE42CAD080252D045B42A3
:108310002943A6E70843411E8841A6E6002B00D169
:1083200048E6871A4346B842B641CB1A76429E1BAE
:1083300033024BD5171A4346BA429241591A524258
:10834000891A072264463A4092E501430F00791EDC
:108350008F419DE71C000F00203CE740202B03D0FD
:108360004024E31A99400843411E884138437CE683
:108370000022002425E6171A4346BA429241591AB0
:108380005242891A6446350043E541461000144DB7
:1083900010E680220024120380E61D000F00203D1D
:1083A000EF40BC46202B03D04025EB1A99400843F0
:1083B00007006346781E87411F4369E78718974285
:1083C0009B4141445B42C9183500A3E53B00334360
:1083D000CED0072231003A4052E600231A00F4E5DD
:1083E000FF070000FFFF7FFFF0B55746DE464E4611
:1083F0004546E0B5834607000E03480085B0924627
:108400001C00360B400DCD0F002800D19DE0954B90
:10841000984239D08023F6001B041E43924A7B0FFA
:108420003343994694460300634400930023002697
:10843000FF00029323031B0B98466300E40F524690
:108440005B0D019400D1B3E086498B4200D19EE0E0
:108450004246D100802212040A435146490F11437B
:108460008B46814952468C4600996344CB1A0021C1
:10847000D20000932B0063409A460F2E00D905E1ED
:108480007A4BB6009B599F465B463343994600D0D2
:10849000B8E002230826002700900293CAE7CB46E3
:1084A0003A0002990195019B9A46022927D0032997
:1084B00000D180E2012944D06D49009B8C46634481
:1084C0001C00002C38DD530700D013E2D2085B46B5
:1084D000DB0109D55946674B19408B468021C900FD
:1084E0008C46009B63441C00634B9C4207DC5B464C
:1084F00064055F075B0217431B0B620D02E000235C
:108500000027584A00211B031C0B0B0D1B0523439E
:1085100014055A4A380013401C4353466400DB07D5
:1085200064081C43210005B03CBC90469946A24615
:10853000AB46F0BD0122524201231B1B382B00DC4D
:10854000ADE1002200230027DCE75B463343994678
:108550005ED0002E00D18AE1300001F09DFA0300C8
:108560000B3B1C2B00DD7BE11D22D31A5A46010078
:10857000DA4008398E4013005F46334399468F40F6
:108580003F4B00261B1A00930023029352E74146FB
:1085900053460B433B499B468C46009B63440093E8
:1085A0005B46002B3BD1022300221E43022161E7E0
:1085B000434613439B4637D04346002B00D162E12C
:1085C000404601F069FA03000B3B1C2B00DD53E130
:1085D00002004146083A914088461D21CB1A514677
:1085E000D9400B0041460B439B46534693401A002B
:1085F000009B25499C46604403008C4663440093DD
:10860000002137E70323B14600900C26029311E7BF
:108610000023009301330426002702930AE7032373
:10862000C3461E43032125E701331E4300220121D7
:1086300020E700239A46802300271B03094A61E7AD
:10864000802349461B03194200D1E2E059461942F2
:1086500000D0DEE00B431B0317001B0BA246014AB0
:1086600050E7C046FF07000001FCFFFFC4C2000046
:10867000FF030000FFFFFFFEFE070000FFFF0F806B
:108680000DFCFFFF01F8FFFFF3030000D94500D9FF
:10869000CBE000D1C6E03C0048460027009B013BF0
:1086A00000935B46160E1B021E43130298463304CA
:1086B0001B0C9946310C0191FEF77CFB4A46424364
:1086C0000B04210C050019438A4207D98919013D81
:1086D0008E4203D88A4201D9851E8919881A0199C8
:1086E000FEF768FB09048C464A462104644642436F
:1086F000090C030021438A4204D98919013B8E42A7
:1087000000D8F1E02D041D43AB464346891A42468A
:10871000280C12041D0C5B46140C22001B041B0CBD
:108720005A4303946B434443029568431B19150C49
:10873000EB189C4203D980246402A44660441C0CBC
:1087400015041B042D0C20185D19814277D373D0BA
:108750000C1AA24A7D1BAF42BF419446009B7F4248
:108760006344E01B1C00864200D1DBE00199FEF768
:1087700021FB4A4642430B04290C070019438A4255
:1087800007D98919013F8E4203D88A4201D9871E31
:108790008919881A0199FEF70DFB09044A46894692
:1087A00029044D464243090C030029438A4207D954
:1087B0008919013B8E4203D88A4201D9831E891947
:1087C0003F04891A3A00039F1A43380013041B0C14
:1087D000584381460298150C6F434343454348462E
:1087E000000C8446DB1963449F4203D98020400279
:1087F0008446654448461F0C00041B04000C7D1988
:108800001818A94200D284E000D17FE001231A4366
:1088100057E680234A461B0313431B031B0BAA4640
:108820006F4A6FE6BA4200D935E74B46DC07580875
:108830007B081C43FF0734E70024AF4289D247443A
:108840004745A4415B466442A4196418013BA64213
:108850001ED2A0426DD800D1B6E0241A9B4678E71C
:1088600003005A46283B9A400027914688E658461E
:1088700001F012F9203072E603005246283B9A407C
:1088800093460022B4E6504601F006F920309AE6FD
:10889000A642E2D1B845DCD9341A9B4659E71F2BD2
:1088A00065DC504C0099A4465C46614408008C404D
:1088B00011008240D940501E82410C4314435A4655
:1088C000DA401300620709D00F222240042A05D0A3
:1088D0002200141D9442894149425B181A0262D554
:1088E0000122002300270DE68A4200D80AE7831EF2
:1088F000891907E70F231340042B00D1E6E5171D64
:108900009742924153429B44FA08E0E5002800D187
:10891000D7E57118531EB14227D3A94215D358D0B9
:108920001A0073E7002B00DC04E6012300229B44BD
:10893000CDE502234744474589415B429C46494275
:1089400089190C19E344241A03E743465F0047459D
:108950009B41B8465B429E19023A8919A94200D050
:1089600054E7404500D051E7ABE51A00F6E71F2178
:108970005F4649420C1BE740202B07D01A49009B59
:108980008C46634418005B4683401A43501E824164
:108990003A4307270023174009D00F210023114035
:1089A0001400042995D122005F075B021B0BD2083B
:1089B00017430022A6E5802359461B030B431B03E4
:1089C00017001B0B064A9DE5BD42B2D89B4600240A
:1089D000BFE68045B9D31A00C3E7C046FF030000D5
:1089E000FF0700001E0400003E040000F0B54F46E3
:1089F0004646D6468446C0B58046194E18030F0336
:108A00004D00000B5C0082463F0B6D0DC90F914677
:108A1000640DDB0F0120B5420AD0B44203D0A54259
:108A200001D157450CD01CBC90469946A246F0BDDA
:108A300066463E43F7D1AC42F5D154461443F2D1D9
:108A40000120C845EFD1994207D0002DEBD16346F4
:108A50001F433800471EB841E5E70020E3E7C04662
:108A6000FF070000F0B54F464646D6464D00C0B55C
:108A70000E03C90F8A462C491F035C008046360B43
:108A80006D0D91463F0B640DDB0F8D421ED08C4265
:108A900016D0002D1ED130438446002C01D13A431C
:108AA00023D06246002A1AD09A4529D05146022086
:108AB0000139084001381CBC90469946A246F0BDD9
:108AC00039001143E5D002204042F4E73043FAD1A7
:108AD000AC420FD0002C0FD13A43E7D00CE001227A
:108AE000013B934318000130E5E763460020002B6B
:108AF000E1D0DBE73A43E6D19A45D7D1A542D5DCB0
:108B0000A54205DBBE42D1D808D00020BE42D2D259
:108B100050460123013898430130CCE7C845C5D8F9
:108B20000020C845F4D3C6E7FF070000F0B54F4664
:108B30004646D6464D00C0B50E03C90F8A462E499B
:108B40001F035C008046360B6D0D91463F0B640D94
:108B5000DB0F8D4218D08C4211D0002D18D130433C
:108B60008446002C1ED13A431CD163460020002BC2
:108B700030D0514602200139084001382AE039003E
:108B80001143EAD0022025E03043FBD1AC4226D08D
:108B9000002C26D13A4324D1514602200139084005
:108BA000013817E06246002A0FD09A45E1D1A5426C
:108BB00005DBBE42DDD819D00020BE420AD25046A5
:108BC000012301389843013004E00122013B934323
:108BD000180001301CBC90469946A246F0BD3A43AD
:108BE000D0D19A45C5D1A542C3DCE0E7C845C0D87D
:108BF0000020C845E3D3EDE7FF070000F0B5574676
:108C0000DE464E464546E0B5834606000F03480063
:108C100087B092461D003F0B400DCC0F002800D1BD
:108C20006FE0DE4B984238D08023FF001B041F43C7
:108C3000730F3B430193DA4B0027994600239B4671
:108C4000F60081442B0369001B0B52469846490DE0
:108C5000ED0F002900D185E0D04B994200D173E09F
:108C60004346DA0080231B0413435246CC48520F7C
:108C700084461343524600206144D20089442100B7
:108C8000694000918C46012149448A460F2F00D942
:108C900090E0C449BF00CF59BF465B463B430193B8
:108CA00000D06AE102230827002681469B46C9E7D7
:108CB00032005846019B61460091022800D175E0C0
:108CC000032800D1FEE1012800D02CE10023002779
:108CD000002600253F032A0D3F0BB34812053A43F7
:108CE00002401B051343009A5B00D1075B080B434E
:108CF0003000190007B03CBC90469946A246AB46EE
:108D0000F0BD5B463B43019300D12FE1002F00D122
:108D1000A5E1380000F0C0FE03000B3B1C2B00DD7A
:108D200096E11D22D31A5A460100DA405E46083900
:108D30008F4013008E403B4301939C4B00271B1A2E
:108D4000994600239B467DE7414653460B43934992
:108D50008C46E144002B00D01AE102220220174386
:108D600000228CE7134300D10DE14346002B00D1D4
:108D700081E1404600F090FE02000B3A1C2A00DD23
:108D800072E10100434608398B4098461D239A1A28
:108D90005346D3401A004346134352468A4049463D
:108DA000081A824989468144002068E77B4B0027E6
:108DB00000268EE7140C1204120C1100370C360436
:108DC000350C794328008C462E006043604483466E
:108DD00056432100300C8046584679434044029166
:108DE000844506D98846802149028C46E0444146A4
:108DF00002913604010C360C00048B4681191E0CBE
:108E00001B041B0C0391190079438C462800754301
:108E10006544A8465843050C45447743A94203D905
:108E2000802149028C466744290C8C463900000495
:108E3000000C2D042D186144AB4405915946049152
:108E400001990F043F0C080C3900514342439046EE
:108E500002008C46090C8B4662437C4344445C44CC
:108E6000A04503D98021490288464244210C884606
:108E700061460904090C8C46390059434343704349
:108E80007E430F0CF6182404BE19644442448C46F9
:108E9000B34203D980235B0298464044029B61465B
:108EA0009846049B370443449B46AB45AD416B4217
:108EB0000D0405992D0C8C467F196744FD18A846B2
:108EC0005D462D19A542A44193466442A446C3447D
:108ED000DC448F42BF4198459B4193459241A44554
:108EE000A4415B427F421F43360C52426442BF1989
:108EF0002243BF18624638184302D20D0399134328
:108F00006A020A43501E82416146ED0D2A434E0219
:108F10003243D90100D4B3E0012650083240024365
:108F2000DE0732435B08224C5444002C62DD5107BB
:108F300009D00F201040042805D0101D9042924106
:108F400052429B180200D90104D580241948E4003C
:108F5000034054441848844200DD27E75E075B0263
:108F6000D2081F0B630516435B0DB2E6002399463A
:108F70000133042700269B4664E6032301978146BC
:108F80000C279B465EE6012201201743002276E66D
:108F9000032303201F43434671E6C046FF0700003A
:108FA00001FCFFFF04C30000FFFF0F800DFCFFFF6B
:108FB000FF030000FFFFFFFEFE07000000238027E5
:108FC00000933F030026434B83E6019B3200A446F7
:108FD000584670E6AC466EE6802701993F03394259
:108FE0002DD03B422BD11F433F033F0B0095160072
:108FF000384B6EE601252D1B382D00DD66E61F2D52
:1090000040DC35481C005044160082408440EE404D
:10901000501E824134431443EB40620709D00F22B3
:109020002240042A05D02200141D9442804140426F
:109030001B181A023ED501230027002649E6802787
:10904000019B3F031F433F033F0B0094214B40E62E
:1090500003005A46283B9A40002601926DE6584686
:1090600000F01AFD203057E603005246283B9A4094
:109070001300002293E6504600F00EFD20307BE600
:10908000CA4650E71F201E004042041BE640202D28
:1090900003D0124C5444A3401A43501E8241324321
:1090A00007260027164009D00F2000231040140087
:1090B0000428B9D122005E075B021F0BD2081643B9
:1090C000002306E680273F031F433F033F0B1600A4
:1090D000004BFEE5FF0700001E0400003E040000F8
:1090E000F8B557464E464546DE460C000903E0B546
:1090F000490A460F5F0031431E03DB0F760A9B4689
:10910000530F3343C84E6500C000E40FD2006D0D0D
:10911000A24681467F0D9C469046B74200D1B9E0F9
:109120005B46012673409B46EE1BA34500D183E0BE
:10913000002E63DD002F00D0B1E06346134300D161
:1091400023E1731E002B00D0BAE1861A6346B042B9
:1091500080410125C91A4042091A0B0200D447E197
:1091600049024B0A98464346002B00D189E140460C
:1091700000F092FC0300083B1F2B00DD7CE1202265
:109180003000D21A4146D040994002009E400A4326
:109190009D4200DD6AE15D1B6B1C1F2B00DD94E12D
:1091A000202110003500C91A8E40DA408840DD4089
:1091B000711E8E41110007222843002506433240CC
:1091C000002A09D00F233340042B05D0331DB342AE
:1091D000B641764289191E000B0200D43DE26A1C9A
:1091E000914B55056D0D9A4200D119E18F4AF60851
:1091F0000A40570752023743120B9BE0002E00D063
:10920000C5E06E1C7605760D012E00DC48E1674650
:10921000861ACB1BB042BF417F42B8461F0043466F
:10922000FF1A3B00B8461B0200D55FE137439AD1D5
:1092300000220024002579E0002E00DCFAE0002F57
:1092400000D18DE0784B9D4267D0802367461B0498
:109250001F43BC46382E00DC52E1634613435A1EBE
:1092600093411E1886428041404209180B0200D4E7
:10927000BEE06D4B01359D4200D1D2E06B4A7308D0
:109280000A4001210E401E435108D30707221E4306
:10929000324095E71E00164300D045E740E7624B99
:1092A0009D423AD0802367461B041F43BC46382E9C
:1092B00000DDEBE01F2E00DC3AE133006746203B87
:1092C000DF403B00202E05D04027BF1B6646BE4036
:1092D000324390464646721E96413343DAE0002BF5
:1092E00000D114E26346134300D168E180234E07A6
:1092F000C008C9081B030643194208D06046C008CD
:10930000184204D163460100D2085E071643F300F9
:109310009946C900720F444D11434B46DE08424B3B
:109320004F073743CA089D4200D16EE012036D0516
:10933000120B6D0D00211203130B0A0D12051A43B7
:109340003B4B2D0513402B435B00E4075B08234395
:10935000380019003CBC90469946A246AB46F8BD81
:109360006346134311D0731E002B00D007E186180B
:109370008642804161444042091801250B0237D5DD
:1093800002257BE73E00614691463500C5E75C4615
:10939000002D00D0E1E00B000343F3D0731C00D19B
:1093A000ACE1214B9F4200D13AE1F343382B00DD81
:1093B0006FE11F2B00DD8CE120250E00ED1AAE4081
:1093C000B0460600AA46DE40454635432E005546C7
:1093D000D940A8406346451EA8415B1A9C463043CD
:1093E000161AB242924163465242991A3D00B4E6BF
:1093F00007223240002A00D0E4E60B4BF6084F0764
:109400003743CA089D4200D090E73B00134300D188
:10941000A6E180231B031A431203120B024D89E7B6
:1094200015000022002785E7FF070000FFFF7FFFF0
:10943000FFFF0F80002E00D0C7E06B1C5E05760D8D
:10944000012E00DCF0E0C84DAB4200D1B9E0851838
:109450000A00854289416244494251180722CE07D9
:109460006D082E43490832401D00A9E6BF49ED1A98
:10947000114007223240A3E63200283882400026FD
:1094800086E6300000F008FB203073E663461343A5
:109490005A1E9341C61AB04280414042091A5CE606
:1094A0000E00674606431743002D5ED1002E00D004
:1094B000F3E0002F00D11EE15C46614691462CE7A7
:1094C000A94FBE427BD01E00F1E610001F3DE840D0
:1094D000202B03D04021CB1A9A401643731E9E4185
:1094E0000722064332400021002583E7161A63460F
:1094F000B2428041591A40420B1A98465C4632E605
:109500001F2E00DDABE02027BB1B9A466346574663
:10951000BB40994613004F46F3401F433B0057465C
:10952000BA40571EBA4113436246F240891898E682
:109530002027BB1B9A4663465746BB4099461300FB
:109540004F46F3401F433B005746BA40571EBA41AF
:1095500013436246F240891A9CE7834B9F425FD0D7
:1095600080252D047342294320E7002E0CD1002FC3
:1095700000D1D0E05C46614691467B4DCDE67A4F06
:10958000BE421CD01E0065E6002F18D0C0084E0752
:1095900006438020C9080003014208D06346DC0866
:1095A000044204D12100DA46D2085E071643F300D4
:1095B000994601245346C900720F11431C406A4D5D
:1095C000ABE61D0000220027B4E6002D59D10B00A8
:1095D000034300D1D6E6731C00D1B2E0624B9F4238
:1095E0001ED0F343382B6FDC1F2B00DD97E02025C6
:1095F0000E00ED1AAE40B0460600AA46DE404546D3
:1096000035432E005546A840D940451EA8418C44FC
:109610000643B61896429241514261443D0025E608
:109620003D006146914678E60B000343002D00D0D3
:1096300055E6002BF5D06346134300D16DE686183E
:109640008642804161444042091800220B0200D446
:10965000D0E6464B01351940B2E5B1465DE6330030
:109660006746203BDF403B00202E05D04027BF1B34
:109670006646BE40324390464646721E964133438C
:10968000EFE5394B9F42CBD080252D04734229430F
:10969000A8E70843411E8841A2E6002F00D13CE61E
:1096A0006346861ACF1AB0429B415B42FB1A98462A
:1096B0001B024ED5161A6346B2429241591A5242C3
:1096C000891A5C4600227BE501430E00711E8E4123
:1096D0009FE71D000E00203DEE40B046202B04D039
:1096E0004025EB1A99400843814648464346411EAF
:1096F0008841184374E60022002417E6161A6346D0
:10970000B2429241591A5242891A3D0025E56146FA
:109710009146154D01E680220024120379E61D00D2
:109720000E00203DEE40B046202B04D04025EB1A21
:109730009940084381464E464346711E8E411E4362
:1097400067E7861896429B4161445B42C9183D0019
:109750008CE547463743CED007224146324049E6A2
:1097600000273A00E6E5C046FF070000FFFF7FFF45
:1097700070B50C4E0D031C0349005B002D0B490D09
:10978000240B5B0DB14208D0064900208B4203D167
:1097900014432000441EA04170BD05430120002D4C
:1097A000FAD1F1E7FF07000030B5144D0A034B0072
:1097B000120B5B0DC90F0024AB4211DD104CA3420C
:1097C00010DC8024640322430E4CE41A1F2C0CDDB1
:1097D0000D48C31ADA4013005C42002900D11C0076
:1097E000200030BD094BCC18FAE7094DE040AC46EB
:1097F00063449A4013000343EEE7C046FE030000B3
:109800001D0400003304000013040000FFFFFF7F6D
:10981000EDFBFFFF70B500282DD0C317C5185D40C4
:10982000C40F280000F038F9154B1B1A5B055B0DBF
:109830000A2815DD0B38854000222D032D0B002151
:1098400010002D030A0D2D0B12052A430D4D1B058B
:109850002A4013435B00E4075B082343190070BDF3
:1098600002002900153291400A000B21081AC54058
:109870002D032D0BE3E70024002300250022DEE763
:109880001E040000FFFF0F8010B5041E25D000F05D
:1098900003F9144B1B1A5B055B0D0A2812DD0B380C
:1098A000844000222403240B0021100024030A0D0D
:1098B000240B120522430C4C1B05224013435B0072
:1098C000590810BD02002100153291400A000B21F9
:1098D000081AC4402403240BE6E7002300240022D6
:1098E000E2E7C0461E040000FFFF0F804100090EA2
:1098F0004B1C70B5DBB24602750AC40F012B14DD98
:10990000E0239B006D07360BCB1800210A0D2800C1
:1099100012051C4D32435B052A405B0813435B0074
:10992000E4075B082343190070BD002914D1002D02
:109930001ED0280000F0B0F80A281CDC0B232A00F7
:109940001B1ADA40030015339D400F4B12031B1AFC
:109950005B05160B5B0DD8E7002D06D0320B802679
:1099600036036D071643094BCFE7084B0026CCE7BB
:1099700000230026C9E703002A000B3B9A4000257C
:10998000E3E7C046FFFF0F8089030000FF070000E8
:10999000F0B54C00640D0B03621C5B0A460F5205C8
:1099A000C90F1E43C500520D012A29DD374BE718A8
:1099B000FE2F1CDC002F3BDD8001431E9841072257
:1099C000F3006D0F03432B431A40002A04D00F22EB
:1099D0001A40042A00D004338022D2041A4024D032
:1099E0000137FAB2FF2F02D09B01580A01E0FF2293
:1099F00000204002D205400AC90710430843F0BDC9
:109A00003543002C04D1002D0AD100220020F0E7BC
:109A1000002DECD08020C0033043FF22E9E7002472
:109A200000235B02580AE2B2E3E7DB083C00F8E7F8
:109A30003B001733F3DB80231B0433431E26F61B46
:109A40001F2E14DD02225242D71B1A00FA401700C3
:109A5000202E04D00E4A94466444A3401D432B009C
:109A60005D1EAB4107223B431A400027ADE7094A80
:109A70002800A218954093406C1EA541F040072293
:109A80002B4303431A4000279FE7C04680FCFFFF9B
:109A9000A2FCFFFF82FCFFFF1C2101231B04984254
:109AA00001D3000C10391B0A984201D3000A08396F
:109AB0001B09984201D30009043902A2105C401826
:109AC0007047C046040302020101010100000000CA
:109AD0000000000010B5002903D1FFF7DDFF2030A2
:109AE00002E0081CFFF7D8FF10BDC0460023C25C8F
:109AF0000133002AFBD1581E704700001F23184075
:109B0000064B1860054B1B681B06FBD5034B1869F9
:109B100080B21A6880218A431A60704700B00340FF
:109B200010B5C0B2FFF7EAFF10BD0000224B1A6A61
:109B300040218A431A625A6A35398A435A625A6AFC
:109B400004390A435A625A6A79310A435A621A4BF3
:109B50001B681B06FBD5184B5B6A5B062AD4164AAA
:109B6000D36CDBB2916C5B18DBB2516C5B18DBB26F
:109B7000116C5B18DBB2D16B5B18DBB2916B5B18BD
:109B8000DBB25B08D362D36EDBB2916E5B18DBB2E3
:109B9000516E5B18DBB2116E5B18DBB2D16D5B18D6
:109BA000DBB2916D5B18DBB25B081363536A8021F3
:109BB0008B435362C046704700B00340F8B51D00A8
:109BC000234E244C375980231B053B433351083A1D
:109BD000D3B2052B07D89A001F4B9B589F460022F3
:109BE00004E0082202E00C2200E0042251231A4380
:109BF0001A4CA260E3680F229343E36001281BD054
:109C0000164AD36810208343D360144800230362AC
:109C1000426A03332B4013430C221343436201294E
:109C20000FD00E4A136820218B4313600B4A136830
:109C300040218B431360F8BDE3680F300343E360BA
:109C4000E3E703681F310B430360FFF76FFFEDE7A6
:109C5000007004403C10000044C3000000B003400A
:109C600010B5000A03231022FFF7A8FF10BD000063
:109C7000264B274AC02189029950264958588022EC
:109C8000920002435A50244B9B781B0704D5224A6A
:109C9000937808210B4393701C4B1D4A8021490285
:109CA00099501E4A99581E480140995019681D48FC
:109CB0000140196099581C4808408021490401431B
:109CC00099501A4B06221A705A7840210A405A704D
:109CD000D97849B21F2211407F3A0A43D2B2DA70D2
:109CE000002213490A701A715A71104B9B79DB06D6
:109CF000FBD50E4B9A790C231A42FAD10349054A37
:109D00008858F8239B0103438B5070470070044030
:109D1000441000003810000000D00740041000007C
:109D2000FFFFFCFFFFFFF3FFFFFFFFFC00400640CB
:109D3000005006408000034BC258136880210B433B
:109D4000136070470404002010B5002806D0431E9D
:109D5000DBB2012B07D8FFF7EDFF04E0024A1368DE
:109D600080210B43136010BD00000440024B18809B
:109D7000024B19807047C046B2040020B004002096
:109D8000002201E0C0460132024B43439342F9D81E
:109D90007047C0467017000010B50A4B18880122A2
:109DA000012100F0A9FC084C20880122012100F0CB
:109DB000A3FC0220FFF7E4FF2088002100F07AFCDA
:109DC00010BDC046B2040020B004002010B50E4CF7
:109DD0002088002100F06EFC0520FFF7D1FF0B4B1F
:109DE0001888012100F066FC0520FFF7C9FF2088D4
:109DF000012100F05FFC0220FFF7C2FF2088002154
:109E000000F058FC10BDC046B2040020B004002091
:109E100010B50C4C2088002100F04CFC0220FFF70C
:109E2000AFFF094B1888012100F044FC0220FFF726
:109E3000A7FF2088012100F03DFC0220FFF7A0FFD2
:109E400010BDC046B0040020B204002070B505006B
:109E5000002412E0114B1888002100F02BFC032095
:109E6000FFF78EFF6D080E4B1888012100F022FCD1
:109E70000320FFF785FF0134E4B2072C0CD8084B10
:109E80001888002100F016FCEB07E3D5034B188877
:109E9000012100F00FFCE2E770BDC046B0040020D5
:109EA000B2040020F0B5DE4657464E464546E0B5C2
:109EB00083B083460F00924601930CAB1A7891460B
:109EC0000DAB1E780EAB1A7890460FAB1D78FFF7DE
:109ED00063FF4020FFF7BAFFFFF778FFFFF798FF17
:109EE000FFF75AFFC020FFF7B1FFFFF76FFF1C4CD1
:109EF0005A46A056FF013843C0B2FFF7A7FFFFF74D
:109F000065FF5246A056019BDB011843C0B2FFF724
:109F10009DFFFFF75BFF4B46E056F6013043C0B2B2
:109F2000FFF794FFFFF752FF4346E056ED01284349
:109F3000C0B2FFF78BFFFFF749FFFFF769FFFFF79D
:109F40002BFF8920FFF782FFFFF740FFFFF760FF3D
:109F500003B03CBC90469946A246AB46F0BDC04615
:109F60001004002010B5FDF7E3FE1649FDF780FB55
:109F70001549FDF7A5F9041C011C1248FDF7AAFCC0
:109F8000011C201CFDF79CF9FFF7B0FC01F0BCFEA2
:109F900000220E4BFEF728FA0D4A0E4BFDF708FF84
:109FA00002000B0000200C49FEF71EFA0B4A0C4B76
:109FB000FFF796F800220B4BFDF7FAFEFFF7E8FCDF
:109FC00010BDC04600404E4500FF7F4700DCAE405C
:109FD00083DBB5DCE1796B3F0000F03F66666666C7
:109FE000661271400000E03FF0B5C64600B58AB089
:109FF00072B600F0F3FB8E4801F074FE032000F00F
:10A00000CFFB01220121052000F076FB0122012176
:10A010000C2000F071FB012201210D2000F06CFBEF
:10A0200001220021834800F067FB00F0D7FB824843
:10A0300001F058FE01F0F4F9804801F053FEE121EF
:10A040004902002000F0D0FD00210720FFF708FEA4
:10A0500000210220FFF704FE00211A20FFF700FE76
:10A0600000F0BCFB002000F0DBFE62B6744801F09B
:10A0700039FE9F23002200925B00EE320221022073
:10A0800001F03EF9012500955023EC2228210420FF
:10A0900001F036F96B4CF82636026B4B0093230027
:10A0A00032001421482001F087F8684B0093230008
:10A0B00032003421442001F07FF800F08FFB644B24
:10A0C0000093230000225821082001F075F8009524
:10A0D0007423EC226A21042001F012F95D4B0093F5
:10A0E000230000227821082001F066F800959423CF
:10A0F000EC228A21042001F003F9574B009323003E
:10A1000000229821082001F057F80095B423EC2292
:10A11000AA21042001F0F4F8504B00932300002200
:10A12000B821082001F048F80095D423EC22CA2178
:10A13000042001F0E5F84A4B009323000022D821C7
:10A14000082001F039F800F049FB9E2300955B00E0
:10A15000EC22EA21042001F0D3F8424801F0C2FDCC
:10A160005223984600249DE10021052000F0A2FA28
:10A1700001210C2000F09EFA01210D2000F09AFA36
:10A18000394801F0AFFD2F4C384B009323000022DB
:10A19000D821A02001F010F8F822354B00932300BD
:10A1A0001202D821A02001F007F81E2409E0F823AC
:10A1B00014211B022200FF31782000F0FFFE023C38
:10A1C000E4B2022CF3D84723984664E0012105202D
:10A1D00000F070FA00210C2000F06CFA01210D2033
:10A1E00000F068FA234801F07DFD164C1F4B0093E8
:10A1F00023000022D821A02000F0DEFFFC221E4B0D
:10A2000000932300D200D821A02000F0D5FF1E2407
:10A2100009E0FC231421DB002200FF31782000F04C
:10A22000CDFE023CE4B2022CF3D84223984632E041
:10A230005CC300001304000070C3000080C3000072
:10A2400088C3000030840000A4C30000B4C3000031
:10A25000C4C30000D0C30000DCC30000E8C300009A
:10A26000F4C3000008C4000010C4000024C40000AF
:10A270002CC4000030C4000044C4000014211F237B
:10A280002200FF31782000F099FE023CE4B2022C5B
:10A29000F4D85223984600F0A1FA0220FFF740FCC0
:10A2A000FFF760FE05901A20FFF73AFC0400072034
:10A2B000FFF736FC06902100984801F013FD2000BE
:10A2C000FFF7A8FA964A974BFEF798FC0022964BA8
:10A2D000FEF706FF954A964BFEF786F802000B0044
:10A2E00000209449FEF7FCFEFFF752FB051C924844
:10A2F00000F03EFA07000790904C914E0096230024
:10A3000000227821882000F057FF009623000022C9
:10A310009821882000F050FF8A4B009323000022F0
:10A320005821542000F048FF874B0093230000225F
:10A330005821B42000F040FF00F050FA08AA012193
:10A34000059800F07BFBFC26F6000090230032000D
:10A350007821882000F030FF08AA0221281C00F094
:10A360006DFB0090230032005821542000F024FFA0
:10A370000698FFF74FFA0022744BFEF735F8FFF707
:10A3800007FB08AA012100F059FB009023003200CE
:10A390009821882000F010FF012F00D1B3E0FC22AB
:10A3A0006B4B0093654BD200B821882000F004FF6E
:10A3B00000F014FA0799674801F094FC0598FDF73E
:10A3C0004DFC0100644801F08DFC0699634801F0E2
:10A3D00089FC281CFFF78AFA02000B00604801F094
:10A3E00081FC6049281CFDF743F9FDF737FC0600A6
:10A3F0000A21FCF7C9FD0C000A213000FCF7DEFC45
:10A400000A21FCF7C1FD0F0064213000FCF7D6FCE7
:10A410000A21FCF7B9FD0D00FA2189003000FCF794
:10A42000CDFC0600504A137801335BB21370032B46
:10A4300002DD130001221A7002218020FF3140004A
:10A44000FFF794FC002303930294019300970133D8
:10A450002A0000213000FFF725FD4449002000F0CC
:10A4600095FC31003031C9B2002000F061FC2900B8
:10A470003031C9B2002000F05BFC2E21002000F03A
:10A4800057FC39003031C9B2002000F051FC2100E6
:10A490003031C9B2002000F04BFC0A21002000F04E
:10A4A00047FC002400F09AF90134314B9C42F9D961
:10A4B00000F094F94346522B00D155E6472B00D1CA
:10A4C00084E60121052000F0F5F801210C2000F0C0
:10A4D000F1F800210D2000F0EDF8264801F002FC13
:10A4E000164C254B009323000022D821A02000F019
:10A4F00063FE224B009323001F22D821A02000F0EE
:10A500005BFE1E24C3E6F8221D4B009323001202BB
:10A51000B821882000F050FE4AE7C04668C4000019
:10A520009A9999999999A93F00788640713D0AD7DF
:10A53000A370FB3F0000394013040000308400008A
:10A540007CC4000088C4000080C4000000002440D7
:10A5500090C4000094C40000A0C40000B0C4000077
:10A56000BCC400000000C842AC040020D0C40000FD
:10A57000FFFF1F004CC4000024C4000060C40000A2
:10A5800048C4000010B501F02BFE10BD00238B4223
:10A5900006D28202D25CFF2A05D101339BB2F6E7D4
:10A5A0000120C0B270470020FBE700000F4B3022B3
:10A5B0001A70EFF31083002B12D172B62F3A0B4BA7
:10A5C00080211970094B1B785BB2002BFADA012A43
:10A5D00008D0064B1A7831231A4205D10020704763
:10A5E0000022ECE762B6F4E70120F8E70000024041
:10A5F00010B58402164B0922DA718204120E9A7188
:10A600008006000E5871E2B21A71FFF7CFFF0128E1
:10A610001BD0104B9C4201D9002010BD0C4B0622D0
:10A62000DA7100229A7104325A7108321A71F332C7
:10A63000DA729A725A72013A1A72FFF7B7FF01285A
:10A6400001D00020E9E70130E7E70120E5E7C04657
:10A6500000000240FF030000F8B50F001400124B89
:10A660000622DA7105000026B74218D92A02120E16
:10A670000D4B9A712A04120E5A71EAB21A71E278DD
:10A68000DA72A2789A7262785A7222781A72FFF796
:10A690008DFF012805D0043604350434E4E700209A
:10A6A000F8BD0220FCE7C04600000240030A0B7020
:10A6B0001070704730B583B00D006B46DC1D9A1DDD
:10A6C0002100FFF7F3FF23789B000A4A9B58012DD6
:10A6D00008D01A6869468879012181408A431A6046
:10A6E00003B030BD1A6869468879012181400A4368
:10A6F0001A60F5E7E0C40000F0B585B004000F0073
:10A70000019202AB9E1DDD1D32002900FFF7CEFF36
:10A710002A789200134BD35813495058327892003C
:10A72000D158124D2940D15032789200D65880210C
:10A7300049003143D150012F08D0436902AA9179D1
:10A7400001228A409343436105B0F0BD436902AAE8
:10A75000917901228A401343436101992000FFF758
:10A76000A9FFF1E7F4C40000E0C40000FFF8FFFF18
:10A7700030B583B06B469C1DDD1D22002900FFF71C
:10A7800095FF2B789B00054A9B5818692378D84081
:10A7900003000120184003B030BDC046E0C40000F3
:10A7A000012809D002280FD00B49882252018B586A
:10A7B0000C2003438B5006E00749882252018B5836
:10A7C000042003438B5070470349882252018B5861
:10A7D000082003438B50F6E700700440034A044B03
:10A7E0005521D1505531D1507047C04600700440BA
:10A7F00004110000F8B50D0014001F0006AB1E7810
:10A80000012802D8002800D076E07849784A885894
:10A810008023DB0303438B50764B802292001A6126
:10A820005A619A61DA61FFF7D9FF734B0022DA703F
:10A83000DA7840210A43DA70012D2DD06E4AD378A0
:10A84000802149420B43DBB2D370002F2AD16A4AE0
:10A85000D37808218B43D370002E29D1664AD37850
:10A8600004218B43D370FFF7B9FF634BDA780221E1
:10A870000A43DA7000229A70012D1FD05E4B00222D
:10A880005A7021005D48FCF799FAC4B2FFF7A6FFA1
:10A89000082C19D9002523E01A00DB7810210B437E
:10A8A000D370D2E7544AD37808210B43D370D3E74F
:10A8B000514AD37804210B43D370D4E71A009B7814
:10A8C00010210B439370D9E7013CE3B21B01DBB2CB
:10A8D000494A53700FE0FFF781FF0135EDB264087C
:10A8E000112CF8D8013CE4B22401E4B2424B5C7074
:10A8F0005A7815435D70F8BDFFF770FF3B493C4A3D
:10A90000885880231B0403438B503D4B80229200C8
:10A910001A615A619A61DA61FFF760FF394B0022D0
:10A92000DA70DA7840210A43DA70012D2DD0354AE9
:10A93000D378802149420B43DBB2D370002F2AD158
:10A94000304AD37808218B43D370002E29D12D4A69
:10A95000D37804218B43D370FFF740FF294BDA787B
:10A9600002210A43DA7000229A70012D1FD0254B74
:10A9700000225A7021002148FCF720FAC4B2FFF7E8
:10A980002DFF082C19D9002523E01A00DB781021AF
:10A990000B43D370D2E71B4AD37808210B43D37003
:10A9A000D3E7184AD37804210B43D370D4E71A00B5
:10A9B0009B7810210B439370D9E7013CE3B21B0154
:10A9C000DBB20D4A537096E7FFF708FF0135EDB291
:10A9D0006408112CF8D8013CE3B21B01DBB2064A33
:10A9E000537053781D43557085E7C046007004408E
:10A9F0003410000000B0044000600740C05D00005B
:10AA000000C00440007007400A4B9C4660440003AD
:10AA100003789B06FCD581710023074A934204D832
:10AA20000278920603D40133F7E7002000E001200A
:10AA30007047C04676000400EFFF0000F0B5CE4638
:10AA4000474680B585B0041C894603920021FCF777
:10AA5000F1FA00280ED100239846201CFDF7FEF8DD
:10AA60000700FDF71BF9011C201CFCF733FF041C39
:10AA7000039D08E0211C0020FCF72CFF041C01238F
:10AA80009846EAE735000A213800FCF77DFA6E1C8B
:10AA9000303129700A213800FCF790F9071EF1D1F6
:10AAA0004346012B02D0711E039A11E0AE1C2C33D9
:10AAB0006B70F8E7137808781B18DBB2137008780E
:10AAC0001B1ADBB20B701078C31A137001320139F4
:10AAD0008A42EFD3751C2E23337000E035001849ED
:10AAE000201CFCF7C5FD041CFDF7B8F86E1C030024
:10AAF00030332B7001374F451AD0FDF7CFF8011CCA
:10AB0000201CFCF7E7FE041CFEF7F0FE0D4A0E4B7E
:10AB100000900191FCF768FA0028DFD0094A0B4B3E
:10AB200000980199FCF74CFA002801D13500D6E7CE
:10AB300000236B70039805B00CBC90469946F0BD9D
:10AB4000000020418DEDB5A0F7C6B0BEF7C6B03EFF
:10AB500080B51D4FBD4418213F20FFF717FD002889
:10AB60002BD18022D021D200C90102A8FFF70AFD13
:10AB700078231B68209A9A4210D01A20FFF738FDDC
:10AB800008231B68049378231B680193209380217A
:10AB9000D02002AAC900C001FFF75EFD0B4BD022F6
:10ABA000D2019A600A4BE02292011A60094801F032
:10ABB00099F88123DB009D4480BDFC20064A1821C2
:10ABC0000002FFF749FDCCE7F8FBFFFF00ED00E0D6
:10ABD000B404002024C5000008C50000022801D8E4
:10ABE000012070470020FCE770B504000D00FFF75E
:10ABF000F5FF00282BD0002C2AD0012C00D16DE0CD
:10AC0000022C00D177E0013CA400414BE458E378EA
:10AC10000C229343E3703F4B186840082901FCF76E
:10AC200043F823781F22934302121F210A40134343
:10AC30002370C0B260700023A370A3716371E378C6
:10AC40007F221340E370E3780C221343E37070BD5E
:10AC5000314B324A98588021C90401439950995880
:10AC60002F48014099502F49086D8022D20010438F
:10AC70000865486D104348652B49585802435A509F
:10AC80002A4CE3780C229343E3702901214B186886
:10AC9000FCF70AF823781F22934302121F210A406F
:10ACA00013432370C0B260700F23A3720023A370FC
:10ACB000A3712372637223791F2213432371637973
:10ACC000402252421343DBB26371E378BF32134038
:10ACD000E370E3780C221343E370B8E7114BC02212
:10ACE00092001A605A600C490F4A885880231B0151
:10ACF00003438B5087E70B4BC02292001A645A64BF
:10AD00000549094A885880235B0103438B507AE741
:10AD100050C5000000040020007004400410000032
:10AD2000FFFFFEFF00D004403410000000A00640EA
:10AD300070B505000C00431E9B00114A9E58FFF79A
:10AD40004DFF002816D0002304E0327952B2002AC9
:10AD500011DB01330B4A934208D8002DF5D10A4A82
:10AD6000127952B2002AF4DA074AD471054A9342A2
:10AD700003D8012070BDF471F8E70020FAE7C0465F
:10AD800050C50000BAFB000000A0064070B50400EA
:10AD90000E00FFF723FF00280CD00025715D00296D
:10ADA00007D02000FFF7C4FF002803D00135ADB263
:10ADB000F4E7012070BD000070B504000E00431ED2
:10ADC0009B00144A9D58FFF709FF002801D000237B
:10ADD00006E00023337070BD2A79920615D4013342
:10ADE0000D4A93420AD8002CF6D10C4A12799206E9
:10ADF000F5D50A4AD079C0B201223270064A934290
:10AE0000E9D900233370FF20E5E7E879C0B20122D9
:10AE10003270F3E750C50000BAFB000000A0064006
:10AE200070B50400431E9B000D4A9D58FFF7D6FEE7
:10AE300000280ED0002C0DD10A4AD37820210B43D4
:10AE4000D370094B1B5D1F221A4001239340074A10
:10AE5000136070BDEB7820221343EB70F1E7C0461E
:10AE600050C5000000A006402804002000E100E0DA
:10AE700070B50500FFF7B2FC01210948FFF71AFC85
:10AE8000C024A40000212000FFF714FC29000020AA
:10AE9000FFF7BAFD01212000FFF70CFC70BDC04692
:10AEA0000103000070B50400FFF798FC01210B4876
:10AEB000FFF700FCC025AD0000212800FFF7FAFBDA
:10AEC000210A0020FFF7A0FDE1B20020FFF79CFD62
:10AED00001212800FFF7EEFB70BDC0460103000012
:10AEE00070B50500FFF77AFC00210948FFF7E2FB87
:10AEF000C024A40000212000FFF7DCFB2900002073
:10AF0000FFF782FD01212000FFF7D4FB70BDC04692
:10AF10000103000010B50C00FFF7E2FF2000FFF76F
:10AF2000C1FF10BDF8B507000D0016001C002A2057
:10AF3000FFF7D6FF380AFFF79BFFF8B2FFF798FF3D
:10AF4000300AFFF795FFF0B2FFF792FF2B20FFF7D3
:10AF5000C7FF280AFFF78CFFE8B2FFF789FF200A36
:10AF6000FFF786FFE0B2FFF783FF2C20FFF7B8FF63
:10AF7000F8BD70B505004023FF33EF22002100200B
:10AF8000FFF7D0FF00260AE02800FFF78BFF01340F
:10AF9000A4B24023FF339C42F6D90136B6B2EF2E5D
:10AFA00001D80024F5E770BD10B514000B000200B5
:10AFB000FFF7B8FF2000FFF775FF10BDF0B5DE46C4
:10AFC00057464E464546E0B587B083468A460193CC
:10AFD0009146520003239B1A984600250BE0AB00D4
:10AFE000063398445146494489B25B46581980B2A9
:10AFF000019AFFF7D9FF4D4557DC4B469EB25B46A1
:10B000009B1B9BB2ACB25246171BBFB2019A3900D0
:10B0100002931800FFF7C8FF5A46B31898B2019A76
:10B0200039000390FFF7C0FF5A46131B9AB2100075
:10B030005246B31899B2019A05910490FFF7B4FFF4
:10B04000019A39000298FFF7AFFF5246961BB6B23D
:10B05000019A31000498FFF7A7FF5246A718BFB224
:10B06000019A39000398FFF79FFF5C44A4B2019A4C
:10B0700031002000FFF798FF019E32000599200063
:10B08000FFF792FF320039000298FFF78DFF01357C
:10B090004346002BA3DB4B46EB1A9B000A33984434
:10B0A00001235B429C46E1449CE707B03CBC9046D0
:10B0B0009946A246AB46F0BDF0B5DE4657464E4631
:10B0C0004546E0B585B00EAC248803940190121A71
:10B0D000924602915B1A9B46002A0DDD0123984699
:10B0E0005B46002B12DD01239946DA4518DD5546F3
:10B0F00000270026002417E0002A05D053429A4674
:10B1000001235B429846EBE79046E9E7002B05D028
:10B110005B429B4601235B429946E6E7D946E4E75A
:10B120005D46E5E70134A4B26B1C9C4214DC6B461F
:10B1300019899888039AFFF737FF56445F44B54250
:10B1400003DA761B019B43440193BD42EADA7F1B7D
:10B15000029B4B440293E5E705B03CBC9046994600
:10B16000A246AB46F0BDF0B583B016000193089F30
:10B170000B000F339BB202000F3292B2FFF7D2FEE8
:10B18000002512E00198FFF78DFE0134E4B2072C90
:10B1900008D80023FB562341DB07F3D53000FFF727
:10B1A00081FEF2E701370135EDB21F2D01D80024F1
:10B1B000EDE703B0F0BD0000F0B5DE4657464E4661
:10B1C000C0B586B083460491059202930E9E00237B
:10B1D0009A4637E05346D800584480B204990B0091
:10B1E0000F339BB2C21D92B2FFF79CFE002575572C
:10B1F000203D2D01304BED180027B1463E00059F44
:10B2000012E00298FFF74EFE0134E4B2072C08D892
:10B210000023EB562341DB07F3D53800FFF742FE4E
:10B22000F2E701350136F6B20F2E01D80024EDE722
:10B230004E4653460133DBB29A46013653461D2B28
:10B2400034D862B60023F356002B2FD072B60024F8
:10B2500034572300203BDBB25E2BBBD97F2CECD1D3
:10B26000002301E00133DBB2022B1AD80127F75784
:10B27000039312491A01D51868004556091801228E
:10B280008A56AC42EED19742ECD10B0002335246C3
:10B29000D000584480B20093029B059A0499FFF7AE
:10B2A00062FF53460133DBB29A46C6E706B01CBCC8
:10B2B00091469A46A346F0BDC0C5000058C500009F
:10B2C000F0B5CE4600B582B001900E001700994649
:10B2D00008AB1D884B46FFF725FE08E02800FFF766
:10B2E000E1FD0134A4B2BC42F8D90136B6B24E45F4
:10B2F00001D8019CF7E702B004BC9146F0BD000004
:10B30000F0B5D6464F464646C0B586B00700039016
:10B31000160004921D0005930EAB1B789946384B1E
:10B3200000932B000291FFF7CBFF002400940299B9
:10B330000B0032003800FFF7BFFE00942B003A00EC
:10B3400002993800FFF7B8FE00942B0032000299F2
:10B350003000FFF7B1FE00942B00320029003800C6
:10B36000FFF7AAFE0125A8464346012B05D906B0E2
:10B370001CBC90469946A246F0BD4B46002B38D1E6
:10B38000CA4643469CB2039BE618B6B2029BE51838
:10B39000ADB2049B1F1BBFB2534600932B003A0073
:10B3A00029003000FFF788FE059B1C1BA4B2534602
:10B3B00000932300320029003000FFF77DFE4B464A
:10B3C000002B19D10F4B9A465346009323003A00A5
:10B3D00029003800FFF770FE5346009323003A001F
:10B3E00021003000FFF768FE43460133DBB2984688
:10B3F000BAE7044B9A46C4E700239A46E4E7C046FE
:10B4000030840000FFFF0000002201E0C04601324E
:10B41000024B43439342F9D87047C046701700006F
:10B4200010B582B000230093254A01210020FFF7C8
:10B43000E1F9244C002201212000FFF75DF90022F0
:10B4400001212148FFF758F9C02001220121800085
:10B45000FFF752F900210020FFF75CFD00212000DA
:10B46000FFF728F96420FFF7CFFF01212000FFF745
:10B4700021F96420FFF7C8FF3620FFF731FD0020D7
:10B48000FFF7F6FCB620FFF72BFD0A20FFF7F0FCD4
:10B49000A220FFF7EDFC3A20FFF722FD0520FFF781
:10B4A000E7FC1120FFF71CFDC8208000FFF7ACFF70
:10B4B0000648FFF75EFD2920FFF712FD02B010BD20
:10B4C000204E00000203000001030000FFFF000007
:10B4D00010B582B072B66B46DC1D21000020FFF76C
:10B4E0006BFC2378002B02D162B602B010BD0100C4
:10B4F0000020FFF71DFCF7E710B572B60120FEF73C
:10B5000023FC62B610BD10B50C001368012B05D0EA
:10B51000022B07D023680133236010BD536840B26B
:10B520009847F7E793681870936801339360F1E7E1
:10B53000F0B583B016001D00471C00230370002ADD
:10B540001FD00C68002C01D000260BE03033437074
:10B550000126300003B0F0BD3023591A397001368E
:10B560000137019C002CF4D029002000FBF726FCB9
:10B57000019029002000FBF707FD0029ECDB3031AA
:10B58000ECE70C68002C08D1302343700126E0E77B
:10B5900037343C70013601370400002CD9D0290023
:10B5A0002000FBF781FB03006B43E41A092CEFD862
:10B5B0003034EEE7F8B504000D0017001E0005E07A
:10B5C000320039003020FFF79EFF0134AC42F7DB38
:10B5D000F8BDF8B504000D0017001E0005E03200AC
:10B5E00039002020FFF78FFF0134AC42F7DBF8BDB4
:10B5F00010B5C1B20220FFF79BFB10BDF0B5D646D7
:10B600004F4680B59BB004008946150014220021E6
:10B6100015A800F0EEFD4C22002102A800F0E9FD83
:10B620002668676830003900FBF74CFD8246FEF75C
:10B630002BF902000B0030003900FDF751FD060028
:10B640000F00002D0ED14B4A4B4BFDF7D7FAFBF7FD
:10B6500057FD04000191002515E00022474BFDF73E
:10B66000CDFA25006C1E002DF7D1FBF749FD040033
:10B670000191F0E70022414B30003900FDF7BEFA9E
:10B6800006000F00013500223D4B30003900FBF76A
:10B6900097FC0028EED16F1E5346002B21D130338A
:10B6A0004A4613702F3B9A4653465D1C2E234A464A
:10B6B00051465354019B234323D0002639E0751C87
:10B6C0000A215046FBF776FBB60015ABF1500A2174
:10B6D0005046FBF7E9FA82462E005346002BEED186
:10B6E0000CE00026F9E7013EB20015ABD358303329
:10B6F0004A465146535401239C46E244002EF2D15F
:10B70000D2E73033535501352AE00A2200232000C6
:10B710000199FBF7B7FC731C9A46B60002ABF250D6
:10B720000A22002320000199FBF7ACFC04000191E0
:10B730005646019B2343E8D105E0B300002202A94D
:10B740005A50013F0136002FF7D107E0013EB30008
:10B7500002AA9B5830334A4653550135002EF5D185
:10B760004B465B1900221A7028001BB00CBC914696
:10B770009A46F0BD00A0D885573476430000244097
:10B780000000F03FF0B5DE4657464E464546E0B570
:10B7900095B000900D0090460BAC212200212000B6
:10B7A00000F027FD3023237000230A930133019317
:10B7B00000239A460BE0009C22000AA90D20FFF707
:10B7C000A2FE22000AA90A20FFF79DFE01350020F3
:10B7D0002856002800D17CE2252822D00A28EAD069
:10B7E000009A0AA9FFF78FFEF0E701231E43050028
:10B7F00000291BD1681C0123EB56203BDAB2102A2A
:10B8000012D89300BE4AD3589F4602231E43EEE748
:10B8100004231E43EBE708231E43E8E710231E43DF
:10B82000E5E700260021E3E70121E1E7002400230A
:10B830001F0000E00F00002F0ED1681C0123EB5603
:10B840001A00303AD2B2092AF4D8A20012195400D0
:10B85000303BE4180500EEE7BB466F1C0123EB56B6
:10B860002E2B19D00023994601936B1C0122AA5656
:10B87000682A04D06C2A27D04C2A2AD02B005D1CC1
:10B88000012018560300583BDAB2202A00D918E2EA
:10B8900093009C4AD3589F460023002000E058465E
:10B8A00000280ED17D1C0122BA5611003039C9B2D0
:10B8B0000929F4D89900C9184B00303A9B182F0079
:10B8C000EEE799463D00D0E70122514611438A46F2
:10B8D000D5E70222514611438A46D0E74346043356
:10B8E000029343461B6809930A23012209A90BA866
:10B8F000FFF71EFE81460BAF4F44099B002B07DB71
:10B90000B30719D501239C46E1442A33984604E045
:10B9100001239C46E1442C33984633071CD543460B
:10B92000002B13D1009B0AAA21004846FFF742FED4
:10B93000A146029B984662E1042333409846ECD02E
:10B9400001239C46E1441F339846E6E7009A0AA982
:10B950004046FFF7D8FDE5E7F30705D54346002B42
:10B9600016D1029B98464AE1009B0AAA210048464C
:10B97000FFF72FFE4346002B02D1029B98463EE183
:10B98000009A0AA94046FFF7BEFD029B984636E1A1
:10B99000009A0AA94046FFF7B6FD029B98462EE1A1
:10B9A0000C2343449B46434659689F6802910A0012
:10B9B0003B00069207930022002302983900FBF710
:10B9C000FFFA002806D1B30724D40427374008D053
:10B9D000202706E0029A802109067B180692079329
:10B9E0002D27019B002B17D15346002B1BD108227A
:10B9F0000BA906A8FFF702FE0290330720D5002FFF
:10BA000018D1009B0AAA21000298FFF7D3FD0294E7
:10BA10000BAF32E02B27E4E74A460BA906A8FFF755
:10BA2000EDFD0290E9E74A460BA906A8FFF7E6FDFF
:10BA30000290E2E7009A0AA93800FFF764FDE0E708
:10BA4000F30707D5002FE3D0009A0AA93800FFF7C3
:10BA50005AFDDDE7009B0AAA21000298FFF7B9FD15
:10BA6000002FD5D0009A0AA93800FFF74CFDCFE788
:10BA70000137009A0AA9FFF746FD00203856002832
:10BA8000F6D1F30701D4D846A0E6009B0AAA21000C
:10BA90000298FFF79EFDD84698E64346043302938A
:10BAA00043461B6805931023002205A90BA8FFF746
:10BAB0003FFD81460BAF4F4408233340984623D0C7
:10BAC0001023334098460FD1009B0AAA2100484614
:10BAD000FFF770FDA146F30600D49EE04346002B1D
:10BAE00030D0029B98468AE0009A0AA93020FFF7DE
:10BAF0000AFD009A0AA97820FFF705FDD846E3E77A
:10BB0000C0CB000004CC0000F307E4D41023334082
:10BB1000984602D002239C46E144009B0AAA2100D9
:10BB20004846FFF756FD4346002BD4D0009A0AA999
:10BB30003020FFF7E8FC009A0AA97820FFF7E3FC21
:10BB4000D846C8E7009A0AA93020FFF7DCFC009A23
:10BB50000AA97820FFF7D7FC02239C46E144029B08
:10BB600098464CE043461F1D1B680593082300229E
:10BB700005A90BA8FFF7DCFC8146B8460BAF4F4484
:10BB800033072FD4F3073AD4009B0AAA2100484672
:10BB9000FFF71FFD33E043461F1D1B68059302237B
:10BBA000002205A90BA8FFF7C3FC8146B846E5E7CC
:10BBB00043461F1D1B6805931023002205A90BA8EF
:10BBC000FFF7B6FC8146B846D8E743461F1D1B6801
:10BBD00005930A23002205A90BA8FFF7A9FC8146BB
:10BBE000B846CBE7009B0AAA21004846FFF7E2FCD3
:10BBF000A14604E0013F009A0AA9FFF784FC002057
:10BC000038560028F6D1F30700D4DFE5009B0AAAD6
:10BC100021004846FFF7DDFCD8E5029B9846EEE799
:10BC200043461C1D00201856009A0AA9FFF76BFC1A
:10BC3000A046CBE543460433029343461F68002FDA
:10BC400044D03800FDF752FF039001231E4013D06B
:10BC50004B46002B1BD00020385600281BD04B46EB
:10BC6000002BF8DD01235B429C46E1440137009A3A
:10BC70000AA9FFF748FCEEE7009B0AAA2100FFF79C
:10BC8000A8FCE5E70137009A0AA9FFF73CFC002071
:10BC900038560028F6D1002E02D1029B984695E531
:10BCA000009B0AAA21000398FFF793FC029B984689
:10BCB0008CE543461B680A9A1A6004239C46E044BC
:10BCC00084E5009A0AA9FFF71EFC7FE5029B9846CF
:10BCD0007CE50A9815B03CBC90469946A246AB4616
:10BCE000F0BDC0460FB400B585B001230193054BEC
:10BCF000029306AA02CA01A8FFF744FD05B008BCDA
:10BD000004B01847F1B50000F0B5C64600B58CB0D8
:10BD100004000D0000F080F83A4B06001B780F007D
:10BD20005BB2984601330FD022002B00200029007F
:10BD3000FDF71EFD002807D1002200232000290066
:10BD4000FBF752F9002805D0300039000CB004BCD4
:10BD50009046F0BD2C4B0A900393434604940595FE
:10BD600006940795002B1AD1E022284B1206089260
:10BD700009932000002200232900FBF71BF900286B
:10BD800038D00223029302A800F01CFA002817D032
:10BD90000A9B0193002B18D1089E099FD4E700222B
:10BDA0001B4B200008920993290000220023FBF777
:10BDB00001F900280FD0022302934346022BE2D15F
:10BDC00000F008FA22230360E2E700F003FA0A9B7E
:10BDD00001930360E0E7012302934346022B0BD15A
:10BDE00000F0F8F9212303600A4800F0EDF908900B
:10BDF0000991CDE70123029302A800F0E3F900289E
:10BE0000F2D1EDE72B04002088CC0000FFFFEFC744
:10BE10000000F0FF20C40000F0B5D6464F4646466D
:10BE2000C0B5CA4A86B00B00914200DDCCE04A00A2
:10BE30005208024300D1D6E0002900DAE6E0C44B04
:10BE40000022FCF7DBFE3625C24C0B006D42A342FC
:10BE500000DDBEE01A15C04C1B031B0B9846A44620
:10BE60008024BE4B640343442340BD4C62445219BA
:10BE70005C4045461B1599462543B94B2900914422
:10BE80000022FDF72DF9434602331B0306000F0085
:10BE90001B0B0022022B00DCACE08023DB05FBF750
:10BEA00087FF02000B0030003900FCF79DFA040008
:10BEB00048460D00FDF7AEFC2200009001912B00DA
:10BEC0002000290004940595FCF798FE0D0004005D
:10BED000A449220041442B008A46200029000294F4
:10BEE0000395FCF78BFE04000D009F4A9F4BFCF767
:10BEF00085FE9F4A9F4BFBF75BFF22002B00FCF760
:10BF00007DFE9D4A9D4BFBF753FF22002B00FCF763
:10BF100075FE9B4A9B4BFBF74BFF029A039BFCF77A
:10BF20006DFE994A02900391984B20002900FCF77E
:10BF300065FE974A974BFBF73BFF22002B00FCF76F
:10BF40005DFE954A954BFBF733FF22002B00FCF773
:10BF500055FE0B00020002980399FBF729FF0D0024
:10BF600041468F4B04005B1A51460B43002B00DC0B
:10BF700095E000228B4B30003900FCF73FFE320089
:10BF80003B00FCF73BFE0A00010013000291039204
:10BF9000020029002000FBF70BFF049A059BFCF729
:10BFA0002DFE4B4604000D00002B00D08DE002005A
:10BFB0000B0002980399FDF793F802000B00300084
:10BFC0003900FDF78DF808E0624C0025A34200DC43
:10BFD00040E702000B00FBF7EBFE06B01CBC9046EE
:10BFE0009946A246F0BD0022002300206E49FCF7CE
:10BFF000FBF9F2E70023FAF7DDFF00280ED04B46ED
:10C00000002B00D084E000200021E6E70200FDF7CD
:10C0100067F800220023FCF7E7F9DEE7634A644B88
:10C0200030003900FCF7EAFD02000B0000205D49FA
:10C03000FDF756F8320004000D003B0030003900D7
:10C04000FCF7DCFD0B00020029002000FCF7D6FD08
:10C050004B4604000D00002B30D04846FDF7DAFBBC
:10C0600000900191534A544BFCF7C8FD534A02908B
:10C07000039100980199524BFCF7C0FD02000B00A0
:10C0800020002900FDF72CF832003B00FDF728F8CE
:10C0900002000B0002980399FDF722F89DE72200A9
:10C0A0002B0030003900FDF71BF8049A059BFCF7C4
:10C0B000A5FD4B4604000D00002B41D122002B00B2
:10C0C00030003900FDF70CF887E73A4A3A4B009800
:10C0D0000199FCF793FD394A049005910098019964
:10C0E000374BFCF78BFD22002B00FBF761FE0200B3
:10C0F0000B0002980399FCF7F3FF32003B00FCF7BA
:10C10000EFFF02000B0004980599FCF7E9FF64E7D4
:10C110004846FDF77FFB274A274B04000D00FCF73C
:10C120006DFD264A06000F00254B20002900FCF774
:10C1300065FD02000B0030003900FBF739FE4CE7CB
:10C140001C4A1D4B009801998EE7C046FFFF0F0067
:10C1500000005043FFFFEF7F01FCFFFF645F090019
:10C160000000F03F86EBF9FF44523EDF12F1C23F80
:10C17000DE03CB966446C73F599322942449D23FAD
:10C18000935555555555E53F9FC678D0099AC33FFD
:10C19000AF788E1DC571CC3F04FA97999999D93F14
:10C1A00051B806000000E03F000050C355555555FA
:10C1B0005555D53F0000E0FE422EE63F763C7935EE
:10C1C000EF39EA3D00207047002001497047C04622
:10C1D0000000F87F014B18687047C0462C0400200F
:10C1E000002310B59A4200D110BDCC5CC454013379
:10C1F000F8E703001218934200D170471970013319
:10C20000F9E700003E7400007A7300009E7300009E
:10C210003C7300009E7300001A7400009E730000BF
:10C220003C7300007A7300007A7300001A740000F7
:10C230003C730000707400007074000070740000A3
:10C24000267400007A7300007A7300009E73000069
:10C250003A7300009E7300001A7400009E73000081
:10C260003A7300007A7300007A7300001A740000B9
:10C270003A73000070740000707400007074000065
:10C280002474000068770000127700001277000025
:10C29000407800000E7700000E770000367800002E
:10C2A000407800000E770000367800000E7700001E
:10C2B0004078000044780000447800004478000092
:10C2C0004C7800008C860000FE840000428500004F
:10C2D000A6840000428500003286000042850000EE
:10C2E000A6840000FE840000FE8400003286000068
:10C2F000A68400009E8400009E8400009E840000AE
:10C3000040860000B48D0000B68C0000B68C0000A2
:10C31000D48F0000B08C0000B08C0000BC8F0000F7
:10C32000D48F0000B08C0000BC8F0000B08C0000E7
:10C33000D48F0000CA8F0000CA8F0000CA8F00008F
:10C34000D88F0000DE9B0000DE9B0000E29B000017
:10C35000E29B0000EA9B0000EA9B0000BDF8C8EBEE
:10C3600055736572B5C46D61696E2E2E2E0A00007C
:10C370004C4344B3F5CABCBBAF2E2E2E00000000C8
:10C38000B3C9B9A60A000000BDF0BAF9C2ABCCE14E
:10C39000CABEA3BA4C4344C6C1C4BBB0E6C3E62E72
:10C3A0002E2E000041484C2D4D43552D4B4C33361D
:10C3B0000000000048617264776172652D546573F6
:10C3C000740000004D43555F546D703A000000004A
:10C3D000526F756E645F546D703A00004272696707
:10C3E00068746E6573733A004D61676E6574697346
:10C3F0006D3A00005472692D636F6C6F75726564DD
:10C40000206C696768743A00CDEAB3C90A0000007D
:10C41000204C494748545F5245443A4F4E2D2D0A0F
:10C420000000000020202020202020005245440051
:10C43000204C494748545F475245454E3A4F4E2D90
:10C440002D0A0000475245454E000000204C494748
:10C4500048545F424C55453A4F4E2D2D0A0000007E
:10C46000424C554500000000206D63755F74656D9A
:10C4700070A3BA25642D2D0A000000002020202082
:10C48000202020200000000020202020200000008C
:10C490005900000020B4C5C1A6A3BA25640A000053
:10C4A00020BBB7BEB3CEC2B6C8A3BA25640A00008B
:10C4B00020B9E2D5D5A3BA25640A0000204D435522
:10C4C000CEC2B6C8A3BA25342E326C660A0000006C
:10C4D000D5E2CAC7D0BEC6ACCEC2B6C80000000006
:10C4E00000F00F4040F00F4080F00F40C0F00F40D0
:10C4F00000F10F400090044000A0044000B0044050
:10C5000000C0044000D00440303132333435363777
:10C510003839414243444546323032303037313683
:10C52000000000002020A1BE55736572CCE1CABE98
:10C53000A1BFA3BABDABBDF8C8EB55736572B5C456
:10C540006D61696E2829D6B4D0D02E2E2E0D0A002A
:10C5500000B0064000C00640BDF0800080004001F1
:10C5600020021004080AF47783208000F80F80006E
:10C5700088089004A012FE3F0000BAF92002202291
:10C58000FF7F2002103E9022FE23103E5022FC220C
:10C59000443E442244227C2244298010C2AB100431
:10C5A0001024FF7F10048010FC3F04100410FC1FB7
:10C5B0000410040004000400020002000100000056
:10C5C000000000000000000000000000000000006B
:10C5D0000000183C3C3C1818180018180000000017
:10C5E00000666666240000000000000000000000F5
:10C5F00000000036367F3636367F363600000000C3
:10C6000018183E6343033E6061633E181800000043
:10C6100000000000436330180C0663610000000056
