:100000000030002025120000CD140000CD140000A7
:10001000CD140000CD140000CD140000CD1400005C
:10002000CD140000CD140000CD140000CD1400004C
:10003000CD140000CD140000CD140000CD1400003C
:10004000CD140000CD140000CD140000CD1400002C
:10005000CD140000CD140000CD140000CD1400001C
:10006000CD140000CD140000CD140000CD1400000C
:10007000CD140000A1080000CD140000CD14000034
:10008000CD140000CD140000CD140000CD140000EC
:10009000CD140000CD140000CD140000CD140000DC
:1000A000CD140000CD140000CD140000CD140000CC
:1000B000CD140000CD140000CD140000CD140000BC
:10080000002934D00123002210B488422CD30124C3
:100810002407A14204D2814202D209011B01F8E758
:10082000E400A14204D2814202D249005B00F8E711
:10083000884201D3401A1A434C08A04202D3001B3D
:100840005C0822438C08A04202D3001B9C08224370
:10085000CC08A04202D3001BDC082243002803D0AE
:100860001B0901D00909E3E7101C10BC70470028E0
:1008700001D00020C04307B4024802A140180290F2
:1008800003BDC046190000000029F0D003B5FFF7F2
:10089000B9FF0EBC4243891A1847C0467047C0468C
:1008A00080B582B000AF7B1D01221A7072B67B1D2D
:1008B0000120191C00F0CEFA031C1A1CBB1D1A8063
:1008C000304B1B68002B06D1BB1D1B88303B9AB2F6
:1008D0002D4B1A801BE02B4B1B68012B06D1BB1D37
:1008E0001B88303B9AB2284B5A8010E0254B1B687E
:1008F000022B06D1BB1D1B88303B9AB2224B9A803B
:1009000005E0BB1D1B88303B9AB21F4BDA801D4BA4
:100910001B68032B1BD11C4B1B88FA2292005343EC
:100920009AB2194B5B8864214B439BB2D3189AB29D
:10093000154B9B88191C8900CB185B009BB2D31800
:100940009AB2114BDB88D3189AB2104B1A800D4B18
:100950001B685A1C0B4B1A600A4B1B68042B02D1F4
:10096000084B00221A607B1D1B78002B06D1BB1D93
:100970001B88DBB20120191C00F0EAF962B6BD4603
:1009800002B080BD140400201804002020040020C0
:1009900080B582B000AF174B00221A8072B60A23CE
:1009A000FF33181C012100F05BF896239B01012006
:1009B00002211A1C00F096F80F4B0120191C00F0C0
:1009C00011FA012000F084FB00237B60012000F07D
:1009D00097FA62B67B6801337B607A68074B9A426C
:1009E00007D900237B60034B1B88181C00F0CEFB4B
:1009F000F0E7EFE720040020D414000040420F008D
:100A000090B583B000AF021CBB1D1A80BB1D1B88B4
:100A1000202B02D9BB1D20221A80104A0F49C02367
:100A20005B00C958BB1D18881F2303400120041C0C
:100A30009C40231C1943C0235B00D150074B074A3D
:100A40001168BA1D10881F2202400120041C944026
:100A5000221C0A431A60BD4603B090BD00E100E0CD
:100A600080B582B000AF0A1CBB1D011C19807B1D24
:100A70001A70BB1D1A887B1D1B78101C01211A1CC3
:100A800000F08CFABD4602B080BDC04680B500AF14
:100A9000134B134A1278D2B203210A43D2B21A700E
:100AA0000F4B0F4A127AD2B21A720D4B0C4AD278FF
:100AB000D2B214210A43D2B2DA70094B084A5278F2
:100AC000D2B201210A43D2B25A70C046044B9B797C
:100AD000DBB21A1C01231340F8D0BD4680BDC046CE
:100AE0000040064090B589B000AFB9607A603B1C09
:100AF0000F33021C1A708D4BBB613B1C0F331B78EC
:100B00005A1E8B4B9200D3587B613B1C0F331B78D2
:100B1000002B00D099E0BB68002B02D0012B0CD039
:100B20001EE0FFF7B3FF834A8249834BCB58C021B5
:100B300009051943804BD15012E07E4A7D497E4B16
:100B4000CB588021C90419437B4BD150794A79494C
:100B5000794BCB58802149021943774BD150C0467D
:100B6000764BC02292009A63744BC0229200DA63E3
:100B7000704A7049724BCB588021C9001943704BA1
:100B8000D150BB69DB78DBB20C229343DAB2BB698C
:100B9000DA70BB68002B03D1FA231B01FB6104E070
:100BA000BB68012B01D1674BFB61FB69FA22920004
:100BB0005A437B681B01101C191CFFF721FE031C04
:100BC0009CB2BB691B78DAB23B1C13331F218A43EA
:100BD0001A70221CF8235B0113401B12DAB21F2388
:100BE0001340DAB23B1C13331B781343DAB2BB69F0
:100BF0001A70E2B2BB695A704C4B0F229A724B4B7F
:100C000000229A70494B00229A71484B00221A72B6
:100C1000464B00225A72454B444A1279D2B21F21E8
:100C20000A43D2B21A71414B404A5279D2B24021A2
:100C300049420A43D2B25A71BB69DB78DBB20C225B
:100C40001343DAB2BB69DA706DE03B1C0F331B78DB
:100C5000012B02D0022B12D023E03B4BC02292008A
:100C60001A60394BC02292005A60324A3149344BE3
:100C7000CB58802109011943314BD15011E0324B3F
:100C80008022D2009A65304B8022D200DA65294A50
:100C900028492B4BCB58802149011943284BD1506F
:100CA000C0467B69DB78DBB20C229343DAB27B6906
:100CB000DA707B6900229A707B681B012348191C3B
:100CC000FFF79EFD031C9CB27B691B78DAB23B1CCC
:100CD00013331F218A431A70221CF8235B0113402F
:100CE0001B12DAB21F231340DAB23B1C13331B78FA
:100CF0001343DAB27B691A70E2B27B695A707B697E
:100D000000229A707B6900229A717B691F221A71F6
:100D10007B6900225A717B69DB78DBB20C221343BA
:100D2000DAB27B69DA70BD4609B090BD00A006401A
:100D3000E81400000070044004100000009004401B
:100D40003410000080BB000000D0044000366E016B
:100D500080B586B000AF0A1CFB1D011C1970BB1DBD
:100D60001A701D4B3B61FB1D1B785A1E1B4B9200DA
:100D7000D358FB6000237B611EE0FB1D1B78002B1A
:100D80000BD13B691B79DBB2DBB25BB2002B10DA13
:100D90003B69BA1D1278DA7112E0FB681B79DBB28D
:100DA000DBB25BB2002B04DAFB68BA1D1278DA7191
:100DB00006E07B6901337B617A69094B9A42DCD991
:100DC0007A69074B9A4201D9012300E00023181CDD
:100DD000BD4606B080BDC04600A00640E814000035
:100DE000BAFB000080B584B000AF021C3960FB1D67
:100DF0001A703B1C0E3300221A803B68BB603B1C00
:100E00000E3300221A8017E03B1C0E331B88BA6891
:100E1000D3181B78FA1D1278101C191CFFF798FFC5
:100E2000031C002B01D001230FE03B1C0E331A885A
:100E30003B1C0E3301321A803B1C0E331B88BA68F0
:100E4000D3181B78002BDFD10023181CBD4604B03B
:100E500080BDC04680B586B000AF021C3960FB1D66
:100E60001A70244BFB60FB1D1B785A1E224B92000C
:100E7000D358BB6000237B6126E0FB1D1B78002B51
:100E80000FD1FB681B79DBB21A1C2023134018D04A
:100E90003B1C1333FA68D2791A703B6800221A702F
:100EA00016E0BB681B79DBB21A1C2023134008D064
:100EB0003B1C1333BA68D2791A703B6800221A704F
:100EC00006E07B6901337B617A690C4B9A42D4D985
:100ED0007A690A4B9A4206D93B1C1333FF221A70D7
:100EE0003B6801221A703B1C13331B78181CBD464B
:100EF00006B080BD00A00640E8140000BAFB000068
:100F000080B584B000AF021CFB1D1A70134BFB6050
:100F1000FB1D1B785A1E124B9200D358BB60FB1D61
:100F20001B78002B08D1FB68DB78DBB2202213434F
:100F3000DAB2FB68DA7007E0BB68DB78DBB220224C
:100F40001343DAB2BB68DA70FB1D1B78054AD35C29
:100F5000181CFFF755FDBD4604B080BD00A006403B
:100F6000E81400001004002080B584B000AFB96020
:100F70007A603B1C0E33021C1A803B1C0E331B880C
:100F80001B0A9BB2DAB2BB681A703B1C0E331B887B
:100F9000DAB27B681A70BD4604B080BD80B586B0F9
:100FA00000AFBB1D18807B1D19703B1D1A70BB1D47
:100FB00019883A1C0F323B1C0E33081C111C1A1CDA
:100FC000FFF7D2FF3B1C0F331B781A1C1E4B9200FD
:100FD000D3587B613B1C0F331B781A1C1B4B9200B0
:100FE000D3583B613B1C0E331B781A1C7B69920063
:100FF00080214900D1507B1D1B78012B14D13B6906
:101000005A693B1C0E331B780121081C9840031CB5
:101010001A433B695A61BB1D1A883B1D1B78101C83
:10102000191C00F015F80CE03B695B693A1C0E32A4
:1010300012780121081C9040021CD2431A403B69DF
:101040005A61BD4606B080BDF014000004150000D2
:1010500080B584B000AF0A1CBB1D011C19807B1D2C
:101060001A70BB1D19883A1C0B323B1C0A33081C32
:10107000111C1A1CFFF778FF3B1C0B331B781A1C42
:10108000124B9200D358FB607B1D1B78012B0CD1B7
:10109000FB681A683B1C0A331B780121081C984026
:1010A000031C1A43FB681A600CE0FB681B683A1CBF
:1010B0000A3212780121081C9040021CD2431A40C7
:1010C000FB681A60BD4604B080BDC0460415000030
:1010D00080B582B000AF021CFB1D1A70284A284957
:1010E000284BCB58802109061943264BD150FB1DB4
:1010F0001B78012B0AD1244A23492123CB5CDBB284
:1011000040210B43D9B22123D1540DE0FB1D1B78A4
:10111000002B09D11C4A1C492123CB5CDBB24021A6
:101120008B43D9B22123D154174A17492123CB5CD1
:10113000DBB220210B43D9B22123D154124A1249E8
:101140002123CB5CDBB21B218B43D9B22123D154A9
:101150000D4A0D492223CB5CD9B27A230B40D9B278
:101160002223D154084A08492123CB5CDBB28021D9
:1011700049420B43D9B22123D154BD4602B080BDB0
:10118000007004403C10000000F0034080B582B0C5
:1011900000AF021CBB1D1A80BB1D1B88044A101C1B
:1011A00000211A1C00F006F8BD4602B080BDC04602
:1011B00000F0034080B586B000AFF8607A603B1C59
:1011C0000B330A1C1A7000237B613B1C0B331A780B
:1011D0007B68D9B2FB685200D1543B1C0B331B789F
:1011E0007968F02212010A401212D2B2F9685B004B
:1011F000CB185A703B1C0B331A78FB685200D35C37
:10120000DBB21A1C3B1C0B331B78F9685B00CB1854
:101210005B78DBB21B0213437B617B69181CBD4604
:1012200006B080BD80B500AF084A88235B0100216D
:10123000D15000F00DF800F035F800F051F800F052
:1012400085F800F071F8FFF7A3FBFEE7007004409B
:1012500080B582B000AF0E4A0E4B9A4211D00023E7
:101260007B600AE00B4A7B68D3181A7808497B68D0
:10127000CB181A707B6801337B607A68064B9A4200
:10128000F0D9064A0249064BD150BD4602B080BD96
:1012900000F0FF1F000000000F04000000E000E06D
:1012A000080D000080B584B000AF0B4BFB600B4B0A
:1012B0007B607A68FB68D31ABB6004E0FB685A1C49
:1012C000FA6000221A70BB685A1EBA60002BF5D172
:1012D000BD4604B080BDC046140400202404002094
:1012E00080B584B000AF0D4BFB600D4B3B600D4BE8
:1012F000BB603A68FB68D31A7B6007E0FB685A1C46
:10130000FA60BA68511CB96012781A707B685A1E6C
:101310007A60002BF2D1BD4604B080BD10040020DD
:10132000140400201815000080B500AF054A0549D7
:10133000054BCB58F82189011943034BD150BD46C9
:1013400080BDC046007004403810000080B582B0F7
:1013500000AF00237B60FB1C00221A70544B142248
:101360005A70534B98221A7000237B600AE0504B4E
:101370009B79DBB21A1C0223134000D006E07B6885
:1013800001337B607A684B4B9A42F0D900237B6033
:101390000AE0474B9B79DBB21A1C1023134000D1A3
:1013A00006E07B6801337B607A68434B9A42F0D950
:1013B00000237B600CE03E4B9B79DBB21A1C0C23B4
:1013C00013409B08022B00D106E07B6801337B6051
:1013D0007A68394B9A42EED9354B354A5279D2B2B6
:1013E00020210A43D2B25A71314B314A1279D2B21A
:1013F00001210A43D2B21A712D4AFB1C52791A708C
:10140000FB1CFA1C12781F218A431A70FB1CFA1C61
:10141000127840210A431A70254BFA1C12785A712F
:1014200000237B600AE0224B9B79DBB21A1C20234D
:10143000134000D006E07B6801337B607A681E4B66
:101440009A42F0D900237B600AE0194B9B79DBB20A
:101450001A1C4023134000D006E07B6801337B60F8
:101460007A68164B9A42F0D9154A164B1649D15054
:101470000F4B0F4A1278D1B23F220A40D2B21A70F3
:1014800000237B600CE00A4B9B79DBB21A1C0C2317
:1014900013409B08032B00D106E07B6801337B607F
:1014A0007A68054B9A42EED9BD4602B080BDC0466F
:1014B000004006401F4E0000CF0700009F0F0000B5
:1014C00000700440441000000000011080B500AF1F
:1014D000BD4680BD54686973206973204441432030
:1014E00054657374210D0A0000B0064000C0064028
:1014F0000090044000A0044000B0044000C004403C
:1015000000D0044000F00F4040F00F4080F00F404A
:08151000C0F00F4000F10F4094
:041518000C0D0E00A8
:10151C001815000010040020040000001C15000029
:10152C0010F4FF1F0000000000000000000000008D
:04153C0000000000AB
:0400000300001225C2
:00000001FF
